{
  "_format": "hh-sol-artifact-1",
  "contractName": "Nestcoin",
  "sourceName": "contracts/Nestcoin.sol",
  "abi": [
    {
      "inputs": [],
      "stateMutability": "nonpayable",
      "type": "constructor"
    },
    {
      "anonymous": false,
      "inputs": [
        {
          "indexed": true,
          "internalType": "address",
          "name": "owner",
          "type": "address"
        },
        {
          "indexed": true,
          "internalType": "address",
          "name": "spender",
          "type": "address"
        },
        {
          "indexed": false,
          "internalType": "uint256",
          "name": "value",
          "type": "uint256"
        }
      ],
      "name": "Approval",
      "type": "event"
    },
    {
      "anonymous": false,
      "inputs": [
        {
          "indexed": true,
          "internalType": "bytes32",
          "name": "role",
          "type": "bytes32"
        },
        {
          "indexed": true,
          "internalType": "address",
          "name": "account",
          "type": "address"
        }
      ],
      "name": "GrantRoles",
      "type": "event"
    },
    {
      "anonymous": false,
      "inputs": [
        {
          "indexed": true,
          "internalType": "address",
          "name": "previousOwner",
          "type": "address"
        },
        {
          "indexed": true,
          "internalType": "address",
          "name": "newOwner",
          "type": "address"
        }
      ],
      "name": "OwnershipTransferred",
      "type": "event"
    },
    {
      "anonymous": false,
      "inputs": [
        {
          "indexed": true,
          "internalType": "bytes32",
          "name": "role",
          "type": "bytes32"
        },
        {
          "indexed": true,
          "internalType": "address",
          "name": "account",
          "type": "address"
        }
      ],
      "name": "RemoveRoles",
      "type": "event"
    },
    {
      "anonymous": false,
      "inputs": [
        {
          "indexed": true,
          "internalType": "address",
          "name": "from",
          "type": "address"
        },
        {
          "indexed": true,
          "internalType": "address",
          "name": "to",
          "type": "address"
        },
        {
          "indexed": false,
          "internalType": "uint256",
          "name": "value",
          "type": "uint256"
        }
      ],
      "name": "Transfer",
      "type": "event"
    },
    {
      "inputs": [],
      "name": "ADMIN",
      "outputs": [
        {
          "internalType": "bytes32",
          "name": "",
          "type": "bytes32"
        }
      ],
      "stateMutability": "view",
      "type": "function"
    },
    {
      "inputs": [],
      "name": "USER",
      "outputs": [
        {
          "internalType": "bytes32",
          "name": "",
          "type": "bytes32"
        }
      ],
      "stateMutability": "view",
      "type": "function"
    },
    {
      "inputs": [
        {
          "internalType": "address",
          "name": "owner",
          "type": "address"
        },
        {
          "internalType": "address",
          "name": "spender",
          "type": "address"
        }
      ],
      "name": "allowance",
      "outputs": [
        {
          "internalType": "uint256",
          "name": "",
          "type": "uint256"
        }
      ],
      "stateMutability": "view",
      "type": "function"
    },
    {
      "inputs": [
        {
          "internalType": "address",
          "name": "spender",
          "type": "address"
        },
        {
          "internalType": "uint256",
          "name": "amount",
          "type": "uint256"
        }
      ],
      "name": "approve",
      "outputs": [
        {
          "internalType": "bool",
          "name": "",
          "type": "bool"
        }
      ],
      "stateMutability": "nonpayable",
      "type": "function"
    },
    {
      "inputs": [
        {
          "internalType": "address",
          "name": "account",
          "type": "address"
        }
      ],
      "name": "balanceOf",
      "outputs": [
        {
          "internalType": "uint256",
          "name": "",
          "type": "uint256"
        }
      ],
      "stateMutability": "view",
      "type": "function"
    },
    {
      "inputs": [],
      "name": "decimals",
      "outputs": [
        {
          "internalType": "uint8",
          "name": "",
          "type": "uint8"
        }
      ],
      "stateMutability": "view",
      "type": "function"
    },
    {
      "inputs": [
        {
          "internalType": "address",
          "name": "spender",
          "type": "address"
        },
        {
          "internalType": "uint256",
          "name": "subtractedValue",
          "type": "uint256"
        }
      ],
      "name": "decreaseAllowance",
      "outputs": [
        {
          "internalType": "bool",
          "name": "",
          "type": "bool"
        }
      ],
      "stateMutability": "nonpayable",
      "type": "function"
    },
    {
      "inputs": [],
      "name": "destroy",
      "outputs": [],
      "stateMutability": "nonpayable",
      "type": "function"
    },
    {
      "inputs": [
        {
          "internalType": "bytes32",
          "name": "_role",
          "type": "bytes32"
        },
        {
          "internalType": "address",
          "name": "_account",
          "type": "address"
        }
      ],
      "name": "grantRole",
      "outputs": [],
      "stateMutability": "nonpayable",
      "type": "function"
    },
    {
      "inputs": [
        {
          "internalType": "address",
          "name": "spender",
          "type": "address"
        },
        {
          "internalType": "uint256",
          "name": "addedValue",
          "type": "uint256"
        }
      ],
      "name": "increaseAllowance",
      "outputs": [
        {
          "internalType": "bool",
          "name": "",
          "type": "bool"
        }
      ],
      "stateMutability": "nonpayable",
      "type": "function"
    },
    {
      "inputs": [
        {
          "internalType": "uint256",
          "name": "amount",
          "type": "uint256"
        }
      ],
      "name": "mint",
      "outputs": [],
      "stateMutability": "nonpayable",
      "type": "function"
    },
    {
      "inputs": [],
      "name": "name",
      "outputs": [
        {
          "internalType": "string",
          "name": "",
          "type": "string"
        }
      ],
      "stateMutability": "view",
      "type": "function"
    },
    {
      "inputs": [],
      "name": "owner",
      "outputs": [
        {
          "internalType": "address",
          "name": "",
          "type": "address"
        }
      ],
      "stateMutability": "view",
      "type": "function"
    },
    {
      "inputs": [
        {
          "internalType": "bytes32",
          "name": "_role",
          "type": "bytes32"
        },
        {
          "internalType": "address",
          "name": "_account",
          "type": "address"
        }
      ],
      "name": "removeRole",
      "outputs": [],
      "stateMutability": "nonpayable",
      "type": "function"
    },
    {
      "inputs": [],
      "name": "renounceOwnership",
      "outputs": [],
      "stateMutability": "nonpayable",
      "type": "function"
    },
    {
      "inputs": [
        {
          "internalType": "bytes32",
          "name": "",
          "type": "bytes32"
        },
        {
          "internalType": "address",
          "name": "",
          "type": "address"
        }
      ],
      "name": "roles",
      "outputs": [
        {
          "internalType": "bool",
          "name": "",
          "type": "bool"
        }
      ],
      "stateMutability": "view",
      "type": "function"
    },
    {
      "inputs": [],
      "name": "symbol",
      "outputs": [
        {
          "internalType": "string",
          "name": "",
          "type": "string"
        }
      ],
      "stateMutability": "view",
      "type": "function"
    },
    {
      "inputs": [],
      "name": "totalSupply",
      "outputs": [
        {
          "internalType": "uint256",
          "name": "",
          "type": "uint256"
        }
      ],
      "stateMutability": "view",
      "type": "function"
    },
    {
      "inputs": [
        {
          "internalType": "address",
          "name": "to",
          "type": "address"
        },
        {
          "internalType": "uint256",
          "name": "amount",
          "type": "uint256"
        }
      ],
      "name": "transfer",
      "outputs": [
        {
          "internalType": "bool",
          "name": "",
          "type": "bool"
        }
      ],
      "stateMutability": "nonpayable",
      "type": "function"
    },
    {
      "inputs": [
        {
          "internalType": "address",
          "name": "from",
          "type": "address"
        },
        {
          "internalType": "address",
          "name": "to",
          "type": "address"
        },
        {
          "internalType": "uint256",
          "name": "amount",
          "type": "uint256"
        }
      ],
      "name": "transferFrom",
      "outputs": [
        {
          "internalType": "bool",
          "name": "",
          "type": "bool"
        }
      ],
      "stateMutability": "nonpayable",
      "type": "function"
    },
    {
      "inputs": [
        {
          "internalType": "address",
          "name": "newOwner",
          "type": "address"
        }
      ],
      "name": "transferOwnership",
      "outputs": [],
      "stateMutability": "nonpayable",
      "type": "function"
    }
  ],
  "bytecode": "0x60806040523480156200001157600080fd5b506040518060400160405280600881526020017f4e657374636f696e0000000000000000000000000000000000000000000000008152506040518060400160405280600381526020017f4e5443000000000000000000000000000000000000000000000000000000000081525081600390805190602001906200009692919062000289565b508060049080519060200190620000af92919062000289565b505050620000d2620000c66200010a60201b60201c565b6200011260201b60201c565b620001047fdf8b4c520ffe197c5343c6f5aec59570151ef9a492f2c624fd45ddde6135ec4233620001d860201b60201c565b6200039e565b600033905090565b6000600560009054906101000a900473ffffffffffffffffffffffffffffffffffffffff16905081600560006101000a81548173ffffffffffffffffffffffffffffffffffffffff021916908373ffffffffffffffffffffffffffffffffffffffff1602179055508173ffffffffffffffffffffffffffffffffffffffff168173ffffffffffffffffffffffffffffffffffffffff167f8be0079c531659141344cd1fd0a4f28419497f9722a3daafe3b4186f6b6457e060405160405180910390a35050565b60016006600084815260200190815260200160002060008373ffffffffffffffffffffffffffffffffffffffff1673ffffffffffffffffffffffffffffffffffffffff16815260200190815260200160002060006101000a81548160ff0219169083151502179055508073ffffffffffffffffffffffffffffffffffffffff16827f28be2ad647d19c04889746a89a2c95468f8dcd453018d6d0f2411904e90dff1360405160405180910390a35050565b828054620002979062000339565b90600052602060002090601f016020900481019282620002bb576000855562000307565b82601f10620002d657805160ff191683800117855562000307565b8280016001018555821562000307579182015b8281111562000306578251825591602001919060010190620002e9565b5b5090506200031691906200031a565b5090565b5b80821115620003355760008160009055506001016200031b565b5090565b600060028204905060018216806200035257607f821691505b602082108114156200036957620003686200036f565b5b50919050565b7f4e487b7100000000000000000000000000000000000000000000000000000000600052602260045260246000fd5b61203780620003ae6000396000f3fe608060405234801561001057600080fd5b50600436106101375760003560e01c806381e167cf116100b8578063a457c2d71161007c578063a457c2d71461031a578063a9059cbb1461034a578063dd62ed3e1461037a578063f2fde38b146103aa578063f6ba0007146103c6578063f8fc08b9146103e257610137565b806381e167cf1461029a57806383197ef0146102b85780638da5cb5b146102c257806395d89b41146102e0578063a0712d68146102fe57610137565b80632f2ff15d116100ff5780632f2ff15d146101f6578063313ce56714610212578063395093511461023057806370a0823114610260578063715018a61461029057610137565b806306fdde031461013c578063095ea7b31461015a57806318160ddd1461018a57806323b872dd146101a85780632a0acc6a146101d8575b600080fd5b610144610412565b6040516101519190611992565b60405180910390f35b610174600480360381019061016f919061169b565b6104a4565b604051610181919061195c565b60405180910390f35b6101926104c7565b60405161019f9190611b14565b60405180910390f35b6101c260048036038101906101bd919061164c565b6104d1565b6040516101cf919061195c565b60405180910390f35b6101e0610500565b6040516101ed9190611977565b60405180910390f35b610210600480360381019061020b91906116d7565b610524565b005b61021a6105f1565b6040516102279190611b2f565b60405180910390f35b61024a6004803603810190610245919061169b565b6105fa565b604051610257919061195c565b60405180910390f35b61027a600480360381019061027591906115e7565b6106a4565b6040516102879190611b14565b60405180910390f35b6102986106ec565b005b6102a2610774565b6040516102af9190611977565b60405180910390f35b6102c0610798565b005b6102ca610834565b6040516102d79190611941565b60405180910390f35b6102e861085e565b6040516102f59190611992565b60405180910390f35b61031860048036038101906103139190611713565b6108f0565b005b610334600480360381019061032f919061169b565b6109bc565b604051610341919061195c565b60405180910390f35b610364600480360381019061035f919061169b565b610aa6565b604051610371919061195c565b60405180910390f35b610394600480360381019061038f9190611610565b610ac9565b6040516103a19190611b14565b60405180910390f35b6103c460048036038101906103bf91906115e7565b610b50565b005b6103e060048036038101906103db91906116d7565b610c48565b005b6103fc60048036038101906103f791906116d7565b610db8565b604051610409919061195c565b60405180910390f35b60606003805461042190611c4e565b80601f016020809104026020016040519081016040528092919081815260200182805461044d90611c4e565b801561049a5780601f1061046f5761010080835404028352916020019161049a565b820191906000526020600020905b81548152906001019060200180831161047d57829003601f168201915b5050505050905090565b6000806104af610de7565b90506104bc818585610def565b600191505092915050565b6000600254905090565b6000806104dc610de7565b90506104e9858285610fba565b6104f4858585611046565b60019150509392505050565b7fdf8b4c520ffe197c5343c6f5aec59570151ef9a492f2c624fd45ddde6135ec4281565b7fdf8b4c520ffe197c5343c6f5aec59570151ef9a492f2c624fd45ddde6135ec426006600082815260200190815260200160002060003373ffffffffffffffffffffffffffffffffffffffff1673ffffffffffffffffffffffffffffffffffffffff16815260200190815260200160002060009054906101000a900460ff166105e2576040517f08c379a00000000000000000000000000000000000000000000000000000000081526004016105d990611a54565b60405180910390fd5b6105ec83836112c7565b505050565b60006012905090565b600080610605610de7565b9050610699818585600160008673ffffffffffffffffffffffffffffffffffffffff1673ffffffffffffffffffffffffffffffffffffffff16815260200190815260200160002060008973ffffffffffffffffffffffffffffffffffffffff1673ffffffffffffffffffffffffffffffffffffffff168152602001908152602001600020546106949190611b66565b610def565b600191505092915050565b60008060008373ffffffffffffffffffffffffffffffffffffffff1673ffffffffffffffffffffffffffffffffffffffff168152602001908152602001600020549050919050565b6106f4610de7565b73ffffffffffffffffffffffffffffffffffffffff16610712610834565b73ffffffffffffffffffffffffffffffffffffffff1614610768576040517f08c379a000000000000000000000000000000000000000000000000000000000815260040161075f90611a74565b60405180910390fd5b6107726000611378565b565b7f2db9fd3d099848027c2383d0a083396f6c41510d7acfd92adc99b6cffcf31e9681565b6107a0610de7565b73ffffffffffffffffffffffffffffffffffffffff166107be610834565b73ffffffffffffffffffffffffffffffffffffffff1614610814576040517f08c379a000000000000000000000000000000000000000000000000000000000815260040161080b90611a74565b60405180910390fd5b61081c610834565b73ffffffffffffffffffffffffffffffffffffffff16ff5b6000600560009054906101000a900473ffffffffffffffffffffffffffffffffffffffff16905090565b60606004805461086d90611c4e565b80601f016020809104026020016040519081016040528092919081815260200182805461089990611c4e565b80156108e65780601f106108bb576101008083540402835291602001916108e6565b820191906000526020600020905b8154815290600101906020018083116108c957829003601f168201915b5050505050905090565b7fdf8b4c520ffe197c5343c6f5aec59570151ef9a492f2c624fd45ddde6135ec426006600082815260200190815260200160002060003373ffffffffffffffffffffffffffffffffffffffff1673ffffffffffffffffffffffffffffffffffffffff16815260200190815260200160002060009054906101000a900460ff166109ae576040517f08c379a00000000000000000000000000000000000000000000000000000000081526004016109a590611a54565b60405180910390fd5b6109b8338361143e565b5050565b6000806109c7610de7565b90506000600160008373ffffffffffffffffffffffffffffffffffffffff1673ffffffffffffffffffffffffffffffffffffffff16815260200190815260200160002060008673ffffffffffffffffffffffffffffffffffffffff1673ffffffffffffffffffffffffffffffffffffffff16815260200190815260200160002054905083811015610a8d576040517f08c379a0000000000000000000000000000000000000000000000000000000008152600401610a8490611ad4565b60405180910390fd5b610a9a8286868403610def565b60019250505092915050565b600080610ab1610de7565b9050610abe818585611046565b600191505092915050565b6000600160008473ffffffffffffffffffffffffffffffffffffffff1673ffffffffffffffffffffffffffffffffffffffff16815260200190815260200160002060008373ffffffffffffffffffffffffffffffffffffffff1673ffffffffffffffffffffffffffffffffffffffff16815260200190815260200160002054905092915050565b610b58610de7565b73ffffffffffffffffffffffffffffffffffffffff16610b76610834565b73ffffffffffffffffffffffffffffffffffffffff1614610bcc576040517f08c379a0000000000000000000000000000000000000000000000000000000008152600401610bc390611a74565b60405180910390fd5b600073ffffffffffffffffffffffffffffffffffffffff168173ffffffffffffffffffffffffffffffffffffffff161415610c3c576040517f08c379a0000000000000000000000000000000000000000000000000000000008152600401610c33906119d4565b60405180910390fd5b610c4581611378565b50565b7fdf8b4c520ffe197c5343c6f5aec59570151ef9a492f2c624fd45ddde6135ec426006600082815260200190815260200160002060003373ffffffffffffffffffffffffffffffffffffffff1673ffffffffffffffffffffffffffffffffffffffff16815260200190815260200160002060009054906101000a900460ff16610d06576040517f08c379a0000000000000000000000000000000000000000000000000000000008152600401610cfd90611a54565b60405180910390fd5b60006006600085815260200190815260200160002060008473ffffffffffffffffffffffffffffffffffffffff1673ffffffffffffffffffffffffffffffffffffffff16815260200190815260200160002060006101000a81548160ff0219169083151502179055508173ffffffffffffffffffffffffffffffffffffffff16837f69331970bf0fcdf0e1bcab5a5b121dddcd366a05701b071791a387a80fc918f460405160405180910390a3505050565b60066020528160005260406000206020528060005260406000206000915091509054906101000a900460ff1681565b600033905090565b600073ffffffffffffffffffffffffffffffffffffffff168373ffffffffffffffffffffffffffffffffffffffff161415610e5f576040517f08c379a0000000000000000000000000000000000000000000000000000000008152600401610e5690611ab4565b60405180910390fd5b600073ffffffffffffffffffffffffffffffffffffffff168273ffffffffffffffffffffffffffffffffffffffff161415610ecf576040517f08c379a0000000000000000000000000000000000000000000000000000000008152600401610ec6906119f4565b60405180910390fd5b80600160008573ffffffffffffffffffffffffffffffffffffffff1673ffffffffffffffffffffffffffffffffffffffff16815260200190815260200160002060008473ffffffffffffffffffffffffffffffffffffffff1673ffffffffffffffffffffffffffffffffffffffff168152602001908152602001600020819055508173ffffffffffffffffffffffffffffffffffffffff168373ffffffffffffffffffffffffffffffffffffffff167f8c5be1e5ebec7d5bd14f71427d1e84f3dd0314c0f7b2291e5b200ac8c7c3b92583604051610fad9190611b14565b60405180910390a3505050565b6000610fc68484610ac9565b90507fffffffffffffffffffffffffffffffffffffffffffffffffffffffffffffffff81146110405781811015611032576040517f08c379a000000000000000000000000000000000000000000000000000000000815260040161102990611a14565b60405180910390fd5b61103f8484848403610def565b5b50505050565b600073ffffffffffffffffffffffffffffffffffffffff168373ffffffffffffffffffffffffffffffffffffffff1614156110b6576040517f08c379a00000000000000000000000000000000000000000000000000000000081526004016110ad90611a94565b60405180910390fd5b600073ffffffffffffffffffffffffffffffffffffffff168273ffffffffffffffffffffffffffffffffffffffff161415611126576040517f08c379a000000000000000000000000000000000000000000000000000000000815260040161111d906119b4565b60405180910390fd5b61113183838361159e565b60008060008573ffffffffffffffffffffffffffffffffffffffff1673ffffffffffffffffffffffffffffffffffffffff168152602001908152602001600020549050818110156111b7576040517f08c379a00000000000000000000000000000000000000000000000000000000081526004016111ae90611a34565b60405180910390fd5b8181036000808673ffffffffffffffffffffffffffffffffffffffff1673ffffffffffffffffffffffffffffffffffffffff16815260200190815260200160002081905550816000808573ffffffffffffffffffffffffffffffffffffffff1673ffffffffffffffffffffffffffffffffffffffff168152602001908152602001600020600082825461124a9190611b66565b925050819055508273ffffffffffffffffffffffffffffffffffffffff168473ffffffffffffffffffffffffffffffffffffffff167fddf252ad1be2c89b69c2b068fc378daa952ba7f163c4a11628f55a4df523b3ef846040516112ae9190611b14565b60405180910390a36112c18484846115a3565b50505050565b60016006600084815260200190815260200160002060008373ffffffffffffffffffffffffffffffffffffffff1673ffffffffffffffffffffffffffffffffffffffff16815260200190815260200160002060006101000a81548160ff0219169083151502179055508073ffffffffffffffffffffffffffffffffffffffff16827f28be2ad647d19c04889746a89a2c95468f8dcd453018d6d0f2411904e90dff1360405160405180910390a35050565b6000600560009054906101000a900473ffffffffffffffffffffffffffffffffffffffff16905081600560006101000a81548173ffffffffffffffffffffffffffffffffffffffff021916908373ffffffffffffffffffffffffffffffffffffffff1602179055508173ffffffffffffffffffffffffffffffffffffffff168173ffffffffffffffffffffffffffffffffffffffff167f8be0079c531659141344cd1fd0a4f28419497f9722a3daafe3b4186f6b6457e060405160405180910390a35050565b600073ffffffffffffffffffffffffffffffffffffffff168273ffffffffffffffffffffffffffffffffffffffff1614156114ae576040517f08c379a00000000000000000000000000000000000000000000000000000000081526004016114a590611af4565b60405180910390fd5b6114ba6000838361159e565b80600260008282546114cc9190611b66565b92505081905550806000808473ffffffffffffffffffffffffffffffffffffffff1673ffffffffffffffffffffffffffffffffffffffff16815260200190815260200160002060008282546115219190611b66565b925050819055508173ffffffffffffffffffffffffffffffffffffffff16600073ffffffffffffffffffffffffffffffffffffffff167fddf252ad1be2c89b69c2b068fc378daa952ba7f163c4a11628f55a4df523b3ef836040516115869190611b14565b60405180910390a361159a600083836115a3565b5050565b505050565b505050565b6000813590506115b781611fbc565b92915050565b6000813590506115cc81611fd3565b92915050565b6000813590506115e181611fea565b92915050565b6000602082840312156115f957600080fd5b6000611607848285016115a8565b91505092915050565b6000806040838503121561162357600080fd5b6000611631858286016115a8565b9250506020611642858286016115a8565b9150509250929050565b60008060006060848603121561166157600080fd5b600061166f868287016115a8565b9350506020611680868287016115a8565b9250506040611691868287016115d2565b9150509250925092565b600080604083850312156116ae57600080fd5b60006116bc858286016115a8565b92505060206116cd858286016115d2565b9150509250929050565b600080604083850312156116ea57600080fd5b60006116f8858286016115bd565b9250506020611709858286016115a8565b9150509250929050565b60006020828403121561172557600080fd5b6000611733848285016115d2565b91505092915050565b61174581611bbc565b82525050565b61175481611bce565b82525050565b61176381611bda565b82525050565b600061177482611b4a565b61177e8185611b55565b935061178e818560208601611c1b565b61179781611cde565b840191505092915050565b60006117af602383611b55565b91506117ba82611cef565b604082019050919050565b60006117d2602683611b55565b91506117dd82611d3e565b604082019050919050565b60006117f5602283611b55565b915061180082611d8d565b604082019050919050565b6000611818601d83611b55565b915061182382611ddc565b602082019050919050565b600061183b602683611b55565b915061184682611e05565b604082019050919050565b600061185e600e83611b55565b915061186982611e54565b602082019050919050565b6000611881602083611b55565b915061188c82611e7d565b602082019050919050565b60006118a4602583611b55565b91506118af82611ea6565b604082019050919050565b60006118c7602483611b55565b91506118d282611ef5565b604082019050919050565b60006118ea602583611b55565b91506118f582611f44565b604082019050919050565b600061190d601f83611b55565b915061191882611f93565b602082019050919050565b61192c81611c04565b82525050565b61193b81611c0e565b82525050565b6000602082019050611956600083018461173c565b92915050565b6000602082019050611971600083018461174b565b92915050565b600060208201905061198c600083018461175a565b92915050565b600060208201905081810360008301526119ac8184611769565b905092915050565b600060208201905081810360008301526119cd816117a2565b9050919050565b600060208201905081810360008301526119ed816117c5565b9050919050565b60006020820190508181036000830152611a0d816117e8565b9050919050565b60006020820190508181036000830152611a2d8161180b565b9050919050565b60006020820190508181036000830152611a4d8161182e565b9050919050565b60006020820190508181036000830152611a6d81611851565b9050919050565b60006020820190508181036000830152611a8d81611874565b9050919050565b60006020820190508181036000830152611aad81611897565b9050919050565b60006020820190508181036000830152611acd816118ba565b9050919050565b60006020820190508181036000830152611aed816118dd565b9050919050565b60006020820190508181036000830152611b0d81611900565b9050919050565b6000602082019050611b296000830184611923565b92915050565b6000602082019050611b446000830184611932565b92915050565b600081519050919050565b600082825260208201905092915050565b6000611b7182611c04565b9150611b7c83611c04565b9250827fffffffffffffffffffffffffffffffffffffffffffffffffffffffffffffffff03821115611bb157611bb0611c80565b5b828201905092915050565b6000611bc782611be4565b9050919050565b60008115159050919050565b6000819050919050565b600073ffffffffffffffffffffffffffffffffffffffff82169050919050565b6000819050919050565b600060ff82169050919050565b60005b83811015611c39578082015181840152602081019050611c1e565b83811115611c48576000848401525b50505050565b60006002820490506001821680611c6657607f821691505b60208210811415611c7a57611c79611caf565b5b50919050565b7f4e487b7100000000000000000000000000000000000000000000000000000000600052601160045260246000fd5b7f4e487b7100000000000000000000000000000000000000000000000000000000600052602260045260246000fd5b6000601f19601f8301169050919050565b7f45524332303a207472616e7366657220746f20746865207a65726f206164647260008201527f6573730000000000000000000000000000000000000000000000000000000000602082015250565b7f4f776e61626c653a206e6577206f776e657220697320746865207a65726f206160008201527f6464726573730000000000000000000000000000000000000000000000000000602082015250565b7f45524332303a20617070726f766520746f20746865207a65726f20616464726560008201527f7373000000000000000000000000000000000000000000000000000000000000602082015250565b7f45524332303a20696e73756666696369656e7420616c6c6f77616e6365000000600082015250565b7f45524332303a207472616e7366657220616d6f756e742065786365656473206260008201527f616c616e63650000000000000000000000000000000000000000000000000000602082015250565b7f6e6f7420617574686f72697a6564000000000000000000000000000000000000600082015250565b7f4f776e61626c653a2063616c6c6572206973206e6f7420746865206f776e6572600082015250565b7f45524332303a207472616e736665722066726f6d20746865207a65726f20616460008201527f6472657373000000000000000000000000000000000000000000000000000000602082015250565b7f45524332303a20617070726f76652066726f6d20746865207a65726f2061646460008201527f7265737300000000000000000000000000000000000000000000000000000000602082015250565b7f45524332303a2064656372656173656420616c6c6f77616e63652062656c6f7760008201527f207a65726f000000000000000000000000000000000000000000000000000000602082015250565b7f45524332303a206d696e7420746f20746865207a65726f206164647265737300600082015250565b611fc581611bbc565b8114611fd057600080fd5b50565b611fdc81611bda565b8114611fe757600080fd5b50565b611ff381611c04565b8114611ffe57600080fd5b5056fea26469706673582212206740cce2a76cdffa7b1f40b68ace502c56d52e2f629a61e2f16db4f9346f3f7064736f6c63430008040033",
  "linkReferences": {},
  "deployedLinkReferences": {}
}