{
  "_format": "hh-sol-artifact-1",
  "contractName": "Nestcoin",
  "sourceName": "contracts/Nestcoin.sol",
  "abi": [
    {
      "inputs": [],
      "stateMutability": "nonpayable",
      "type": "constructor"
    },
    {
      "anonymous": false,
      "inputs": [
        {
          "indexed": true,
          "internalType": "address",
          "name": "owner",
          "type": "address"
        },
        {
          "indexed": true,
          "internalType": "address",
          "name": "spender",
          "type": "address"
        },
        {
          "indexed": false,
          "internalType": "uint256",
          "name": "value",
          "type": "uint256"
        }
      ],
      "name": "Approval",
      "type": "event"
    },
    {
      "anonymous": false,
      "inputs": [
        {
          "indexed": true,
          "internalType": "address",
          "name": "previousOwner",
          "type": "address"
        },
        {
          "indexed": true,
          "internalType": "address",
          "name": "newOwner",
          "type": "address"
        }
      ],
      "name": "OwnershipTransferred",
      "type": "event"
    },
    {
      "anonymous": false,
      "inputs": [
        {
          "indexed": true,
          "internalType": "address",
          "name": "from",
          "type": "address"
        },
        {
          "indexed": true,
          "internalType": "address",
          "name": "to",
          "type": "address"
        },
        {
          "indexed": false,
          "internalType": "uint256",
          "name": "value",
          "type": "uint256"
        }
      ],
      "name": "Transfer",
      "type": "event"
    },
    {
      "inputs": [
        {
          "internalType": "address",
          "name": "owner",
          "type": "address"
        },
        {
          "internalType": "address",
          "name": "spender",
          "type": "address"
        }
      ],
      "name": "allowance",
      "outputs": [
        {
          "internalType": "uint256",
          "name": "",
          "type": "uint256"
        }
      ],
      "stateMutability": "view",
      "type": "function"
    },
    {
      "inputs": [
        {
          "internalType": "address",
          "name": "spender",
          "type": "address"
        },
        {
          "internalType": "uint256",
          "name": "amount",
          "type": "uint256"
        }
      ],
      "name": "approve",
      "outputs": [
        {
          "internalType": "bool",
          "name": "",
          "type": "bool"
        }
      ],
      "stateMutability": "nonpayable",
      "type": "function"
    },
    {
      "inputs": [
        {
          "internalType": "uint256",
          "name": "amount",
          "type": "uint256"
        },
        {
          "internalType": "address",
          "name": "account",
          "type": "address"
        },
        {
          "internalType": "uint256",
          "name": "list",
          "type": "uint256"
        }
      ],
      "name": "approveMulti",
      "outputs": [],
      "stateMutability": "nonpayable",
      "type": "function"
    },
    {
      "inputs": [
        {
          "internalType": "address",
          "name": "account",
          "type": "address"
        }
      ],
      "name": "balanceOf",
      "outputs": [
        {
          "internalType": "uint256",
          "name": "",
          "type": "uint256"
        }
      ],
      "stateMutability": "view",
      "type": "function"
    },
    {
      "inputs": [],
      "name": "decimals",
      "outputs": [
        {
          "internalType": "uint8",
          "name": "",
          "type": "uint8"
        }
      ],
      "stateMutability": "view",
      "type": "function"
    },
    {
      "inputs": [
        {
          "internalType": "address",
          "name": "spender",
          "type": "address"
        },
        {
          "internalType": "uint256",
          "name": "subtractedValue",
          "type": "uint256"
        }
      ],
      "name": "decreaseAllowance",
      "outputs": [
        {
          "internalType": "bool",
          "name": "",
          "type": "bool"
        }
      ],
      "stateMutability": "nonpayable",
      "type": "function"
    },
    {
      "inputs": [
        {
          "internalType": "address",
          "name": "spender",
          "type": "address"
        },
        {
          "internalType": "uint256",
          "name": "addedValue",
          "type": "uint256"
        }
      ],
      "name": "increaseAllowance",
      "outputs": [
        {
          "internalType": "bool",
          "name": "",
          "type": "bool"
        }
      ],
      "stateMutability": "nonpayable",
      "type": "function"
    },
    {
      "inputs": [
        {
          "internalType": "uint256",
          "name": "amount",
          "type": "uint256"
        }
      ],
      "name": "mint",
      "outputs": [],
      "stateMutability": "nonpayable",
      "type": "function"
    },
    {
      "inputs": [],
      "name": "name",
      "outputs": [
        {
          "internalType": "string",
          "name": "",
          "type": "string"
        }
      ],
      "stateMutability": "view",
      "type": "function"
    },
    {
      "inputs": [],
      "name": "owner",
      "outputs": [
        {
          "internalType": "address",
          "name": "",
          "type": "address"
        }
      ],
      "stateMutability": "view",
      "type": "function"
    },
    {
      "inputs": [],
      "name": "renounceOwnership",
      "outputs": [],
      "stateMutability": "nonpayable",
      "type": "function"
    },
    {
      "inputs": [],
      "name": "symbol",
      "outputs": [
        {
          "internalType": "string",
          "name": "",
          "type": "string"
        }
      ],
      "stateMutability": "view",
      "type": "function"
    },
    {
      "inputs": [],
      "name": "totalSupply",
      "outputs": [
        {
          "internalType": "uint256",
          "name": "",
          "type": "uint256"
        }
      ],
      "stateMutability": "view",
      "type": "function"
    },
    {
      "inputs": [
        {
          "internalType": "address",
          "name": "to",
          "type": "address"
        },
        {
          "internalType": "uint256",
          "name": "amount",
          "type": "uint256"
        }
      ],
      "name": "transfer",
      "outputs": [
        {
          "internalType": "bool",
          "name": "",
          "type": "bool"
        }
      ],
      "stateMutability": "nonpayable",
      "type": "function"
    },
    {
      "inputs": [
        {
          "internalType": "address",
          "name": "from",
          "type": "address"
        },
        {
          "internalType": "address",
          "name": "to",
          "type": "address"
        },
        {
          "internalType": "uint256",
          "name": "amount",
          "type": "uint256"
        }
      ],
      "name": "transferFrom",
      "outputs": [
        {
          "internalType": "bool",
          "name": "",
          "type": "bool"
        }
      ],
      "stateMutability": "nonpayable",
      "type": "function"
    },
    {
      "inputs": [
        {
          "internalType": "address",
          "name": "newOwner",
          "type": "address"
        }
      ],
      "name": "transferOwnership",
      "outputs": [],
      "stateMutability": "nonpayable",
      "type": "function"
    }
  ],
  "bytecode": "0x60806040523480156200001157600080fd5b506040518060400160405280600881526020017f4e657374636f696e0000000000000000000000000000000000000000000000008152506040518060400160405280600381526020017f4e54430000000000000000000000000000000000000000000000000000000000815250816003908051906020019062000096929190620001a6565b508060049080519060200190620000af929190620001a6565b505050620000d2620000c6620000d860201b60201c565b620000e060201b60201c565b620002bb565b600033905090565b6000600560009054906101000a900473ffffffffffffffffffffffffffffffffffffffff16905081600560006101000a81548173ffffffffffffffffffffffffffffffffffffffff021916908373ffffffffffffffffffffffffffffffffffffffff1602179055508173ffffffffffffffffffffffffffffffffffffffff168173ffffffffffffffffffffffffffffffffffffffff167f8be0079c531659141344cd1fd0a4f28419497f9722a3daafe3b4186f6b6457e060405160405180910390a35050565b828054620001b49062000256565b90600052602060002090601f016020900481019282620001d8576000855562000224565b82601f10620001f357805160ff191683800117855562000224565b8280016001018555821562000224579182015b828111156200022357825182559160200191906001019062000206565b5b50905062000233919062000237565b5090565b5b808211156200025257600081600090555060010162000238565b5090565b600060028204905060018216806200026f57607f821691505b602082108114156200028657620002856200028c565b5b50919050565b7f4e487b7100000000000000000000000000000000000000000000000000000000600052602260045260246000fd5b611b8880620002cb6000396000f3fe608060405234801561001057600080fd5b50600436106101005760003560e01c80638328cd8911610097578063a457c2d711610066578063a457c2d71461029d578063a9059cbb146102cd578063dd62ed3e146102fd578063f2fde38b1461032d57610100565b80638328cd89146102295780638da5cb5b1461024557806395d89b4114610263578063a0712d681461028157610100565b8063313ce567116100d3578063313ce567146101a157806339509351146101bf57806370a08231146101ef578063715018a61461021f57610100565b806306fdde0314610105578063095ea7b31461012357806318160ddd1461015357806323b872dd14610171575b600080fd5b61010d610349565b60405161011a91906114f3565b60405180910390f35b61013d60048036038101906101389190611236565b6103db565b60405161014a91906114d8565b60405180910390f35b61015b6103fe565b6040516101689190611655565b60405180910390f35b61018b600480360381019061018691906111e7565b610408565b60405161019891906114d8565b60405180910390f35b6101a9610437565b6040516101b69190611670565b60405180910390f35b6101d960048036038101906101d49190611236565b610440565b6040516101e691906114d8565b60405180910390f35b61020960048036038101906102049190611182565b6104ea565b6040516102169190611655565b60405180910390f35b610227610532565b005b610243600480360381019061023e919061129b565b6105ba565b005b61024d610664565b60405161025a91906114bd565b60405180910390f35b61026b61068e565b60405161027891906114f3565b60405180910390f35b61029b60048036038101906102969190611272565b610720565b005b6102b760048036038101906102b29190611236565b6107bc565b6040516102c491906114d8565b60405180910390f35b6102e760048036038101906102e29190611236565b6108a6565b6040516102f491906114d8565b60405180910390f35b610317600480360381019061031291906111ab565b6108c9565b6040516103249190611655565b60405180910390f35b61034760048036038101906103429190611182565b610950565b005b606060038054610358906117df565b80601f0160208091040260200160405190810160405280929190818152602001828054610384906117df565b80156103d15780601f106103a6576101008083540402835291602001916103d1565b820191906000526020600020905b8154815290600101906020018083116103b457829003601f168201915b5050505050905090565b6000806103e6610a48565b90506103f3818585610a50565b600191505092915050565b6000600254905090565b600080610413610a48565b9050610420858285610c1b565b61042b858585610ca7565b60019150509392505050565b60006012905090565b60008061044b610a48565b90506104df818585600160008673ffffffffffffffffffffffffffffffffffffffff1673ffffffffffffffffffffffffffffffffffffffff16815260200190815260200160002060008973ffffffffffffffffffffffffffffffffffffffff1673ffffffffffffffffffffffffffffffffffffffff168152602001908152602001600020546104da91906116a7565b610a50565b600191505092915050565b60008060008373ffffffffffffffffffffffffffffffffffffffff1673ffffffffffffffffffffffffffffffffffffffff168152602001908152602001600020549050919050565b61053a610a48565b73ffffffffffffffffffffffffffffffffffffffff16610558610664565b73ffffffffffffffffffffffffffffffffffffffff16146105ae576040517f08c379a00000000000000000000000000000000000000000000000000000000081526004016105a5906115b5565b60405180910390fd5b6105b86000610f28565b565b6105c2610a48565b73ffffffffffffffffffffffffffffffffffffffff166105e0610664565b73ffffffffffffffffffffffffffffffffffffffff1614610636576040517f08c379a000000000000000000000000000000000000000000000000000000000815260040161062d906115b5565b60405180910390fd5b61065e82670de0b6b3a7640000838661064f91906116fd565b61065991906116fd565b6103db565b50505050565b6000600560009054906101000a900473ffffffffffffffffffffffffffffffffffffffff16905090565b60606004805461069d906117df565b80601f01602080910402602001604051908101604052809291908181526020018280546106c9906117df565b80156107165780601f106106eb57610100808354040283529160200191610716565b820191906000526020600020905b8154815290600101906020018083116106f957829003601f168201915b5050505050905090565b610728610a48565b73ffffffffffffffffffffffffffffffffffffffff16610746610664565b73ffffffffffffffffffffffffffffffffffffffff161461079c576040517f08c379a0000000000000000000000000000000000000000000000000000000008152600401610793906115b5565b60405180910390fd5b6107a63382610fee565b6107b933336107b4336104ea565b610a50565b50565b6000806107c7610a48565b90506000600160008373ffffffffffffffffffffffffffffffffffffffff1673ffffffffffffffffffffffffffffffffffffffff16815260200190815260200160002060008673ffffffffffffffffffffffffffffffffffffffff1673ffffffffffffffffffffffffffffffffffffffff1681526020019081526020016000205490508381101561088d576040517f08c379a000000000000000000000000000000000000000000000000000000000815260040161088490611615565b60405180910390fd5b61089a8286868403610a50565b60019250505092915050565b6000806108b1610a48565b90506108be818585610ca7565b600191505092915050565b6000600160008473ffffffffffffffffffffffffffffffffffffffff1673ffffffffffffffffffffffffffffffffffffffff16815260200190815260200160002060008373ffffffffffffffffffffffffffffffffffffffff1673ffffffffffffffffffffffffffffffffffffffff16815260200190815260200160002054905092915050565b610958610a48565b73ffffffffffffffffffffffffffffffffffffffff16610976610664565b73ffffffffffffffffffffffffffffffffffffffff16146109cc576040517f08c379a00000000000000000000000000000000000000000000000000000000081526004016109c3906115b5565b60405180910390fd5b600073ffffffffffffffffffffffffffffffffffffffff168173ffffffffffffffffffffffffffffffffffffffff161415610a3c576040517f08c379a0000000000000000000000000000000000000000000000000000000008152600401610a3390611535565b60405180910390fd5b610a4581610f28565b50565b600033905090565b600073ffffffffffffffffffffffffffffffffffffffff168373ffffffffffffffffffffffffffffffffffffffff161415610ac0576040517f08c379a0000000000000000000000000000000000000000000000000000000008152600401610ab7906115f5565b60405180910390fd5b600073ffffffffffffffffffffffffffffffffffffffff168273ffffffffffffffffffffffffffffffffffffffff161415610b30576040517f08c379a0000000000000000000000000000000000000000000000000000000008152600401610b2790611555565b60405180910390fd5b80600160008573ffffffffffffffffffffffffffffffffffffffff1673ffffffffffffffffffffffffffffffffffffffff16815260200190815260200160002060008473ffffffffffffffffffffffffffffffffffffffff1673ffffffffffffffffffffffffffffffffffffffff168152602001908152602001600020819055508173ffffffffffffffffffffffffffffffffffffffff168373ffffffffffffffffffffffffffffffffffffffff167f8c5be1e5ebec7d5bd14f71427d1e84f3dd0314c0f7b2291e5b200ac8c7c3b92583604051610c0e9190611655565b60405180910390a3505050565b6000610c2784846108c9565b90507fffffffffffffffffffffffffffffffffffffffffffffffffffffffffffffffff8114610ca15781811015610c93576040517f08c379a0000000000000000000000000000000000000000000000000000000008152600401610c8a90611575565b60405180910390fd5b610ca08484848403610a50565b5b50505050565b600073ffffffffffffffffffffffffffffffffffffffff168373ffffffffffffffffffffffffffffffffffffffff161415610d17576040517f08c379a0000000000000000000000000000000000000000000000000000000008152600401610d0e906115d5565b60405180910390fd5b600073ffffffffffffffffffffffffffffffffffffffff168273ffffffffffffffffffffffffffffffffffffffff161415610d87576040517f08c379a0000000000000000000000000000000000000000000000000000000008152600401610d7e90611515565b60405180910390fd5b610d9283838361114e565b60008060008573ffffffffffffffffffffffffffffffffffffffff1673ffffffffffffffffffffffffffffffffffffffff16815260200190815260200160002054905081811015610e18576040517f08c379a0000000000000000000000000000000000000000000000000000000008152600401610e0f90611595565b60405180910390fd5b8181036000808673ffffffffffffffffffffffffffffffffffffffff1673ffffffffffffffffffffffffffffffffffffffff16815260200190815260200160002081905550816000808573ffffffffffffffffffffffffffffffffffffffff1673ffffffffffffffffffffffffffffffffffffffff1681526020019081526020016000206000828254610eab91906116a7565b925050819055508273ffffffffffffffffffffffffffffffffffffffff168473ffffffffffffffffffffffffffffffffffffffff167fddf252ad1be2c89b69c2b068fc378daa952ba7f163c4a11628f55a4df523b3ef84604051610f0f9190611655565b60405180910390a3610f22848484611153565b50505050565b6000600560009054906101000a900473ffffffffffffffffffffffffffffffffffffffff16905081600560006101000a81548173ffffffffffffffffffffffffffffffffffffffff021916908373ffffffffffffffffffffffffffffffffffffffff1602179055508173ffffffffffffffffffffffffffffffffffffffff168173ffffffffffffffffffffffffffffffffffffffff167f8be0079c531659141344cd1fd0a4f28419497f9722a3daafe3b4186f6b6457e060405160405180910390a35050565b600073ffffffffffffffffffffffffffffffffffffffff168273ffffffffffffffffffffffffffffffffffffffff16141561105e576040517f08c379a000000000000000000000000000000000000000000000000000000000815260040161105590611635565b60405180910390fd5b61106a6000838361114e565b806002600082825461107c91906116a7565b92505081905550806000808473ffffffffffffffffffffffffffffffffffffffff1673ffffffffffffffffffffffffffffffffffffffff16815260200190815260200160002060008282546110d191906116a7565b925050819055508173ffffffffffffffffffffffffffffffffffffffff16600073ffffffffffffffffffffffffffffffffffffffff167fddf252ad1be2c89b69c2b068fc378daa952ba7f163c4a11628f55a4df523b3ef836040516111369190611655565b60405180910390a361114a60008383611153565b5050565b505050565b505050565b60008135905061116781611b24565b92915050565b60008135905061117c81611b3b565b92915050565b60006020828403121561119457600080fd5b60006111a284828501611158565b91505092915050565b600080604083850312156111be57600080fd5b60006111cc85828601611158565b92505060206111dd85828601611158565b9150509250929050565b6000806000606084860312156111fc57600080fd5b600061120a86828701611158565b935050602061121b86828701611158565b925050604061122c8682870161116d565b9150509250925092565b6000806040838503121561124957600080fd5b600061125785828601611158565b92505060206112688582860161116d565b9150509250929050565b60006020828403121561128457600080fd5b60006112928482850161116d565b91505092915050565b6000806000606084860312156112b057600080fd5b60006112be8682870161116d565b93505060206112cf86828701611158565b92505060406112e08682870161116d565b9150509250925092565b6112f381611757565b82525050565b61130281611769565b82525050565b60006113138261168b565b61131d8185611696565b935061132d8185602086016117ac565b6113368161186f565b840191505092915050565b600061134e602383611696565b915061135982611880565b604082019050919050565b6000611371602683611696565b915061137c826118cf565b604082019050919050565b6000611394602283611696565b915061139f8261191e565b604082019050919050565b60006113b7601d83611696565b91506113c28261196d565b602082019050919050565b60006113da602683611696565b91506113e582611996565b604082019050919050565b60006113fd602083611696565b9150611408826119e5565b602082019050919050565b6000611420602583611696565b915061142b82611a0e565b604082019050919050565b6000611443602483611696565b915061144e82611a5d565b604082019050919050565b6000611466602583611696565b915061147182611aac565b604082019050919050565b6000611489601f83611696565b915061149482611afb565b602082019050919050565b6114a881611795565b82525050565b6114b78161179f565b82525050565b60006020820190506114d260008301846112ea565b92915050565b60006020820190506114ed60008301846112f9565b92915050565b6000602082019050818103600083015261150d8184611308565b905092915050565b6000602082019050818103600083015261152e81611341565b9050919050565b6000602082019050818103600083015261154e81611364565b9050919050565b6000602082019050818103600083015261156e81611387565b9050919050565b6000602082019050818103600083015261158e816113aa565b9050919050565b600060208201905081810360008301526115ae816113cd565b9050919050565b600060208201905081810360008301526115ce816113f0565b9050919050565b600060208201905081810360008301526115ee81611413565b9050919050565b6000602082019050818103600083015261160e81611436565b9050919050565b6000602082019050818103600083015261162e81611459565b9050919050565b6000602082019050818103600083015261164e8161147c565b9050919050565b600060208201905061166a600083018461149f565b92915050565b600060208201905061168560008301846114ae565b92915050565b600081519050919050565b600082825260208201905092915050565b60006116b282611795565b91506116bd83611795565b9250827fffffffffffffffffffffffffffffffffffffffffffffffffffffffffffffffff038211156116f2576116f1611811565b5b828201905092915050565b600061170882611795565b915061171383611795565b9250817fffffffffffffffffffffffffffffffffffffffffffffffffffffffffffffffff048311821515161561174c5761174b611811565b5b828202905092915050565b600061176282611775565b9050919050565b60008115159050919050565b600073ffffffffffffffffffffffffffffffffffffffff82169050919050565b6000819050919050565b600060ff82169050919050565b60005b838110156117ca5780820151818401526020810190506117af565b838111156117d9576000848401525b50505050565b600060028204905060018216806117f757607f821691505b6020821081141561180b5761180a611840565b5b50919050565b7f4e487b7100000000000000000000000000000000000000000000000000000000600052601160045260246000fd5b7f4e487b7100000000000000000000000000000000000000000000000000000000600052602260045260246000fd5b6000601f19601f8301169050919050565b7f45524332303a207472616e7366657220746f20746865207a65726f206164647260008201527f6573730000000000000000000000000000000000000000000000000000000000602082015250565b7f4f776e61626c653a206e6577206f776e657220697320746865207a65726f206160008201527f6464726573730000000000000000000000000000000000000000000000000000602082015250565b7f45524332303a20617070726f766520746f20746865207a65726f20616464726560008201527f7373000000000000000000000000000000000000000000000000000000000000602082015250565b7f45524332303a20696e73756666696369656e7420616c6c6f77616e6365000000600082015250565b7f45524332303a207472616e7366657220616d6f756e742065786365656473206260008201527f616c616e63650000000000000000000000000000000000000000000000000000602082015250565b7f4f776e61626c653a2063616c6c6572206973206e6f7420746865206f776e6572600082015250565b7f45524332303a207472616e736665722066726f6d20746865207a65726f20616460008201527f6472657373000000000000000000000000000000000000000000000000000000602082015250565b7f45524332303a20617070726f76652066726f6d20746865207a65726f2061646460008201527f7265737300000000000000000000000000000000000000000000000000000000602082015250565b7f45524332303a2064656372656173656420616c6c6f77616e63652062656c6f7760008201527f207a65726f000000000000000000000000000000000000000000000000000000602082015250565b7f45524332303a206d696e7420746f20746865207a65726f206164647265737300600082015250565b611b2d81611757565b8114611b3857600080fd5b50565b611b4481611795565b8114611b4f57600080fd5b5056fea2646970667358221220474988e28c368ac7597196e905a1e181e9fb3a2d509a69865bf6c75ab523692a64736f6c63430008040033",
  "linkReferences": {},
  "deployedLinkReferences": {}
}