{
  "_format": "hh-sol-artifact-1",
  "contractName": "Nestcoin",
  "sourceName": "contracts/Nestcoin.sol",
  "abi": [
    {
      "inputs": [],
      "stateMutability": "nonpayable",
      "type": "constructor"
    },
    {
      "anonymous": false,
      "inputs": [
        {
          "indexed": true,
          "internalType": "address",
          "name": "owner",
          "type": "address"
        },
        {
          "indexed": true,
          "internalType": "address",
          "name": "spender",
          "type": "address"
        },
        {
          "indexed": false,
          "internalType": "uint256",
          "name": "value",
          "type": "uint256"
        }
      ],
      "name": "Approval",
      "type": "event"
    },
    {
      "anonymous": false,
      "inputs": [
        {
          "indexed": true,
          "internalType": "address",
          "name": "previousOwner",
          "type": "address"
        },
        {
          "indexed": true,
          "internalType": "address",
          "name": "newOwner",
          "type": "address"
        }
      ],
      "name": "OwnershipTransferred",
      "type": "event"
    },
    {
      "anonymous": false,
      "inputs": [
        {
          "indexed": true,
          "internalType": "address",
          "name": "from",
          "type": "address"
        },
        {
          "indexed": true,
          "internalType": "address",
          "name": "to",
          "type": "address"
        },
        {
          "indexed": false,
          "internalType": "uint256",
          "name": "value",
          "type": "uint256"
        }
      ],
      "name": "Transfer",
      "type": "event"
    },
    {
      "inputs": [
        {
          "internalType": "address",
          "name": "owner",
          "type": "address"
        },
        {
          "internalType": "address",
          "name": "spender",
          "type": "address"
        }
      ],
      "name": "allowance",
      "outputs": [
        {
          "internalType": "uint256",
          "name": "",
          "type": "uint256"
        }
      ],
      "stateMutability": "view",
      "type": "function"
    },
    {
      "inputs": [
        {
          "internalType": "address",
          "name": "spender",
          "type": "address"
        },
        {
          "internalType": "uint256",
          "name": "amount",
          "type": "uint256"
        }
      ],
      "name": "approve",
      "outputs": [
        {
          "internalType": "bool",
          "name": "",
          "type": "bool"
        }
      ],
      "stateMutability": "nonpayable",
      "type": "function"
    },
    {
      "inputs": [
        {
          "internalType": "uint256",
          "name": "amount",
          "type": "uint256"
        },
        {
          "internalType": "address",
          "name": "account",
          "type": "address"
        },
        {
          "internalType": "uint256",
          "name": "list",
          "type": "uint256"
        }
      ],
      "name": "approveMulti",
      "outputs": [],
      "stateMutability": "nonpayable",
      "type": "function"
    },
    {
      "inputs": [
        {
          "internalType": "address",
          "name": "account",
          "type": "address"
        }
      ],
      "name": "balanceOf",
      "outputs": [
        {
          "internalType": "uint256",
          "name": "",
          "type": "uint256"
        }
      ],
      "stateMutability": "view",
      "type": "function"
    },
    {
      "inputs": [],
      "name": "decimals",
      "outputs": [
        {
          "internalType": "uint8",
          "name": "",
          "type": "uint8"
        }
      ],
      "stateMutability": "view",
      "type": "function"
    },
    {
      "inputs": [
        {
          "internalType": "address",
          "name": "spender",
          "type": "address"
        },
        {
          "internalType": "uint256",
          "name": "subtractedValue",
          "type": "uint256"
        }
      ],
      "name": "decreaseAllowance",
      "outputs": [
        {
          "internalType": "bool",
          "name": "",
          "type": "bool"
        }
      ],
      "stateMutability": "nonpayable",
      "type": "function"
    },
    {
      "inputs": [
        {
          "internalType": "address",
          "name": "spender",
          "type": "address"
        },
        {
          "internalType": "uint256",
          "name": "addedValue",
          "type": "uint256"
        }
      ],
      "name": "increaseAllowance",
      "outputs": [
        {
          "internalType": "bool",
          "name": "",
          "type": "bool"
        }
      ],
      "stateMutability": "nonpayable",
      "type": "function"
    },
    {
      "inputs": [
        {
          "internalType": "uint256",
          "name": "amount",
          "type": "uint256"
        }
      ],
      "name": "mint",
      "outputs": [],
      "stateMutability": "nonpayable",
      "type": "function"
    },
    {
      "inputs": [],
      "name": "name",
      "outputs": [
        {
          "internalType": "string",
          "name": "",
          "type": "string"
        }
      ],
      "stateMutability": "view",
      "type": "function"
    },
    {
      "inputs": [],
      "name": "owner",
      "outputs": [
        {
          "internalType": "address",
          "name": "",
          "type": "address"
        }
      ],
      "stateMutability": "view",
      "type": "function"
    },
    {
      "inputs": [],
      "name": "renounceOwnership",
      "outputs": [],
      "stateMutability": "nonpayable",
      "type": "function"
    },
    {
      "inputs": [],
      "name": "symbol",
      "outputs": [
        {
          "internalType": "string",
          "name": "",
          "type": "string"
        }
      ],
      "stateMutability": "view",
      "type": "function"
    },
    {
      "inputs": [],
      "name": "totalSupply",
      "outputs": [
        {
          "internalType": "uint256",
          "name": "",
          "type": "uint256"
        }
      ],
      "stateMutability": "view",
      "type": "function"
    },
    {
      "inputs": [
        {
          "internalType": "address",
          "name": "to",
          "type": "address"
        },
        {
          "internalType": "uint256",
          "name": "amount",
          "type": "uint256"
        }
      ],
      "name": "transfer",
      "outputs": [
        {
          "internalType": "bool",
          "name": "",
          "type": "bool"
        }
      ],
      "stateMutability": "nonpayable",
      "type": "function"
    },
    {
      "inputs": [
        {
          "internalType": "address",
          "name": "from",
          "type": "address"
        },
        {
          "internalType": "address",
          "name": "to",
          "type": "address"
        },
        {
          "internalType": "uint256",
          "name": "amount",
          "type": "uint256"
        }
      ],
      "name": "transferFrom",
      "outputs": [
        {
          "internalType": "bool",
          "name": "",
          "type": "bool"
        }
      ],
      "stateMutability": "nonpayable",
      "type": "function"
    },
    {
      "inputs": [
        {
          "internalType": "address",
          "name": "newOwner",
          "type": "address"
        }
      ],
      "name": "transferOwnership",
      "outputs": [],
      "stateMutability": "nonpayable",
      "type": "function"
    }
  ],
  "bytecode": "0x60806040523480156200001157600080fd5b506040518060400160405280600881526020017f4e657374636f696e0000000000000000000000000000000000000000000000008152506040518060400160405280600381526020017f4e54430000000000000000000000000000000000000000000000000000000000815250816003908051906020019062000096929190620001a6565b508060049080519060200190620000af929190620001a6565b505050620000d2620000c6620000d860201b60201c565b620000e060201b60201c565b620002bb565b600033905090565b6000600560009054906101000a900473ffffffffffffffffffffffffffffffffffffffff16905081600560006101000a81548173ffffffffffffffffffffffffffffffffffffffff021916908373ffffffffffffffffffffffffffffffffffffffff1602179055508173ffffffffffffffffffffffffffffffffffffffff168173ffffffffffffffffffffffffffffffffffffffff167f8be0079c531659141344cd1fd0a4f28419497f9722a3daafe3b4186f6b6457e060405160405180910390a35050565b828054620001b49062000256565b90600052602060002090601f016020900481019282620001d8576000855562000224565b82601f10620001f357805160ff191683800117855562000224565b8280016001018555821562000224579182015b828111156200022357825182559160200191906001019062000206565b5b50905062000233919062000237565b5090565b5b808211156200025257600081600090555060010162000238565b5090565b600060028204905060018216806200026f57607f821691505b602082108114156200028657620002856200028c565b5b50919050565b7f4e487b7100000000000000000000000000000000000000000000000000000000600052602260045260246000fd5b611b9b80620002cb6000396000f3fe608060405234801561001057600080fd5b50600436106101005760003560e01c80638328cd8911610097578063a457c2d711610066578063a457c2d71461029d578063a9059cbb146102cd578063dd62ed3e146102fd578063f2fde38b1461032d57610100565b80638328cd89146102295780638da5cb5b1461024557806395d89b4114610263578063a0712d681461028157610100565b8063313ce567116100d3578063313ce567146101a157806339509351146101bf57806370a08231146101ef578063715018a61461021f57610100565b806306fdde0314610105578063095ea7b31461012357806318160ddd1461015357806323b872dd14610171575b600080fd5b61010d610349565b60405161011a9190611506565b60405180910390f35b61013d60048036038101906101389190611249565b6103db565b60405161014a91906114eb565b60405180910390f35b61015b6103fe565b6040516101689190611668565b60405180910390f35b61018b600480360381019061018691906111fa565b610408565b60405161019891906114eb565b60405180910390f35b6101a9610437565b6040516101b69190611683565b60405180910390f35b6101d960048036038101906101d49190611249565b610440565b6040516101e691906114eb565b60405180910390f35b61020960048036038101906102049190611195565b6104ea565b6040516102169190611668565b60405180910390f35b610227610532565b005b610243600480360381019061023e91906112ae565b6105ba565b005b61024d610664565b60405161025a91906114d0565b60405180910390f35b61026b61068e565b6040516102789190611506565b60405180910390f35b61029b60048036038101906102969190611285565b610720565b005b6102b760048036038101906102b29190611249565b6107cf565b6040516102c491906114eb565b60405180910390f35b6102e760048036038101906102e29190611249565b6108b9565b6040516102f491906114eb565b60405180910390f35b610317600480360381019061031291906111be565b6108dc565b6040516103249190611668565b60405180910390f35b61034760048036038101906103429190611195565b610963565b005b606060038054610358906117f2565b80601f0160208091040260200160405190810160405280929190818152602001828054610384906117f2565b80156103d15780601f106103a6576101008083540402835291602001916103d1565b820191906000526020600020905b8154815290600101906020018083116103b457829003601f168201915b5050505050905090565b6000806103e6610a5b565b90506103f3818585610a63565b600191505092915050565b6000600254905090565b600080610413610a5b565b9050610420858285610c2e565b61042b858585610cba565b60019150509392505050565b60006012905090565b60008061044b610a5b565b90506104df818585600160008673ffffffffffffffffffffffffffffffffffffffff1673ffffffffffffffffffffffffffffffffffffffff16815260200190815260200160002060008973ffffffffffffffffffffffffffffffffffffffff1673ffffffffffffffffffffffffffffffffffffffff168152602001908152602001600020546104da91906116ba565b610a63565b600191505092915050565b60008060008373ffffffffffffffffffffffffffffffffffffffff1673ffffffffffffffffffffffffffffffffffffffff168152602001908152602001600020549050919050565b61053a610a5b565b73ffffffffffffffffffffffffffffffffffffffff16610558610664565b73ffffffffffffffffffffffffffffffffffffffff16146105ae576040517f08c379a00000000000000000000000000000000000000000000000000000000081526004016105a5906115c8565b60405180910390fd5b6105b86000610f3b565b565b6105c2610a5b565b73ffffffffffffffffffffffffffffffffffffffff166105e0610664565b73ffffffffffffffffffffffffffffffffffffffff1614610636576040517f08c379a000000000000000000000000000000000000000000000000000000000815260040161062d906115c8565b60405180910390fd5b61065e82670de0b6b3a7640000838661064f9190611710565b6106599190611710565b6103db565b50505050565b6000600560009054906101000a900473ffffffffffffffffffffffffffffffffffffffff16905090565b60606004805461069d906117f2565b80601f01602080910402602001604051908101604052809291908181526020018280546106c9906117f2565b80156107165780601f106106eb57610100808354040283529160200191610716565b820191906000526020600020905b8154815290600101906020018083116106f957829003601f168201915b5050505050905090565b610728610a5b565b73ffffffffffffffffffffffffffffffffffffffff16610746610664565b73ffffffffffffffffffffffffffffffffffffffff161461079c576040517f08c379a0000000000000000000000000000000000000000000000000000000008152600401610793906115c8565b60405180910390fd5b6107b933670de0b6b3a7640000836107b49190611710565b611001565b6107cc33336107c7336104ea565b610a63565b50565b6000806107da610a5b565b90506000600160008373ffffffffffffffffffffffffffffffffffffffff1673ffffffffffffffffffffffffffffffffffffffff16815260200190815260200160002060008673ffffffffffffffffffffffffffffffffffffffff1673ffffffffffffffffffffffffffffffffffffffff168152602001908152602001600020549050838110156108a0576040517f08c379a000000000000000000000000000000000000000000000000000000000815260040161089790611628565b60405180910390fd5b6108ad8286868403610a63565b60019250505092915050565b6000806108c4610a5b565b90506108d1818585610cba565b600191505092915050565b6000600160008473ffffffffffffffffffffffffffffffffffffffff1673ffffffffffffffffffffffffffffffffffffffff16815260200190815260200160002060008373ffffffffffffffffffffffffffffffffffffffff1673ffffffffffffffffffffffffffffffffffffffff16815260200190815260200160002054905092915050565b61096b610a5b565b73ffffffffffffffffffffffffffffffffffffffff16610989610664565b73ffffffffffffffffffffffffffffffffffffffff16146109df576040517f08c379a00000000000000000000000000000000000000000000000000000000081526004016109d6906115c8565b60405180910390fd5b600073ffffffffffffffffffffffffffffffffffffffff168173ffffffffffffffffffffffffffffffffffffffff161415610a4f576040517f08c379a0000000000000000000000000000000000000000000000000000000008152600401610a4690611548565b60405180910390fd5b610a5881610f3b565b50565b600033905090565b600073ffffffffffffffffffffffffffffffffffffffff168373ffffffffffffffffffffffffffffffffffffffff161415610ad3576040517f08c379a0000000000000000000000000000000000000000000000000000000008152600401610aca90611608565b60405180910390fd5b600073ffffffffffffffffffffffffffffffffffffffff168273ffffffffffffffffffffffffffffffffffffffff161415610b43576040517f08c379a0000000000000000000000000000000000000000000000000000000008152600401610b3a90611568565b60405180910390fd5b80600160008573ffffffffffffffffffffffffffffffffffffffff1673ffffffffffffffffffffffffffffffffffffffff16815260200190815260200160002060008473ffffffffffffffffffffffffffffffffffffffff1673ffffffffffffffffffffffffffffffffffffffff168152602001908152602001600020819055508173ffffffffffffffffffffffffffffffffffffffff168373ffffffffffffffffffffffffffffffffffffffff167f8c5be1e5ebec7d5bd14f71427d1e84f3dd0314c0f7b2291e5b200ac8c7c3b92583604051610c219190611668565b60405180910390a3505050565b6000610c3a84846108dc565b90507fffffffffffffffffffffffffffffffffffffffffffffffffffffffffffffffff8114610cb45781811015610ca6576040517f08c379a0000000000000000000000000000000000000000000000000000000008152600401610c9d90611588565b60405180910390fd5b610cb38484848403610a63565b5b50505050565b600073ffffffffffffffffffffffffffffffffffffffff168373ffffffffffffffffffffffffffffffffffffffff161415610d2a576040517f08c379a0000000000000000000000000000000000000000000000000000000008152600401610d21906115e8565b60405180910390fd5b600073ffffffffffffffffffffffffffffffffffffffff168273ffffffffffffffffffffffffffffffffffffffff161415610d9a576040517f08c379a0000000000000000000000000000000000000000000000000000000008152600401610d9190611528565b60405180910390fd5b610da5838383611161565b60008060008573ffffffffffffffffffffffffffffffffffffffff1673ffffffffffffffffffffffffffffffffffffffff16815260200190815260200160002054905081811015610e2b576040517f08c379a0000000000000000000000000000000000000000000000000000000008152600401610e22906115a8565b60405180910390fd5b8181036000808673ffffffffffffffffffffffffffffffffffffffff1673ffffffffffffffffffffffffffffffffffffffff16815260200190815260200160002081905550816000808573ffffffffffffffffffffffffffffffffffffffff1673ffffffffffffffffffffffffffffffffffffffff1681526020019081526020016000206000828254610ebe91906116ba565b925050819055508273ffffffffffffffffffffffffffffffffffffffff168473ffffffffffffffffffffffffffffffffffffffff167fddf252ad1be2c89b69c2b068fc378daa952ba7f163c4a11628f55a4df523b3ef84604051610f229190611668565b60405180910390a3610f35848484611166565b50505050565b6000600560009054906101000a900473ffffffffffffffffffffffffffffffffffffffff16905081600560006101000a81548173ffffffffffffffffffffffffffffffffffffffff021916908373ffffffffffffffffffffffffffffffffffffffff1602179055508173ffffffffffffffffffffffffffffffffffffffff168173ffffffffffffffffffffffffffffffffffffffff167f8be0079c531659141344cd1fd0a4f28419497f9722a3daafe3b4186f6b6457e060405160405180910390a35050565b600073ffffffffffffffffffffffffffffffffffffffff168273ffffffffffffffffffffffffffffffffffffffff161415611071576040517f08c379a000000000000000000000000000000000000000000000000000000000815260040161106890611648565b60405180910390fd5b61107d60008383611161565b806002600082825461108f91906116ba565b92505081905550806000808473ffffffffffffffffffffffffffffffffffffffff1673ffffffffffffffffffffffffffffffffffffffff16815260200190815260200160002060008282546110e491906116ba565b925050819055508173ffffffffffffffffffffffffffffffffffffffff16600073ffffffffffffffffffffffffffffffffffffffff167fddf252ad1be2c89b69c2b068fc378daa952ba7f163c4a11628f55a4df523b3ef836040516111499190611668565b60405180910390a361115d60008383611166565b5050565b505050565b505050565b60008135905061117a81611b37565b92915050565b60008135905061118f81611b4e565b92915050565b6000602082840312156111a757600080fd5b60006111b58482850161116b565b91505092915050565b600080604083850312156111d157600080fd5b60006111df8582860161116b565b92505060206111f08582860161116b565b9150509250929050565b60008060006060848603121561120f57600080fd5b600061121d8682870161116b565b935050602061122e8682870161116b565b925050604061123f86828701611180565b9150509250925092565b6000806040838503121561125c57600080fd5b600061126a8582860161116b565b925050602061127b85828601611180565b9150509250929050565b60006020828403121561129757600080fd5b60006112a584828501611180565b91505092915050565b6000806000606084860312156112c357600080fd5b60006112d186828701611180565b93505060206112e28682870161116b565b92505060406112f386828701611180565b9150509250925092565b6113068161176a565b82525050565b6113158161177c565b82525050565b60006113268261169e565b61133081856116a9565b93506113408185602086016117bf565b61134981611882565b840191505092915050565b60006113616023836116a9565b915061136c82611893565b604082019050919050565b60006113846026836116a9565b915061138f826118e2565b604082019050919050565b60006113a76022836116a9565b91506113b282611931565b604082019050919050565b60006113ca601d836116a9565b91506113d582611980565b602082019050919050565b60006113ed6026836116a9565b91506113f8826119a9565b604082019050919050565b60006114106020836116a9565b915061141b826119f8565b602082019050919050565b60006114336025836116a9565b915061143e82611a21565b604082019050919050565b60006114566024836116a9565b915061146182611a70565b604082019050919050565b60006114796025836116a9565b915061148482611abf565b604082019050919050565b600061149c601f836116a9565b91506114a782611b0e565b602082019050919050565b6114bb816117a8565b82525050565b6114ca816117b2565b82525050565b60006020820190506114e560008301846112fd565b92915050565b6000602082019050611500600083018461130c565b92915050565b60006020820190508181036000830152611520818461131b565b905092915050565b6000602082019050818103600083015261154181611354565b9050919050565b6000602082019050818103600083015261156181611377565b9050919050565b600060208201905081810360008301526115818161139a565b9050919050565b600060208201905081810360008301526115a1816113bd565b9050919050565b600060208201905081810360008301526115c1816113e0565b9050919050565b600060208201905081810360008301526115e181611403565b9050919050565b6000602082019050818103600083015261160181611426565b9050919050565b6000602082019050818103600083015261162181611449565b9050919050565b600060208201905081810360008301526116418161146c565b9050919050565b600060208201905081810360008301526116618161148f565b9050919050565b600060208201905061167d60008301846114b2565b92915050565b600060208201905061169860008301846114c1565b92915050565b600081519050919050565b600082825260208201905092915050565b60006116c5826117a8565b91506116d0836117a8565b9250827fffffffffffffffffffffffffffffffffffffffffffffffffffffffffffffffff0382111561170557611704611824565b5b828201905092915050565b600061171b826117a8565b9150611726836117a8565b9250817fffffffffffffffffffffffffffffffffffffffffffffffffffffffffffffffff048311821515161561175f5761175e611824565b5b828202905092915050565b600061177582611788565b9050919050565b60008115159050919050565b600073ffffffffffffffffffffffffffffffffffffffff82169050919050565b6000819050919050565b600060ff82169050919050565b60005b838110156117dd5780820151818401526020810190506117c2565b838111156117ec576000848401525b50505050565b6000600282049050600182168061180a57607f821691505b6020821081141561181e5761181d611853565b5b50919050565b7f4e487b7100000000000000000000000000000000000000000000000000000000600052601160045260246000fd5b7f4e487b7100000000000000000000000000000000000000000000000000000000600052602260045260246000fd5b6000601f19601f8301169050919050565b7f45524332303a207472616e7366657220746f20746865207a65726f206164647260008201527f6573730000000000000000000000000000000000000000000000000000000000602082015250565b7f4f776e61626c653a206e6577206f776e657220697320746865207a65726f206160008201527f6464726573730000000000000000000000000000000000000000000000000000602082015250565b7f45524332303a20617070726f766520746f20746865207a65726f20616464726560008201527f7373000000000000000000000000000000000000000000000000000000000000602082015250565b7f45524332303a20696e73756666696369656e7420616c6c6f77616e6365000000600082015250565b7f45524332303a207472616e7366657220616d6f756e742065786365656473206260008201527f616c616e63650000000000000000000000000000000000000000000000000000602082015250565b7f4f776e61626c653a2063616c6c6572206973206e6f7420746865206f776e6572600082015250565b7f45524332303a207472616e736665722066726f6d20746865207a65726f20616460008201527f6472657373000000000000000000000000000000000000000000000000000000602082015250565b7f45524332303a20617070726f76652066726f6d20746865207a65726f2061646460008201527f7265737300000000000000000000000000000000000000000000000000000000602082015250565b7f45524332303a2064656372656173656420616c6c6f77616e63652062656c6f7760008201527f207a65726f000000000000000000000000000000000000000000000000000000602082015250565b7f45524332303a206d696e7420746f20746865207a65726f206164647265737300600082015250565b611b408161176a565b8114611b4b57600080fd5b50565b611b57816117a8565b8114611b6257600080fd5b5056fea26469706673582212207b6e9879dde5b4a474e249bedc16738c132144dc11cc3752ea7b06ccac6f403864736f6c63430008040033",
  "linkReferences": {},
  "deployedLinkReferences": {}
}