{
  "_format": "hh-sol-artifact-1",
  "contractName": "Nestcoin",
  "sourceName": "contracts/Nestcoin.sol",
  "abi": [
    {
      "inputs": [],
      "stateMutability": "nonpayable",
      "type": "constructor"
    },
    {
      "anonymous": false,
      "inputs": [
        {
          "indexed": true,
          "internalType": "address",
          "name": "owner",
          "type": "address"
        },
        {
          "indexed": true,
          "internalType": "address",
          "name": "spender",
          "type": "address"
        },
        {
          "indexed": false,
          "internalType": "uint256",
          "name": "value",
          "type": "uint256"
        }
      ],
      "name": "Approval",
      "type": "event"
    },
    {
      "anonymous": false,
      "inputs": [
        {
          "indexed": true,
          "internalType": "address",
          "name": "previousOwner",
          "type": "address"
        },
        {
          "indexed": true,
          "internalType": "address",
          "name": "newOwner",
          "type": "address"
        }
      ],
      "name": "OwnershipTransferred",
      "type": "event"
    },
    {
      "anonymous": false,
      "inputs": [
        {
          "indexed": true,
          "internalType": "address",
          "name": "from",
          "type": "address"
        },
        {
          "indexed": true,
          "internalType": "address",
          "name": "to",
          "type": "address"
        },
        {
          "indexed": false,
          "internalType": "uint256",
          "name": "value",
          "type": "uint256"
        }
      ],
      "name": "Transfer",
      "type": "event"
    },
    {
      "inputs": [
        {
          "internalType": "address",
          "name": "owner",
          "type": "address"
        },
        {
          "internalType": "address",
          "name": "spender",
          "type": "address"
        }
      ],
      "name": "allowance",
      "outputs": [
        {
          "internalType": "uint256",
          "name": "",
          "type": "uint256"
        }
      ],
      "stateMutability": "view",
      "type": "function"
    },
    {
      "inputs": [
        {
          "internalType": "address",
          "name": "spender",
          "type": "address"
        },
        {
          "internalType": "uint256",
          "name": "amount",
          "type": "uint256"
        }
      ],
      "name": "approve",
      "outputs": [
        {
          "internalType": "bool",
          "name": "",
          "type": "bool"
        }
      ],
      "stateMutability": "nonpayable",
      "type": "function"
    },
    {
      "inputs": [
        {
          "internalType": "uint256",
          "name": "amount",
          "type": "uint256"
        },
        {
          "internalType": "address",
          "name": "account",
          "type": "address"
        },
        {
          "internalType": "uint256",
          "name": "list",
          "type": "uint256"
        }
      ],
      "name": "approveMulti",
      "outputs": [],
      "stateMutability": "nonpayable",
      "type": "function"
    },
    {
      "inputs": [
        {
          "internalType": "address",
          "name": "account",
          "type": "address"
        }
      ],
      "name": "balanceOf",
      "outputs": [
        {
          "internalType": "uint256",
          "name": "",
          "type": "uint256"
        }
      ],
      "stateMutability": "view",
      "type": "function"
    },
    {
      "inputs": [],
      "name": "decimals",
      "outputs": [
        {
          "internalType": "uint8",
          "name": "",
          "type": "uint8"
        }
      ],
      "stateMutability": "view",
      "type": "function"
    },
    {
      "inputs": [
        {
          "internalType": "address",
          "name": "spender",
          "type": "address"
        },
        {
          "internalType": "uint256",
          "name": "subtractedValue",
          "type": "uint256"
        }
      ],
      "name": "decreaseAllowance",
      "outputs": [
        {
          "internalType": "bool",
          "name": "",
          "type": "bool"
        }
      ],
      "stateMutability": "nonpayable",
      "type": "function"
    },
    {
      "inputs": [],
      "name": "destroy",
      "outputs": [],
      "stateMutability": "nonpayable",
      "type": "function"
    },
    {
      "inputs": [
        {
          "internalType": "address",
          "name": "spender",
          "type": "address"
        },
        {
          "internalType": "uint256",
          "name": "addedValue",
          "type": "uint256"
        }
      ],
      "name": "increaseAllowance",
      "outputs": [
        {
          "internalType": "bool",
          "name": "",
          "type": "bool"
        }
      ],
      "stateMutability": "nonpayable",
      "type": "function"
    },
    {
      "inputs": [
        {
          "internalType": "uint256",
          "name": "amount",
          "type": "uint256"
        }
      ],
      "name": "mint",
      "outputs": [],
      "stateMutability": "nonpayable",
      "type": "function"
    },
    {
      "inputs": [],
      "name": "name",
      "outputs": [
        {
          "internalType": "string",
          "name": "",
          "type": "string"
        }
      ],
      "stateMutability": "view",
      "type": "function"
    },
    {
      "inputs": [],
      "name": "owner",
      "outputs": [
        {
          "internalType": "address",
          "name": "",
          "type": "address"
        }
      ],
      "stateMutability": "view",
      "type": "function"
    },
    {
      "inputs": [],
      "name": "renounceOwnership",
      "outputs": [],
      "stateMutability": "nonpayable",
      "type": "function"
    },
    {
      "inputs": [],
      "name": "symbol",
      "outputs": [
        {
          "internalType": "string",
          "name": "",
          "type": "string"
        }
      ],
      "stateMutability": "view",
      "type": "function"
    },
    {
      "inputs": [],
      "name": "totalSupply",
      "outputs": [
        {
          "internalType": "uint256",
          "name": "",
          "type": "uint256"
        }
      ],
      "stateMutability": "view",
      "type": "function"
    },
    {
      "inputs": [
        {
          "internalType": "address",
          "name": "to",
          "type": "address"
        },
        {
          "internalType": "uint256",
          "name": "amount",
          "type": "uint256"
        }
      ],
      "name": "transfer",
      "outputs": [
        {
          "internalType": "bool",
          "name": "",
          "type": "bool"
        }
      ],
      "stateMutability": "nonpayable",
      "type": "function"
    },
    {
      "inputs": [
        {
          "internalType": "address",
          "name": "from",
          "type": "address"
        },
        {
          "internalType": "address",
          "name": "to",
          "type": "address"
        },
        {
          "internalType": "uint256",
          "name": "amount",
          "type": "uint256"
        }
      ],
      "name": "transferFrom",
      "outputs": [
        {
          "internalType": "bool",
          "name": "",
          "type": "bool"
        }
      ],
      "stateMutability": "nonpayable",
      "type": "function"
    },
    {
      "inputs": [
        {
          "internalType": "address",
          "name": "newOwner",
          "type": "address"
        }
      ],
      "name": "transferOwnership",
      "outputs": [],
      "stateMutability": "nonpayable",
      "type": "function"
    }
  ],
  "bytecode": "0x60806040523480156200001157600080fd5b506040518060400160405280600881526020017f4e657374636f696e0000000000000000000000000000000000000000000000008152506040518060400160405280600381526020017f4e54430000000000000000000000000000000000000000000000000000000000815250816003908051906020019062000096929190620001a6565b508060049080519060200190620000af929190620001a6565b505050620000d2620000c6620000d860201b60201c565b620000e060201b60201c565b620002bb565b600033905090565b6000600560009054906101000a900473ffffffffffffffffffffffffffffffffffffffff16905081600560006101000a81548173ffffffffffffffffffffffffffffffffffffffff021916908373ffffffffffffffffffffffffffffffffffffffff1602179055508173ffffffffffffffffffffffffffffffffffffffff168173ffffffffffffffffffffffffffffffffffffffff167f8be0079c531659141344cd1fd0a4f28419497f9722a3daafe3b4186f6b6457e060405160405180910390a35050565b828054620001b49062000256565b90600052602060002090601f016020900481019282620001d8576000855562000224565b82601f10620001f357805160ff191683800117855562000224565b8280016001018555821562000224579182015b828111156200022357825182559160200191906001019062000206565b5b50905062000233919062000237565b5090565b5b808211156200025257600081600090555060010162000238565b5090565b600060028204905060018216806200026f57607f821691505b602082108114156200028657620002856200028c565b5b50919050565b7f4e487b7100000000000000000000000000000000000000000000000000000000600052602260045260246000fd5b611c4c80620002cb6000396000f3fe608060405234801561001057600080fd5b506004361061010b5760003560e01c806383197ef0116100a2578063a0712d6811610071578063a0712d6814610296578063a457c2d7146102b2578063a9059cbb146102e2578063dd62ed3e14610312578063f2fde38b146103425761010b565b806383197ef0146102345780638328cd891461023e5780638da5cb5b1461025a57806395d89b41146102785761010b565b8063313ce567116100de578063313ce567146101ac57806339509351146101ca57806370a08231146101fa578063715018a61461022a5761010b565b806306fdde0314610110578063095ea7b31461012e57806318160ddd1461015e57806323b872dd1461017c575b600080fd5b61011861035e565b60405161012591906115b7565b60405180910390f35b610148600480360381019061014391906112fa565b6103f0565b604051610155919061159c565b60405180910390f35b610166610413565b6040516101739190611719565b60405180910390f35b610196600480360381019061019191906112ab565b61041d565b6040516101a3919061159c565b60405180910390f35b6101b461044c565b6040516101c19190611734565b60405180910390f35b6101e460048036038101906101df91906112fa565b610455565b6040516101f1919061159c565b60405180910390f35b610214600480360381019061020f9190611246565b6104ff565b6040516102219190611719565b60405180910390f35b610232610547565b005b61023c6105cf565b005b6102586004803603810190610253919061135f565b61066b565b005b610262610715565b60405161026f9190611581565b60405180910390f35b61028061073f565b60405161028d91906115b7565b60405180910390f35b6102b060048036038101906102ab9190611336565b6107d1565b005b6102cc60048036038101906102c791906112fa565b610880565b6040516102d9919061159c565b60405180910390f35b6102fc60048036038101906102f791906112fa565b61096a565b604051610309919061159c565b60405180910390f35b61032c6004803603810190610327919061126f565b61098d565b6040516103399190611719565b60405180910390f35b61035c60048036038101906103579190611246565b610a14565b005b60606003805461036d906118a3565b80601f0160208091040260200160405190810160405280929190818152602001828054610399906118a3565b80156103e65780601f106103bb576101008083540402835291602001916103e6565b820191906000526020600020905b8154815290600101906020018083116103c957829003601f168201915b5050505050905090565b6000806103fb610b0c565b9050610408818585610b14565b600191505092915050565b6000600254905090565b600080610428610b0c565b9050610435858285610cdf565b610440858585610d6b565b60019150509392505050565b60006012905090565b600080610460610b0c565b90506104f4818585600160008673ffffffffffffffffffffffffffffffffffffffff1673ffffffffffffffffffffffffffffffffffffffff16815260200190815260200160002060008973ffffffffffffffffffffffffffffffffffffffff1673ffffffffffffffffffffffffffffffffffffffff168152602001908152602001600020546104ef919061176b565b610b14565b600191505092915050565b60008060008373ffffffffffffffffffffffffffffffffffffffff1673ffffffffffffffffffffffffffffffffffffffff168152602001908152602001600020549050919050565b61054f610b0c565b73ffffffffffffffffffffffffffffffffffffffff1661056d610715565b73ffffffffffffffffffffffffffffffffffffffff16146105c3576040517f08c379a00000000000000000000000000000000000000000000000000000000081526004016105ba90611679565b60405180910390fd5b6105cd6000610fec565b565b6105d7610b0c565b73ffffffffffffffffffffffffffffffffffffffff166105f5610715565b73ffffffffffffffffffffffffffffffffffffffff161461064b576040517f08c379a000000000000000000000000000000000000000000000000000000000815260040161064290611679565b60405180910390fd5b610653610715565b73ffffffffffffffffffffffffffffffffffffffff16ff5b610673610b0c565b73ffffffffffffffffffffffffffffffffffffffff16610691610715565b73ffffffffffffffffffffffffffffffffffffffff16146106e7576040517f08c379a00000000000000000000000000000000000000000000000000000000081526004016106de90611679565b60405180910390fd5b61070f82670de0b6b3a7640000838661070091906117c1565b61070a91906117c1565b6103f0565b50505050565b6000600560009054906101000a900473ffffffffffffffffffffffffffffffffffffffff16905090565b60606004805461074e906118a3565b80601f016020809104026020016040519081016040528092919081815260200182805461077a906118a3565b80156107c75780601f1061079c576101008083540402835291602001916107c7565b820191906000526020600020905b8154815290600101906020018083116107aa57829003601f168201915b5050505050905090565b6107d9610b0c565b73ffffffffffffffffffffffffffffffffffffffff166107f7610715565b73ffffffffffffffffffffffffffffffffffffffff161461084d576040517f08c379a000000000000000000000000000000000000000000000000000000000815260040161084490611679565b60405180910390fd5b61086a33670de0b6b3a76400008361086591906117c1565b6110b2565b61087d3333610878336104ff565b610b14565b50565b60008061088b610b0c565b90506000600160008373ffffffffffffffffffffffffffffffffffffffff1673ffffffffffffffffffffffffffffffffffffffff16815260200190815260200160002060008673ffffffffffffffffffffffffffffffffffffffff1673ffffffffffffffffffffffffffffffffffffffff16815260200190815260200160002054905083811015610951576040517f08c379a0000000000000000000000000000000000000000000000000000000008152600401610948906116d9565b60405180910390fd5b61095e8286868403610b14565b60019250505092915050565b600080610975610b0c565b9050610982818585610d6b565b600191505092915050565b6000600160008473ffffffffffffffffffffffffffffffffffffffff1673ffffffffffffffffffffffffffffffffffffffff16815260200190815260200160002060008373ffffffffffffffffffffffffffffffffffffffff1673ffffffffffffffffffffffffffffffffffffffff16815260200190815260200160002054905092915050565b610a1c610b0c565b73ffffffffffffffffffffffffffffffffffffffff16610a3a610715565b73ffffffffffffffffffffffffffffffffffffffff1614610a90576040517f08c379a0000000000000000000000000000000000000000000000000000000008152600401610a8790611679565b60405180910390fd5b600073ffffffffffffffffffffffffffffffffffffffff168173ffffffffffffffffffffffffffffffffffffffff161415610b00576040517f08c379a0000000000000000000000000000000000000000000000000000000008152600401610af7906115f9565b60405180910390fd5b610b0981610fec565b50565b600033905090565b600073ffffffffffffffffffffffffffffffffffffffff168373ffffffffffffffffffffffffffffffffffffffff161415610b84576040517f08c379a0000000000000000000000000000000000000000000000000000000008152600401610b7b906116b9565b60405180910390fd5b600073ffffffffffffffffffffffffffffffffffffffff168273ffffffffffffffffffffffffffffffffffffffff161415610bf4576040517f08c379a0000000000000000000000000000000000000000000000000000000008152600401610beb90611619565b60405180910390fd5b80600160008573ffffffffffffffffffffffffffffffffffffffff1673ffffffffffffffffffffffffffffffffffffffff16815260200190815260200160002060008473ffffffffffffffffffffffffffffffffffffffff1673ffffffffffffffffffffffffffffffffffffffff168152602001908152602001600020819055508173ffffffffffffffffffffffffffffffffffffffff168373ffffffffffffffffffffffffffffffffffffffff167f8c5be1e5ebec7d5bd14f71427d1e84f3dd0314c0f7b2291e5b200ac8c7c3b92583604051610cd29190611719565b60405180910390a3505050565b6000610ceb848461098d565b90507fffffffffffffffffffffffffffffffffffffffffffffffffffffffffffffffff8114610d655781811015610d57576040517f08c379a0000000000000000000000000000000000000000000000000000000008152600401610d4e90611639565b60405180910390fd5b610d648484848403610b14565b5b50505050565b600073ffffffffffffffffffffffffffffffffffffffff168373ffffffffffffffffffffffffffffffffffffffff161415610ddb576040517f08c379a0000000000000000000000000000000000000000000000000000000008152600401610dd290611699565b60405180910390fd5b600073ffffffffffffffffffffffffffffffffffffffff168273ffffffffffffffffffffffffffffffffffffffff161415610e4b576040517f08c379a0000000000000000000000000000000000000000000000000000000008152600401610e42906115d9565b60405180910390fd5b610e56838383611212565b60008060008573ffffffffffffffffffffffffffffffffffffffff1673ffffffffffffffffffffffffffffffffffffffff16815260200190815260200160002054905081811015610edc576040517f08c379a0000000000000000000000000000000000000000000000000000000008152600401610ed390611659565b60405180910390fd5b8181036000808673ffffffffffffffffffffffffffffffffffffffff1673ffffffffffffffffffffffffffffffffffffffff16815260200190815260200160002081905550816000808573ffffffffffffffffffffffffffffffffffffffff1673ffffffffffffffffffffffffffffffffffffffff1681526020019081526020016000206000828254610f6f919061176b565b925050819055508273ffffffffffffffffffffffffffffffffffffffff168473ffffffffffffffffffffffffffffffffffffffff167fddf252ad1be2c89b69c2b068fc378daa952ba7f163c4a11628f55a4df523b3ef84604051610fd39190611719565b60405180910390a3610fe6848484611217565b50505050565b6000600560009054906101000a900473ffffffffffffffffffffffffffffffffffffffff16905081600560006101000a81548173ffffffffffffffffffffffffffffffffffffffff021916908373ffffffffffffffffffffffffffffffffffffffff1602179055508173ffffffffffffffffffffffffffffffffffffffff168173ffffffffffffffffffffffffffffffffffffffff167f8be0079c531659141344cd1fd0a4f28419497f9722a3daafe3b4186f6b6457e060405160405180910390a35050565b600073ffffffffffffffffffffffffffffffffffffffff168273ffffffffffffffffffffffffffffffffffffffff161415611122576040517f08c379a0000000000000000000000000000000000000000000000000000000008152600401611119906116f9565b60405180910390fd5b61112e60008383611212565b8060026000828254611140919061176b565b92505081905550806000808473ffffffffffffffffffffffffffffffffffffffff1673ffffffffffffffffffffffffffffffffffffffff1681526020019081526020016000206000828254611195919061176b565b925050819055508173ffffffffffffffffffffffffffffffffffffffff16600073ffffffffffffffffffffffffffffffffffffffff167fddf252ad1be2c89b69c2b068fc378daa952ba7f163c4a11628f55a4df523b3ef836040516111fa9190611719565b60405180910390a361120e60008383611217565b5050565b505050565b505050565b60008135905061122b81611be8565b92915050565b60008135905061124081611bff565b92915050565b60006020828403121561125857600080fd5b60006112668482850161121c565b91505092915050565b6000806040838503121561128257600080fd5b60006112908582860161121c565b92505060206112a18582860161121c565b9150509250929050565b6000806000606084860312156112c057600080fd5b60006112ce8682870161121c565b93505060206112df8682870161121c565b92505060406112f086828701611231565b9150509250925092565b6000806040838503121561130d57600080fd5b600061131b8582860161121c565b925050602061132c85828601611231565b9150509250929050565b60006020828403121561134857600080fd5b600061135684828501611231565b91505092915050565b60008060006060848603121561137457600080fd5b600061138286828701611231565b93505060206113938682870161121c565b92505060406113a486828701611231565b9150509250925092565b6113b78161181b565b82525050565b6113c68161182d565b82525050565b60006113d78261174f565b6113e1818561175a565b93506113f1818560208601611870565b6113fa81611933565b840191505092915050565b600061141260238361175a565b915061141d82611944565b604082019050919050565b600061143560268361175a565b915061144082611993565b604082019050919050565b600061145860228361175a565b9150611463826119e2565b604082019050919050565b600061147b601d8361175a565b915061148682611a31565b602082019050919050565b600061149e60268361175a565b91506114a982611a5a565b604082019050919050565b60006114c160208361175a565b91506114cc82611aa9565b602082019050919050565b60006114e460258361175a565b91506114ef82611ad2565b604082019050919050565b600061150760248361175a565b915061151282611b21565b604082019050919050565b600061152a60258361175a565b915061153582611b70565b604082019050919050565b600061154d601f8361175a565b915061155882611bbf565b602082019050919050565b61156c81611859565b82525050565b61157b81611863565b82525050565b600060208201905061159660008301846113ae565b92915050565b60006020820190506115b160008301846113bd565b92915050565b600060208201905081810360008301526115d181846113cc565b905092915050565b600060208201905081810360008301526115f281611405565b9050919050565b6000602082019050818103600083015261161281611428565b9050919050565b600060208201905081810360008301526116328161144b565b9050919050565b600060208201905081810360008301526116528161146e565b9050919050565b6000602082019050818103600083015261167281611491565b9050919050565b60006020820190508181036000830152611692816114b4565b9050919050565b600060208201905081810360008301526116b2816114d7565b9050919050565b600060208201905081810360008301526116d2816114fa565b9050919050565b600060208201905081810360008301526116f28161151d565b9050919050565b6000602082019050818103600083015261171281611540565b9050919050565b600060208201905061172e6000830184611563565b92915050565b60006020820190506117496000830184611572565b92915050565b600081519050919050565b600082825260208201905092915050565b600061177682611859565b915061178183611859565b9250827fffffffffffffffffffffffffffffffffffffffffffffffffffffffffffffffff038211156117b6576117b56118d5565b5b828201905092915050565b60006117cc82611859565b91506117d783611859565b9250817fffffffffffffffffffffffffffffffffffffffffffffffffffffffffffffffff04831182151516156118105761180f6118d5565b5b828202905092915050565b600061182682611839565b9050919050565b60008115159050919050565b600073ffffffffffffffffffffffffffffffffffffffff82169050919050565b6000819050919050565b600060ff82169050919050565b60005b8381101561188e578082015181840152602081019050611873565b8381111561189d576000848401525b50505050565b600060028204905060018216806118bb57607f821691505b602082108114156118cf576118ce611904565b5b50919050565b7f4e487b7100000000000000000000000000000000000000000000000000000000600052601160045260246000fd5b7f4e487b7100000000000000000000000000000000000000000000000000000000600052602260045260246000fd5b6000601f19601f8301169050919050565b7f45524332303a207472616e7366657220746f20746865207a65726f206164647260008201527f6573730000000000000000000000000000000000000000000000000000000000602082015250565b7f4f776e61626c653a206e6577206f776e657220697320746865207a65726f206160008201527f6464726573730000000000000000000000000000000000000000000000000000602082015250565b7f45524332303a20617070726f766520746f20746865207a65726f20616464726560008201527f7373000000000000000000000000000000000000000000000000000000000000602082015250565b7f45524332303a20696e73756666696369656e7420616c6c6f77616e6365000000600082015250565b7f45524332303a207472616e7366657220616d6f756e742065786365656473206260008201527f616c616e63650000000000000000000000000000000000000000000000000000602082015250565b7f4f776e61626c653a2063616c6c6572206973206e6f7420746865206f776e6572600082015250565b7f45524332303a207472616e736665722066726f6d20746865207a65726f20616460008201527f6472657373000000000000000000000000000000000000000000000000000000602082015250565b7f45524332303a20617070726f76652066726f6d20746865207a65726f2061646460008201527f7265737300000000000000000000000000000000000000000000000000000000602082015250565b7f45524332303a2064656372656173656420616c6c6f77616e63652062656c6f7760008201527f207a65726f000000000000000000000000000000000000000000000000000000602082015250565b7f45524332303a206d696e7420746f20746865207a65726f206164647265737300600082015250565b611bf18161181b565b8114611bfc57600080fd5b50565b611c0881611859565b8114611c1357600080fd5b5056fea264697066735822122027ca72bfe7c35c49edc7b4d346014b8634e47ab0b3e1822bf9f02133441cb88d64736f6c63430008040033",
  "linkReferences": {},
  "deployedLinkReferences": {}
}