{
  "_format": "hh-sol-artifact-1",
  "contractName": "Nestcoin",
  "sourceName": "contracts/Nestcoin.sol",
  "abi": [
    {
      "inputs": [],
      "stateMutability": "nonpayable",
      "type": "constructor"
    },
    {
      "anonymous": false,
      "inputs": [
        {
          "indexed": true,
          "internalType": "address",
          "name": "owner",
          "type": "address"
        },
        {
          "indexed": true,
          "internalType": "address",
          "name": "spender",
          "type": "address"
        },
        {
          "indexed": false,
          "internalType": "uint256",
          "name": "value",
          "type": "uint256"
        }
      ],
      "name": "Approval",
      "type": "event"
    },
    {
      "anonymous": false,
      "inputs": [
        {
          "indexed": true,
          "internalType": "bytes32",
          "name": "role",
          "type": "bytes32"
        },
        {
          "indexed": true,
          "internalType": "address",
          "name": "account",
          "type": "address"
        }
      ],
      "name": "GrantRoles",
      "type": "event"
    },
    {
      "anonymous": false,
      "inputs": [
        {
          "indexed": true,
          "internalType": "address",
          "name": "previousOwner",
          "type": "address"
        },
        {
          "indexed": true,
          "internalType": "address",
          "name": "newOwner",
          "type": "address"
        }
      ],
      "name": "OwnershipTransferred",
      "type": "event"
    },
    {
      "anonymous": false,
      "inputs": [
        {
          "indexed": true,
          "internalType": "bytes32",
          "name": "role",
          "type": "bytes32"
        },
        {
          "indexed": true,
          "internalType": "address",
          "name": "account",
          "type": "address"
        }
      ],
      "name": "RemoveRoles",
      "type": "event"
    },
    {
      "anonymous": false,
      "inputs": [
        {
          "indexed": true,
          "internalType": "address",
          "name": "from",
          "type": "address"
        },
        {
          "indexed": true,
          "internalType": "address",
          "name": "to",
          "type": "address"
        },
        {
          "indexed": false,
          "internalType": "uint256",
          "name": "value",
          "type": "uint256"
        }
      ],
      "name": "Transfer",
      "type": "event"
    },
    {
      "inputs": [],
      "name": "ADMIN",
      "outputs": [
        {
          "internalType": "bytes32",
          "name": "",
          "type": "bytes32"
        }
      ],
      "stateMutability": "view",
      "type": "function"
    },
    {
      "inputs": [],
      "name": "USER",
      "outputs": [
        {
          "internalType": "bytes32",
          "name": "",
          "type": "bytes32"
        }
      ],
      "stateMutability": "view",
      "type": "function"
    },
    {
      "inputs": [
        {
          "internalType": "address",
          "name": "owner",
          "type": "address"
        },
        {
          "internalType": "address",
          "name": "spender",
          "type": "address"
        }
      ],
      "name": "allowance",
      "outputs": [
        {
          "internalType": "uint256",
          "name": "",
          "type": "uint256"
        }
      ],
      "stateMutability": "view",
      "type": "function"
    },
    {
      "inputs": [
        {
          "internalType": "address",
          "name": "spender",
          "type": "address"
        },
        {
          "internalType": "uint256",
          "name": "amount",
          "type": "uint256"
        }
      ],
      "name": "approve",
      "outputs": [
        {
          "internalType": "bool",
          "name": "",
          "type": "bool"
        }
      ],
      "stateMutability": "nonpayable",
      "type": "function"
    },
    {
      "inputs": [
        {
          "internalType": "address",
          "name": "account",
          "type": "address"
        }
      ],
      "name": "balanceOf",
      "outputs": [
        {
          "internalType": "uint256",
          "name": "",
          "type": "uint256"
        }
      ],
      "stateMutability": "view",
      "type": "function"
    },
    {
      "inputs": [],
      "name": "decimals",
      "outputs": [
        {
          "internalType": "uint8",
          "name": "",
          "type": "uint8"
        }
      ],
      "stateMutability": "view",
      "type": "function"
    },
    {
      "inputs": [
        {
          "internalType": "address",
          "name": "spender",
          "type": "address"
        },
        {
          "internalType": "uint256",
          "name": "subtractedValue",
          "type": "uint256"
        }
      ],
      "name": "decreaseAllowance",
      "outputs": [
        {
          "internalType": "bool",
          "name": "",
          "type": "bool"
        }
      ],
      "stateMutability": "nonpayable",
      "type": "function"
    },
    {
      "inputs": [
        {
          "internalType": "bytes32",
          "name": "_role",
          "type": "bytes32"
        },
        {
          "internalType": "address",
          "name": "_account",
          "type": "address"
        }
      ],
      "name": "grantRole",
      "outputs": [],
      "stateMutability": "nonpayable",
      "type": "function"
    },
    {
      "inputs": [
        {
          "internalType": "address",
          "name": "spender",
          "type": "address"
        },
        {
          "internalType": "uint256",
          "name": "addedValue",
          "type": "uint256"
        }
      ],
      "name": "increaseAllowance",
      "outputs": [
        {
          "internalType": "bool",
          "name": "",
          "type": "bool"
        }
      ],
      "stateMutability": "nonpayable",
      "type": "function"
    },
    {
      "inputs": [
        {
          "internalType": "uint256",
          "name": "amount",
          "type": "uint256"
        }
      ],
      "name": "mint",
      "outputs": [],
      "stateMutability": "nonpayable",
      "type": "function"
    },
    {
      "inputs": [],
      "name": "name",
      "outputs": [
        {
          "internalType": "string",
          "name": "",
          "type": "string"
        }
      ],
      "stateMutability": "view",
      "type": "function"
    },
    {
      "inputs": [],
      "name": "owner",
      "outputs": [
        {
          "internalType": "address",
          "name": "",
          "type": "address"
        }
      ],
      "stateMutability": "view",
      "type": "function"
    },
    {
      "inputs": [
        {
          "internalType": "bytes32",
          "name": "_role",
          "type": "bytes32"
        },
        {
          "internalType": "address",
          "name": "_account",
          "type": "address"
        }
      ],
      "name": "removeRole",
      "outputs": [],
      "stateMutability": "nonpayable",
      "type": "function"
    },
    {
      "inputs": [],
      "name": "renounceOwnership",
      "outputs": [],
      "stateMutability": "nonpayable",
      "type": "function"
    },
    {
      "inputs": [
        {
          "internalType": "bytes32",
          "name": "",
          "type": "bytes32"
        },
        {
          "internalType": "address",
          "name": "",
          "type": "address"
        }
      ],
      "name": "roles",
      "outputs": [
        {
          "internalType": "bool",
          "name": "",
          "type": "bool"
        }
      ],
      "stateMutability": "view",
      "type": "function"
    },
    {
      "inputs": [],
      "name": "symbol",
      "outputs": [
        {
          "internalType": "string",
          "name": "",
          "type": "string"
        }
      ],
      "stateMutability": "view",
      "type": "function"
    },
    {
      "inputs": [],
      "name": "totalSupply",
      "outputs": [
        {
          "internalType": "uint256",
          "name": "",
          "type": "uint256"
        }
      ],
      "stateMutability": "view",
      "type": "function"
    },
    {
      "inputs": [
        {
          "internalType": "address",
          "name": "to",
          "type": "address"
        },
        {
          "internalType": "uint256",
          "name": "amount",
          "type": "uint256"
        }
      ],
      "name": "transfer",
      "outputs": [
        {
          "internalType": "bool",
          "name": "",
          "type": "bool"
        }
      ],
      "stateMutability": "nonpayable",
      "type": "function"
    },
    {
      "inputs": [
        {
          "internalType": "address",
          "name": "from",
          "type": "address"
        },
        {
          "internalType": "address",
          "name": "to",
          "type": "address"
        },
        {
          "internalType": "uint256",
          "name": "amount",
          "type": "uint256"
        }
      ],
      "name": "transferFrom",
      "outputs": [
        {
          "internalType": "bool",
          "name": "",
          "type": "bool"
        }
      ],
      "stateMutability": "nonpayable",
      "type": "function"
    },
    {
      "inputs": [
        {
          "internalType": "address",
          "name": "newOwner",
          "type": "address"
        }
      ],
      "name": "transferOwnership",
      "outputs": [],
      "stateMutability": "nonpayable",
      "type": "function"
    }
  ],
  "bytecode": "0x60806040523480156200001157600080fd5b506040518060400160405280600881526020017f4e657374636f696e0000000000000000000000000000000000000000000000008152506040518060400160405280600381526020017f4e5443000000000000000000000000000000000000000000000000000000000081525081600390805190602001906200009692919062000289565b508060049080519060200190620000af92919062000289565b505050620000d2620000c66200010a60201b60201c565b6200011260201b60201c565b620001047fdf8b4c520ffe197c5343c6f5aec59570151ef9a492f2c624fd45ddde6135ec4233620001d860201b60201c565b6200039e565b600033905090565b6000600560009054906101000a900473ffffffffffffffffffffffffffffffffffffffff16905081600560006101000a81548173ffffffffffffffffffffffffffffffffffffffff021916908373ffffffffffffffffffffffffffffffffffffffff1602179055508173ffffffffffffffffffffffffffffffffffffffff168173ffffffffffffffffffffffffffffffffffffffff167f8be0079c531659141344cd1fd0a4f28419497f9722a3daafe3b4186f6b6457e060405160405180910390a35050565b60016006600084815260200190815260200160002060008373ffffffffffffffffffffffffffffffffffffffff1673ffffffffffffffffffffffffffffffffffffffff16815260200190815260200160002060006101000a81548160ff0219169083151502179055508073ffffffffffffffffffffffffffffffffffffffff16827f28be2ad647d19c04889746a89a2c95468f8dcd453018d6d0f2411904e90dff1360405160405180910390a35050565b828054620002979062000339565b90600052602060002090601f016020900481019282620002bb576000855562000307565b82601f10620002d657805160ff191683800117855562000307565b8280016001018555821562000307579182015b8281111562000306578251825591602001919060010190620002e9565b5b5090506200031691906200031a565b5090565b5b80821115620003355760008160009055506001016200031b565b5090565b600060028204905060018216806200035257607f821691505b602082108114156200036957620003686200036f565b5b50919050565b7f4e487b7100000000000000000000000000000000000000000000000000000000600052602260045260246000fd5b611ff380620003ae6000396000f3fe608060405234801561001057600080fd5b506004361061012c5760003560e01c806381e167cf116100ad578063a9059cbb11610071578063a9059cbb14610335578063dd62ed3e14610365578063f2fde38b14610395578063f6ba0007146103b1578063f8fc08b9146103cd5761012c565b806381e167cf1461028f5780638da5cb5b146102ad57806395d89b41146102cb578063a0712d68146102e9578063a457c2d7146103055761012c565b80632f2ff15d116100f45780632f2ff15d146101eb578063313ce56714610207578063395093511461022557806370a0823114610255578063715018a6146102855761012c565b806306fdde0314610131578063095ea7b31461014f57806318160ddd1461017f57806323b872dd1461019d5780632a0acc6a146101cd575b600080fd5b6101396103fd565b60405161014691906118f4565b60405180910390f35b610169600480360381019061016491906115fd565b61048f565b60405161017691906118be565b60405180910390f35b6101876104b2565b6040516101949190611a76565b60405180910390f35b6101b760048036038101906101b291906115ae565b6104bc565b6040516101c491906118be565b60405180910390f35b6101d56104eb565b6040516101e291906118d9565b60405180910390f35b61020560048036038101906102009190611639565b61050f565b005b61020f6105dc565b60405161021c9190611a91565b60405180910390f35b61023f600480360381019061023a91906115fd565b6105e5565b60405161024c91906118be565b60405180910390f35b61026f600480360381019061026a9190611549565b61068f565b60405161027c9190611a76565b60405180910390f35b61028d6106d7565b005b61029761075f565b6040516102a491906118d9565b60405180910390f35b6102b5610783565b6040516102c291906118a3565b60405180910390f35b6102d36107ad565b6040516102e091906118f4565b60405180910390f35b61030360048036038101906102fe9190611675565b61083f565b005b61031f600480360381019061031a91906115fd565b61091e565b60405161032c91906118be565b60405180910390f35b61034f600480360381019061034a91906115fd565b610a08565b60405161035c91906118be565b60405180910390f35b61037f600480360381019061037a9190611572565b610a2b565b60405161038c9190611a76565b60405180910390f35b6103af60048036038101906103aa9190611549565b610ab2565b005b6103cb60048036038101906103c69190611639565b610baa565b005b6103e760048036038101906103e29190611639565b610d1a565b6040516103f491906118be565b60405180910390f35b60606003805461040c90611c0a565b80601f016020809104026020016040519081016040528092919081815260200182805461043890611c0a565b80156104855780601f1061045a57610100808354040283529160200191610485565b820191906000526020600020905b81548152906001019060200180831161046857829003601f168201915b5050505050905090565b60008061049a610d49565b90506104a7818585610d51565b600191505092915050565b6000600254905090565b6000806104c7610d49565b90506104d4858285610f1c565b6104df858585610fa8565b60019150509392505050565b7fdf8b4c520ffe197c5343c6f5aec59570151ef9a492f2c624fd45ddde6135ec4281565b7fdf8b4c520ffe197c5343c6f5aec59570151ef9a492f2c624fd45ddde6135ec426006600082815260200190815260200160002060003373ffffffffffffffffffffffffffffffffffffffff1673ffffffffffffffffffffffffffffffffffffffff16815260200190815260200160002060009054906101000a900460ff166105cd576040517f08c379a00000000000000000000000000000000000000000000000000000000081526004016105c4906119b6565b60405180910390fd5b6105d78383611229565b505050565b60006012905090565b6000806105f0610d49565b9050610684818585600160008673ffffffffffffffffffffffffffffffffffffffff1673ffffffffffffffffffffffffffffffffffffffff16815260200190815260200160002060008973ffffffffffffffffffffffffffffffffffffffff1673ffffffffffffffffffffffffffffffffffffffff1681526020019081526020016000205461067f9190611ac8565b610d51565b600191505092915050565b60008060008373ffffffffffffffffffffffffffffffffffffffff1673ffffffffffffffffffffffffffffffffffffffff168152602001908152602001600020549050919050565b6106df610d49565b73ffffffffffffffffffffffffffffffffffffffff166106fd610783565b73ffffffffffffffffffffffffffffffffffffffff1614610753576040517f08c379a000000000000000000000000000000000000000000000000000000000815260040161074a906119d6565b60405180910390fd5b61075d60006112da565b565b7f2db9fd3d099848027c2383d0a083396f6c41510d7acfd92adc99b6cffcf31e9681565b6000600560009054906101000a900473ffffffffffffffffffffffffffffffffffffffff16905090565b6060600480546107bc90611c0a565b80601f01602080910402602001604051908101604052809291908181526020018280546107e890611c0a565b80156108355780601f1061080a57610100808354040283529160200191610835565b820191906000526020600020905b81548152906001019060200180831161081857829003601f168201915b5050505050905090565b7fdf8b4c520ffe197c5343c6f5aec59570151ef9a492f2c624fd45ddde6135ec426006600082815260200190815260200160002060003373ffffffffffffffffffffffffffffffffffffffff1673ffffffffffffffffffffffffffffffffffffffff16815260200190815260200160002060009054906101000a900460ff166108fd576040517f08c379a00000000000000000000000000000000000000000000000000000000081526004016108f4906119b6565b60405180910390fd5b61091a33670de0b6b3a7640000846109159190611b1e565b6113a0565b5050565b600080610929610d49565b90506000600160008373ffffffffffffffffffffffffffffffffffffffff1673ffffffffffffffffffffffffffffffffffffffff16815260200190815260200160002060008673ffffffffffffffffffffffffffffffffffffffff1673ffffffffffffffffffffffffffffffffffffffff168152602001908152602001600020549050838110156109ef576040517f08c379a00000000000000000000000000000000000000000000000000000000081526004016109e690611a36565b60405180910390fd5b6109fc8286868403610d51565b60019250505092915050565b600080610a13610d49565b9050610a20818585610fa8565b600191505092915050565b6000600160008473ffffffffffffffffffffffffffffffffffffffff1673ffffffffffffffffffffffffffffffffffffffff16815260200190815260200160002060008373ffffffffffffffffffffffffffffffffffffffff1673ffffffffffffffffffffffffffffffffffffffff16815260200190815260200160002054905092915050565b610aba610d49565b73ffffffffffffffffffffffffffffffffffffffff16610ad8610783565b73ffffffffffffffffffffffffffffffffffffffff1614610b2e576040517f08c379a0000000000000000000000000000000000000000000000000000000008152600401610b25906119d6565b60405180910390fd5b600073ffffffffffffffffffffffffffffffffffffffff168173ffffffffffffffffffffffffffffffffffffffff161415610b9e576040517f08c379a0000000000000000000000000000000000000000000000000000000008152600401610b9590611936565b60405180910390fd5b610ba7816112da565b50565b7fdf8b4c520ffe197c5343c6f5aec59570151ef9a492f2c624fd45ddde6135ec426006600082815260200190815260200160002060003373ffffffffffffffffffffffffffffffffffffffff1673ffffffffffffffffffffffffffffffffffffffff16815260200190815260200160002060009054906101000a900460ff16610c68576040517f08c379a0000000000000000000000000000000000000000000000000000000008152600401610c5f906119b6565b60405180910390fd5b60006006600085815260200190815260200160002060008473ffffffffffffffffffffffffffffffffffffffff1673ffffffffffffffffffffffffffffffffffffffff16815260200190815260200160002060006101000a81548160ff0219169083151502179055508173ffffffffffffffffffffffffffffffffffffffff16837f69331970bf0fcdf0e1bcab5a5b121dddcd366a05701b071791a387a80fc918f460405160405180910390a3505050565b60066020528160005260406000206020528060005260406000206000915091509054906101000a900460ff1681565b600033905090565b600073ffffffffffffffffffffffffffffffffffffffff168373ffffffffffffffffffffffffffffffffffffffff161415610dc1576040517f08c379a0000000000000000000000000000000000000000000000000000000008152600401610db890611a16565b60405180910390fd5b600073ffffffffffffffffffffffffffffffffffffffff168273ffffffffffffffffffffffffffffffffffffffff161415610e31576040517f08c379a0000000000000000000000000000000000000000000000000000000008152600401610e2890611956565b60405180910390fd5b80600160008573ffffffffffffffffffffffffffffffffffffffff1673ffffffffffffffffffffffffffffffffffffffff16815260200190815260200160002060008473ffffffffffffffffffffffffffffffffffffffff1673ffffffffffffffffffffffffffffffffffffffff168152602001908152602001600020819055508173ffffffffffffffffffffffffffffffffffffffff168373ffffffffffffffffffffffffffffffffffffffff167f8c5be1e5ebec7d5bd14f71427d1e84f3dd0314c0f7b2291e5b200ac8c7c3b92583604051610f0f9190611a76565b60405180910390a3505050565b6000610f288484610a2b565b90507fffffffffffffffffffffffffffffffffffffffffffffffffffffffffffffffff8114610fa25781811015610f94576040517f08c379a0000000000000000000000000000000000000000000000000000000008152600401610f8b90611976565b60405180910390fd5b610fa18484848403610d51565b5b50505050565b600073ffffffffffffffffffffffffffffffffffffffff168373ffffffffffffffffffffffffffffffffffffffff161415611018576040517f08c379a000000000000000000000000000000000000000000000000000000000815260040161100f906119f6565b60405180910390fd5b600073ffffffffffffffffffffffffffffffffffffffff168273ffffffffffffffffffffffffffffffffffffffff161415611088576040517f08c379a000000000000000000000000000000000000000000000000000000000815260040161107f90611916565b60405180910390fd5b611093838383611500565b60008060008573ffffffffffffffffffffffffffffffffffffffff1673ffffffffffffffffffffffffffffffffffffffff16815260200190815260200160002054905081811015611119576040517f08c379a000000000000000000000000000000000000000000000000000000000815260040161111090611996565b60405180910390fd5b8181036000808673ffffffffffffffffffffffffffffffffffffffff1673ffffffffffffffffffffffffffffffffffffffff16815260200190815260200160002081905550816000808573ffffffffffffffffffffffffffffffffffffffff1673ffffffffffffffffffffffffffffffffffffffff16815260200190815260200160002060008282546111ac9190611ac8565b925050819055508273ffffffffffffffffffffffffffffffffffffffff168473ffffffffffffffffffffffffffffffffffffffff167fddf252ad1be2c89b69c2b068fc378daa952ba7f163c4a11628f55a4df523b3ef846040516112109190611a76565b60405180910390a3611223848484611505565b50505050565b60016006600084815260200190815260200160002060008373ffffffffffffffffffffffffffffffffffffffff1673ffffffffffffffffffffffffffffffffffffffff16815260200190815260200160002060006101000a81548160ff0219169083151502179055508073ffffffffffffffffffffffffffffffffffffffff16827f28be2ad647d19c04889746a89a2c95468f8dcd453018d6d0f2411904e90dff1360405160405180910390a35050565b6000600560009054906101000a900473ffffffffffffffffffffffffffffffffffffffff16905081600560006101000a81548173ffffffffffffffffffffffffffffffffffffffff021916908373ffffffffffffffffffffffffffffffffffffffff1602179055508173ffffffffffffffffffffffffffffffffffffffff168173ffffffffffffffffffffffffffffffffffffffff167f8be0079c531659141344cd1fd0a4f28419497f9722a3daafe3b4186f6b6457e060405160405180910390a35050565b600073ffffffffffffffffffffffffffffffffffffffff168273ffffffffffffffffffffffffffffffffffffffff161415611410576040517f08c379a000000000000000000000000000000000000000000000000000000000815260040161140790611a56565b60405180910390fd5b61141c60008383611500565b806002600082825461142e9190611ac8565b92505081905550806000808473ffffffffffffffffffffffffffffffffffffffff1673ffffffffffffffffffffffffffffffffffffffff16815260200190815260200160002060008282546114839190611ac8565b925050819055508173ffffffffffffffffffffffffffffffffffffffff16600073ffffffffffffffffffffffffffffffffffffffff167fddf252ad1be2c89b69c2b068fc378daa952ba7f163c4a11628f55a4df523b3ef836040516114e89190611a76565b60405180910390a36114fc60008383611505565b5050565b505050565b505050565b60008135905061151981611f78565b92915050565b60008135905061152e81611f8f565b92915050565b60008135905061154381611fa6565b92915050565b60006020828403121561155b57600080fd5b60006115698482850161150a565b91505092915050565b6000806040838503121561158557600080fd5b60006115938582860161150a565b92505060206115a48582860161150a565b9150509250929050565b6000806000606084860312156115c357600080fd5b60006115d18682870161150a565b93505060206115e28682870161150a565b92505060406115f386828701611534565b9150509250925092565b6000806040838503121561161057600080fd5b600061161e8582860161150a565b925050602061162f85828601611534565b9150509250929050565b6000806040838503121561164c57600080fd5b600061165a8582860161151f565b925050602061166b8582860161150a565b9150509250929050565b60006020828403121561168757600080fd5b600061169584828501611534565b91505092915050565b6116a781611b78565b82525050565b6116b681611b8a565b82525050565b6116c581611b96565b82525050565b60006116d682611aac565b6116e08185611ab7565b93506116f0818560208601611bd7565b6116f981611c9a565b840191505092915050565b6000611711602383611ab7565b915061171c82611cab565b604082019050919050565b6000611734602683611ab7565b915061173f82611cfa565b604082019050919050565b6000611757602283611ab7565b915061176282611d49565b604082019050919050565b600061177a601d83611ab7565b915061178582611d98565b602082019050919050565b600061179d602683611ab7565b91506117a882611dc1565b604082019050919050565b60006117c0600e83611ab7565b91506117cb82611e10565b602082019050919050565b60006117e3602083611ab7565b91506117ee82611e39565b602082019050919050565b6000611806602583611ab7565b915061181182611e62565b604082019050919050565b6000611829602483611ab7565b915061183482611eb1565b604082019050919050565b600061184c602583611ab7565b915061185782611f00565b604082019050919050565b600061186f601f83611ab7565b915061187a82611f4f565b602082019050919050565b61188e81611bc0565b82525050565b61189d81611bca565b82525050565b60006020820190506118b8600083018461169e565b92915050565b60006020820190506118d360008301846116ad565b92915050565b60006020820190506118ee60008301846116bc565b92915050565b6000602082019050818103600083015261190e81846116cb565b905092915050565b6000602082019050818103600083015261192f81611704565b9050919050565b6000602082019050818103600083015261194f81611727565b9050919050565b6000602082019050818103600083015261196f8161174a565b9050919050565b6000602082019050818103600083015261198f8161176d565b9050919050565b600060208201905081810360008301526119af81611790565b9050919050565b600060208201905081810360008301526119cf816117b3565b9050919050565b600060208201905081810360008301526119ef816117d6565b9050919050565b60006020820190508181036000830152611a0f816117f9565b9050919050565b60006020820190508181036000830152611a2f8161181c565b9050919050565b60006020820190508181036000830152611a4f8161183f565b9050919050565b60006020820190508181036000830152611a6f81611862565b9050919050565b6000602082019050611a8b6000830184611885565b92915050565b6000602082019050611aa66000830184611894565b92915050565b600081519050919050565b600082825260208201905092915050565b6000611ad382611bc0565b9150611ade83611bc0565b9250827fffffffffffffffffffffffffffffffffffffffffffffffffffffffffffffffff03821115611b1357611b12611c3c565b5b828201905092915050565b6000611b2982611bc0565b9150611b3483611bc0565b9250817fffffffffffffffffffffffffffffffffffffffffffffffffffffffffffffffff0483118215151615611b6d57611b6c611c3c565b5b828202905092915050565b6000611b8382611ba0565b9050919050565b60008115159050919050565b6000819050919050565b600073ffffffffffffffffffffffffffffffffffffffff82169050919050565b6000819050919050565b600060ff82169050919050565b60005b83811015611bf5578082015181840152602081019050611bda565b83811115611c04576000848401525b50505050565b60006002820490506001821680611c2257607f821691505b60208210811415611c3657611c35611c6b565b5b50919050565b7f4e487b7100000000000000000000000000000000000000000000000000000000600052601160045260246000fd5b7f4e487b7100000000000000000000000000000000000000000000000000000000600052602260045260246000fd5b6000601f19601f8301169050919050565b7f45524332303a207472616e7366657220746f20746865207a65726f206164647260008201527f6573730000000000000000000000000000000000000000000000000000000000602082015250565b7f4f776e61626c653a206e6577206f776e657220697320746865207a65726f206160008201527f6464726573730000000000000000000000000000000000000000000000000000602082015250565b7f45524332303a20617070726f766520746f20746865207a65726f20616464726560008201527f7373000000000000000000000000000000000000000000000000000000000000602082015250565b7f45524332303a20696e73756666696369656e7420616c6c6f77616e6365000000600082015250565b7f45524332303a207472616e7366657220616d6f756e742065786365656473206260008201527f616c616e63650000000000000000000000000000000000000000000000000000602082015250565b7f6e6f7420617574686f72697a6564000000000000000000000000000000000000600082015250565b7f4f776e61626c653a2063616c6c6572206973206e6f7420746865206f776e6572600082015250565b7f45524332303a207472616e736665722066726f6d20746865207a65726f20616460008201527f6472657373000000000000000000000000000000000000000000000000000000602082015250565b7f45524332303a20617070726f76652066726f6d20746865207a65726f2061646460008201527f7265737300000000000000000000000000000000000000000000000000000000602082015250565b7f45524332303a2064656372656173656420616c6c6f77616e63652062656c6f7760008201527f207a65726f000000000000000000000000000000000000000000000000000000602082015250565b7f45524332303a206d696e7420746f20746865207a65726f206164647265737300600082015250565b611f8181611b78565b8114611f8c57600080fd5b50565b611f9881611b96565b8114611fa357600080fd5b50565b611faf81611bc0565b8114611fba57600080fd5b5056fea2646970667358221220f209032ca72fb8ac7414e78937dab7291dbae3acba30c723b85fc4e6ee1d852b64736f6c63430008040033",
  "linkReferences": {},
  "deployedLinkReferences": {}
}