{
  "_format": "hh-sol-artifact-1",
  "contractName": "Nestcoin",
  "sourceName": "contracts/Nestcoin.sol",
  "abi": [
    {
      "inputs": [],
      "stateMutability": "nonpayable",
      "type": "constructor"
    },
    {
      "anonymous": false,
      "inputs": [
        {
          "indexed": true,
          "internalType": "address",
          "name": "owner",
          "type": "address"
        },
        {
          "indexed": true,
          "internalType": "address",
          "name": "spender",
          "type": "address"
        },
        {
          "indexed": false,
          "internalType": "uint256",
          "name": "value",
          "type": "uint256"
        }
      ],
      "name": "Approval",
      "type": "event"
    },
    {
      "anonymous": false,
      "inputs": [
        {
          "indexed": true,
          "internalType": "address",
          "name": "previousOwner",
          "type": "address"
        },
        {
          "indexed": true,
          "internalType": "address",
          "name": "newOwner",
          "type": "address"
        }
      ],
      "name": "OwnershipTransferred",
      "type": "event"
    },
    {
      "anonymous": false,
      "inputs": [
        {
          "indexed": true,
          "internalType": "address",
          "name": "from",
          "type": "address"
        },
        {
          "indexed": true,
          "internalType": "address",
          "name": "to",
          "type": "address"
        },
        {
          "indexed": false,
          "internalType": "uint256",
          "name": "value",
          "type": "uint256"
        }
      ],
      "name": "Transfer",
      "type": "event"
    },
    {
      "inputs": [
        {
          "internalType": "address",
          "name": "owner",
          "type": "address"
        },
        {
          "internalType": "address",
          "name": "spender",
          "type": "address"
        }
      ],
      "name": "allowance",
      "outputs": [
        {
          "internalType": "uint256",
          "name": "",
          "type": "uint256"
        }
      ],
      "stateMutability": "view",
      "type": "function"
    },
    {
      "inputs": [
        {
          "internalType": "address",
          "name": "spender",
          "type": "address"
        },
        {
          "internalType": "uint256",
          "name": "amount",
          "type": "uint256"
        }
      ],
      "name": "approve",
      "outputs": [
        {
          "internalType": "bool",
          "name": "",
          "type": "bool"
        }
      ],
      "stateMutability": "nonpayable",
      "type": "function"
    },
    {
      "inputs": [
        {
          "internalType": "address",
          "name": "account",
          "type": "address"
        }
      ],
      "name": "balanceOf",
      "outputs": [
        {
          "internalType": "uint256",
          "name": "",
          "type": "uint256"
        }
      ],
      "stateMutability": "view",
      "type": "function"
    },
    {
      "inputs": [],
      "name": "decimals",
      "outputs": [
        {
          "internalType": "uint8",
          "name": "",
          "type": "uint8"
        }
      ],
      "stateMutability": "view",
      "type": "function"
    },
    {
      "inputs": [
        {
          "internalType": "address",
          "name": "spender",
          "type": "address"
        },
        {
          "internalType": "uint256",
          "name": "subtractedValue",
          "type": "uint256"
        }
      ],
      "name": "decreaseAllowance",
      "outputs": [
        {
          "internalType": "bool",
          "name": "",
          "type": "bool"
        }
      ],
      "stateMutability": "nonpayable",
      "type": "function"
    },
    {
      "inputs": [
        {
          "internalType": "address",
          "name": "spender",
          "type": "address"
        },
        {
          "internalType": "uint256",
          "name": "addedValue",
          "type": "uint256"
        }
      ],
      "name": "increaseAllowance",
      "outputs": [
        {
          "internalType": "bool",
          "name": "",
          "type": "bool"
        }
      ],
      "stateMutability": "nonpayable",
      "type": "function"
    },
    {
      "inputs": [
        {
          "internalType": "uint256",
          "name": "amount",
          "type": "uint256"
        }
      ],
      "name": "mint",
      "outputs": [],
      "stateMutability": "nonpayable",
      "type": "function"
    },
    {
      "inputs": [],
      "name": "name",
      "outputs": [
        {
          "internalType": "string",
          "name": "",
          "type": "string"
        }
      ],
      "stateMutability": "view",
      "type": "function"
    },
    {
      "inputs": [],
      "name": "owner",
      "outputs": [
        {
          "internalType": "address",
          "name": "",
          "type": "address"
        }
      ],
      "stateMutability": "view",
      "type": "function"
    },
    {
      "inputs": [],
      "name": "renounceOwnership",
      "outputs": [],
      "stateMutability": "nonpayable",
      "type": "function"
    },
    {
      "inputs": [],
      "name": "symbol",
      "outputs": [
        {
          "internalType": "string",
          "name": "",
          "type": "string"
        }
      ],
      "stateMutability": "view",
      "type": "function"
    },
    {
      "inputs": [],
      "name": "totalSupply",
      "outputs": [
        {
          "internalType": "uint256",
          "name": "",
          "type": "uint256"
        }
      ],
      "stateMutability": "view",
      "type": "function"
    },
    {
      "inputs": [
        {
          "internalType": "address",
          "name": "to",
          "type": "address"
        },
        {
          "internalType": "uint256",
          "name": "amount",
          "type": "uint256"
        }
      ],
      "name": "transfer",
      "outputs": [
        {
          "internalType": "bool",
          "name": "",
          "type": "bool"
        }
      ],
      "stateMutability": "nonpayable",
      "type": "function"
    },
    {
      "inputs": [
        {
          "internalType": "address",
          "name": "from",
          "type": "address"
        },
        {
          "internalType": "address",
          "name": "to",
          "type": "address"
        },
        {
          "internalType": "uint256",
          "name": "amount",
          "type": "uint256"
        }
      ],
      "name": "transferFrom",
      "outputs": [
        {
          "internalType": "bool",
          "name": "",
          "type": "bool"
        }
      ],
      "stateMutability": "nonpayable",
      "type": "function"
    },
    {
      "inputs": [
        {
          "internalType": "address",
          "name": "newOwner",
          "type": "address"
        }
      ],
      "name": "transferOwnership",
      "outputs": [],
      "stateMutability": "nonpayable",
      "type": "function"
    }
  ],
  "bytecode": "0x60806040523480156200001157600080fd5b506040518060400160405280600881526020017f4e657374636f696e0000000000000000000000000000000000000000000000008152506040518060400160405280600381526020017f4e54430000000000000000000000000000000000000000000000000000000000815250816003908051906020019062000096929190620001a6565b508060049080519060200190620000af929190620001a6565b505050620000d2620000c6620000d860201b60201c565b620000e060201b60201c565b620002bb565b600033905090565b6000600560009054906101000a900473ffffffffffffffffffffffffffffffffffffffff16905081600560006101000a81548173ffffffffffffffffffffffffffffffffffffffff021916908373ffffffffffffffffffffffffffffffffffffffff1602179055508173ffffffffffffffffffffffffffffffffffffffff168173ffffffffffffffffffffffffffffffffffffffff167f8be0079c531659141344cd1fd0a4f28419497f9722a3daafe3b4186f6b6457e060405160405180910390a35050565b828054620001b49062000256565b90600052602060002090601f016020900481019282620001d8576000855562000224565b82601f10620001f357805160ff191683800117855562000224565b8280016001018555821562000224579182015b828111156200022357825182559160200191906001019062000206565b5b50905062000233919062000237565b5090565b5b808211156200025257600081600090555060010162000238565b5090565b600060028204905060018216806200026f57607f821691505b602082108114156200028657620002856200028c565b5b50919050565b7f4e487b7100000000000000000000000000000000000000000000000000000000600052602260045260246000fd5b611a7b80620002cb6000396000f3fe608060405234801561001057600080fd5b50600436106100f55760003560e01c8063715018a611610097578063a457c2d711610066578063a457c2d714610276578063a9059cbb146102a6578063dd62ed3e146102d6578063f2fde38b14610306576100f5565b8063715018a6146102145780638da5cb5b1461021e57806395d89b411461023c578063a0712d681461025a576100f5565b806323b872dd116100d357806323b872dd14610166578063313ce5671461019657806339509351146101b457806370a08231146101e4576100f5565b806306fdde03146100fa578063095ea7b31461011857806318160ddd14610148575b600080fd5b610102610322565b60405161010f91906113e6565b60405180910390f35b610132600480360381019061012d9190611178565b6103b4565b60405161013f91906113cb565b60405180910390f35b6101506103d7565b60405161015d9190611548565b60405180910390f35b610180600480360381019061017b9190611129565b6103e1565b60405161018d91906113cb565b60405180910390f35b61019e610410565b6040516101ab9190611563565b60405180910390f35b6101ce60048036038101906101c99190611178565b610419565b6040516101db91906113cb565b60405180910390f35b6101fe60048036038101906101f991906110c4565b6104c3565b60405161020b9190611548565b60405180910390f35b61021c61050b565b005b610226610593565b60405161023391906113b0565b60405180910390f35b6102446105bd565b60405161025191906113e6565b60405180910390f35b610274600480360381019061026f91906111b4565b61064f565b005b610290600480360381019061028b9190611178565b6106fe565b60405161029d91906113cb565b60405180910390f35b6102c060048036038101906102bb9190611178565b6107e8565b6040516102cd91906113cb565b60405180910390f35b6102f060048036038101906102eb91906110ed565b61080b565b6040516102fd9190611548565b60405180910390f35b610320600480360381019061031b91906110c4565b610892565b005b606060038054610331906116d2565b80601f016020809104026020016040519081016040528092919081815260200182805461035d906116d2565b80156103aa5780601f1061037f576101008083540402835291602001916103aa565b820191906000526020600020905b81548152906001019060200180831161038d57829003601f168201915b5050505050905090565b6000806103bf61098a565b90506103cc818585610992565b600191505092915050565b6000600254905090565b6000806103ec61098a565b90506103f9858285610b5d565b610404858585610be9565b60019150509392505050565b60006012905090565b60008061042461098a565b90506104b8818585600160008673ffffffffffffffffffffffffffffffffffffffff1673ffffffffffffffffffffffffffffffffffffffff16815260200190815260200160002060008973ffffffffffffffffffffffffffffffffffffffff1673ffffffffffffffffffffffffffffffffffffffff168152602001908152602001600020546104b3919061159a565b610992565b600191505092915050565b60008060008373ffffffffffffffffffffffffffffffffffffffff1673ffffffffffffffffffffffffffffffffffffffff168152602001908152602001600020549050919050565b61051361098a565b73ffffffffffffffffffffffffffffffffffffffff16610531610593565b73ffffffffffffffffffffffffffffffffffffffff1614610587576040517f08c379a000000000000000000000000000000000000000000000000000000000815260040161057e906114a8565b60405180910390fd5b6105916000610e6a565b565b6000600560009054906101000a900473ffffffffffffffffffffffffffffffffffffffff16905090565b6060600480546105cc906116d2565b80601f01602080910402602001604051908101604052809291908181526020018280546105f8906116d2565b80156106455780601f1061061a57610100808354040283529160200191610645565b820191906000526020600020905b81548152906001019060200180831161062857829003601f168201915b5050505050905090565b61065761098a565b73ffffffffffffffffffffffffffffffffffffffff16610675610593565b73ffffffffffffffffffffffffffffffffffffffff16146106cb576040517f08c379a00000000000000000000000000000000000000000000000000000000081526004016106c2906114a8565b60405180910390fd5b6106e833670de0b6b3a7640000836106e391906115f0565b610f30565b6106fb33336106f6336104c3565b610992565b50565b60008061070961098a565b90506000600160008373ffffffffffffffffffffffffffffffffffffffff1673ffffffffffffffffffffffffffffffffffffffff16815260200190815260200160002060008673ffffffffffffffffffffffffffffffffffffffff1673ffffffffffffffffffffffffffffffffffffffff168152602001908152602001600020549050838110156107cf576040517f08c379a00000000000000000000000000000000000000000000000000000000081526004016107c690611508565b60405180910390fd5b6107dc8286868403610992565b60019250505092915050565b6000806107f361098a565b9050610800818585610be9565b600191505092915050565b6000600160008473ffffffffffffffffffffffffffffffffffffffff1673ffffffffffffffffffffffffffffffffffffffff16815260200190815260200160002060008373ffffffffffffffffffffffffffffffffffffffff1673ffffffffffffffffffffffffffffffffffffffff16815260200190815260200160002054905092915050565b61089a61098a565b73ffffffffffffffffffffffffffffffffffffffff166108b8610593565b73ffffffffffffffffffffffffffffffffffffffff161461090e576040517f08c379a0000000000000000000000000000000000000000000000000000000008152600401610905906114a8565b60405180910390fd5b600073ffffffffffffffffffffffffffffffffffffffff168173ffffffffffffffffffffffffffffffffffffffff16141561097e576040517f08c379a000000000000000000000000000000000000000000000000000000000815260040161097590611428565b60405180910390fd5b61098781610e6a565b50565b600033905090565b600073ffffffffffffffffffffffffffffffffffffffff168373ffffffffffffffffffffffffffffffffffffffff161415610a02576040517f08c379a00000000000000000000000000000000000000000000000000000000081526004016109f9906114e8565b60405180910390fd5b600073ffffffffffffffffffffffffffffffffffffffff168273ffffffffffffffffffffffffffffffffffffffff161415610a72576040517f08c379a0000000000000000000000000000000000000000000000000000000008152600401610a6990611448565b60405180910390fd5b80600160008573ffffffffffffffffffffffffffffffffffffffff1673ffffffffffffffffffffffffffffffffffffffff16815260200190815260200160002060008473ffffffffffffffffffffffffffffffffffffffff1673ffffffffffffffffffffffffffffffffffffffff168152602001908152602001600020819055508173ffffffffffffffffffffffffffffffffffffffff168373ffffffffffffffffffffffffffffffffffffffff167f8c5be1e5ebec7d5bd14f71427d1e84f3dd0314c0f7b2291e5b200ac8c7c3b92583604051610b509190611548565b60405180910390a3505050565b6000610b69848461080b565b90507fffffffffffffffffffffffffffffffffffffffffffffffffffffffffffffffff8114610be35781811015610bd5576040517f08c379a0000000000000000000000000000000000000000000000000000000008152600401610bcc90611468565b60405180910390fd5b610be28484848403610992565b5b50505050565b600073ffffffffffffffffffffffffffffffffffffffff168373ffffffffffffffffffffffffffffffffffffffff161415610c59576040517f08c379a0000000000000000000000000000000000000000000000000000000008152600401610c50906114c8565b60405180910390fd5b600073ffffffffffffffffffffffffffffffffffffffff168273ffffffffffffffffffffffffffffffffffffffff161415610cc9576040517f08c379a0000000000000000000000000000000000000000000000000000000008152600401610cc090611408565b60405180910390fd5b610cd4838383611090565b60008060008573ffffffffffffffffffffffffffffffffffffffff1673ffffffffffffffffffffffffffffffffffffffff16815260200190815260200160002054905081811015610d5a576040517f08c379a0000000000000000000000000000000000000000000000000000000008152600401610d5190611488565b60405180910390fd5b8181036000808673ffffffffffffffffffffffffffffffffffffffff1673ffffffffffffffffffffffffffffffffffffffff16815260200190815260200160002081905550816000808573ffffffffffffffffffffffffffffffffffffffff1673ffffffffffffffffffffffffffffffffffffffff1681526020019081526020016000206000828254610ded919061159a565b925050819055508273ffffffffffffffffffffffffffffffffffffffff168473ffffffffffffffffffffffffffffffffffffffff167fddf252ad1be2c89b69c2b068fc378daa952ba7f163c4a11628f55a4df523b3ef84604051610e519190611548565b60405180910390a3610e64848484611095565b50505050565b6000600560009054906101000a900473ffffffffffffffffffffffffffffffffffffffff16905081600560006101000a81548173ffffffffffffffffffffffffffffffffffffffff021916908373ffffffffffffffffffffffffffffffffffffffff1602179055508173ffffffffffffffffffffffffffffffffffffffff168173ffffffffffffffffffffffffffffffffffffffff167f8be0079c531659141344cd1fd0a4f28419497f9722a3daafe3b4186f6b6457e060405160405180910390a35050565b600073ffffffffffffffffffffffffffffffffffffffff168273ffffffffffffffffffffffffffffffffffffffff161415610fa0576040517f08c379a0000000000000000000000000000000000000000000000000000000008152600401610f9790611528565b60405180910390fd5b610fac60008383611090565b8060026000828254610fbe919061159a565b92505081905550806000808473ffffffffffffffffffffffffffffffffffffffff1673ffffffffffffffffffffffffffffffffffffffff1681526020019081526020016000206000828254611013919061159a565b925050819055508173ffffffffffffffffffffffffffffffffffffffff16600073ffffffffffffffffffffffffffffffffffffffff167fddf252ad1be2c89b69c2b068fc378daa952ba7f163c4a11628f55a4df523b3ef836040516110789190611548565b60405180910390a361108c60008383611095565b5050565b505050565b505050565b6000813590506110a981611a17565b92915050565b6000813590506110be81611a2e565b92915050565b6000602082840312156110d657600080fd5b60006110e48482850161109a565b91505092915050565b6000806040838503121561110057600080fd5b600061110e8582860161109a565b925050602061111f8582860161109a565b9150509250929050565b60008060006060848603121561113e57600080fd5b600061114c8682870161109a565b935050602061115d8682870161109a565b925050604061116e868287016110af565b9150509250925092565b6000806040838503121561118b57600080fd5b60006111998582860161109a565b92505060206111aa858286016110af565b9150509250929050565b6000602082840312156111c657600080fd5b60006111d4848285016110af565b91505092915050565b6111e68161164a565b82525050565b6111f58161165c565b82525050565b60006112068261157e565b6112108185611589565b935061122081856020860161169f565b61122981611762565b840191505092915050565b6000611241602383611589565b915061124c82611773565b604082019050919050565b6000611264602683611589565b915061126f826117c2565b604082019050919050565b6000611287602283611589565b915061129282611811565b604082019050919050565b60006112aa601d83611589565b91506112b582611860565b602082019050919050565b60006112cd602683611589565b91506112d882611889565b604082019050919050565b60006112f0602083611589565b91506112fb826118d8565b602082019050919050565b6000611313602583611589565b915061131e82611901565b604082019050919050565b6000611336602483611589565b915061134182611950565b604082019050919050565b6000611359602583611589565b91506113648261199f565b604082019050919050565b600061137c601f83611589565b9150611387826119ee565b602082019050919050565b61139b81611688565b82525050565b6113aa81611692565b82525050565b60006020820190506113c560008301846111dd565b92915050565b60006020820190506113e060008301846111ec565b92915050565b6000602082019050818103600083015261140081846111fb565b905092915050565b6000602082019050818103600083015261142181611234565b9050919050565b6000602082019050818103600083015261144181611257565b9050919050565b600060208201905081810360008301526114618161127a565b9050919050565b600060208201905081810360008301526114818161129d565b9050919050565b600060208201905081810360008301526114a1816112c0565b9050919050565b600060208201905081810360008301526114c1816112e3565b9050919050565b600060208201905081810360008301526114e181611306565b9050919050565b6000602082019050818103600083015261150181611329565b9050919050565b600060208201905081810360008301526115218161134c565b9050919050565b600060208201905081810360008301526115418161136f565b9050919050565b600060208201905061155d6000830184611392565b92915050565b600060208201905061157860008301846113a1565b92915050565b600081519050919050565b600082825260208201905092915050565b60006115a582611688565b91506115b083611688565b9250827fffffffffffffffffffffffffffffffffffffffffffffffffffffffffffffffff038211156115e5576115e4611704565b5b828201905092915050565b60006115fb82611688565b915061160683611688565b9250817fffffffffffffffffffffffffffffffffffffffffffffffffffffffffffffffff048311821515161561163f5761163e611704565b5b828202905092915050565b600061165582611668565b9050919050565b60008115159050919050565b600073ffffffffffffffffffffffffffffffffffffffff82169050919050565b6000819050919050565b600060ff82169050919050565b60005b838110156116bd5780820151818401526020810190506116a2565b838111156116cc576000848401525b50505050565b600060028204905060018216806116ea57607f821691505b602082108114156116fe576116fd611733565b5b50919050565b7f4e487b7100000000000000000000000000000000000000000000000000000000600052601160045260246000fd5b7f4e487b7100000000000000000000000000000000000000000000000000000000600052602260045260246000fd5b6000601f19601f8301169050919050565b7f45524332303a207472616e7366657220746f20746865207a65726f206164647260008201527f6573730000000000000000000000000000000000000000000000000000000000602082015250565b7f4f776e61626c653a206e6577206f776e657220697320746865207a65726f206160008201527f6464726573730000000000000000000000000000000000000000000000000000602082015250565b7f45524332303a20617070726f766520746f20746865207a65726f20616464726560008201527f7373000000000000000000000000000000000000000000000000000000000000602082015250565b7f45524332303a20696e73756666696369656e7420616c6c6f77616e6365000000600082015250565b7f45524332303a207472616e7366657220616d6f756e742065786365656473206260008201527f616c616e63650000000000000000000000000000000000000000000000000000602082015250565b7f4f776e61626c653a2063616c6c6572206973206e6f7420746865206f776e6572600082015250565b7f45524332303a207472616e736665722066726f6d20746865207a65726f20616460008201527f6472657373000000000000000000000000000000000000000000000000000000602082015250565b7f45524332303a20617070726f76652066726f6d20746865207a65726f2061646460008201527f7265737300000000000000000000000000000000000000000000000000000000602082015250565b7f45524332303a2064656372656173656420616c6c6f77616e63652062656c6f7760008201527f207a65726f000000000000000000000000000000000000000000000000000000602082015250565b7f45524332303a206d696e7420746f20746865207a65726f206164647265737300600082015250565b611a208161164a565b8114611a2b57600080fd5b50565b611a3781611688565b8114611a4257600080fd5b5056fea2646970667358221220b474d4261301fa72950b6bba610b6c21362b938d4358767ce5178e5f4d3b3d9164736f6c63430008040033",
  "linkReferences": {},
  "deployedLinkReferences": {}
}