{
  "_format": "hh-sol-artifact-1",
  "contractName": "MultiTransferTokenEqual",
  "sourceName": "contracts/Airdrop.sol",
  "abi": [
    {
      "anonymous": false,
      "inputs": [
        {
          "indexed": true,
          "internalType": "address",
          "name": "previousOwner",
          "type": "address"
        },
        {
          "indexed": true,
          "internalType": "address",
          "name": "newOwner",
          "type": "address"
        }
      ],
      "name": "OwnershipTransferred",
      "type": "event"
    },
    {
      "inputs": [
        {
          "internalType": "address",
          "name": "_token",
          "type": "address"
        },
        {
          "internalType": "address[]",
          "name": "_addresses",
          "type": "address[]"
        },
        {
          "internalType": "uint256",
          "name": "_amount",
          "type": "uint256"
        }
      ],
      "name": "multiSend",
      "outputs": [],
      "stateMutability": "payable",
      "type": "function"
    },
    {
      "inputs": [],
      "name": "owner",
      "outputs": [
        {
          "internalType": "address",
          "name": "",
          "type": "address"
        }
      ],
      "stateMutability": "view",
      "type": "function"
    },
    {
      "inputs": [],
      "name": "renounceOwnership",
      "outputs": [],
      "stateMutability": "nonpayable",
      "type": "function"
    },
    {
      "inputs": [
        {
          "internalType": "address",
          "name": "newOwner",
          "type": "address"
        }
      ],
      "name": "transferOwnership",
      "outputs": [],
      "stateMutability": "nonpayable",
      "type": "function"
    }
  ],
  "bytecode": "0x608060405234801561001057600080fd5b5061002d61002261003260201b60201c565b61003a60201b60201c565b6100fe565b600033905090565b60008060009054906101000a900473ffffffffffffffffffffffffffffffffffffffff169050816000806101000a81548173ffffffffffffffffffffffffffffffffffffffff021916908373ffffffffffffffffffffffffffffffffffffffff1602179055508173ffffffffffffffffffffffffffffffffffffffff168173ffffffffffffffffffffffffffffffffffffffff167f8be0079c531659141344cd1fd0a4f28419497f9722a3daafe3b4186f6b6457e060405160405180910390a35050565b61118d8061010d6000396000f3fe60806040526004361061003f5760003560e01c80635b2a0e9614610044578063715018a6146100605780638da5cb5b14610077578063f2fde38b146100a2575b600080fd5b61005e60048036038101906100599190610a0e565b6100cb565b005b34801561006c57600080fd5b50610075610346565b005b34801561008357600080fd5b5061008c6103ce565b6040516100999190610c60565b60405180910390f35b3480156100ae57600080fd5b506100c960048036038101906100c491906109e5565b6103f7565b005b6100d36104ef565b73ffffffffffffffffffffffffffffffffffffffff166100f16103ce565b73ffffffffffffffffffffffffffffffffffffffff1614610147576040517f08c379a000000000000000000000000000000000000000000000000000000000815260040161013e90610d3d565b60405180910390fd5b60c883839050111561018e576040517f08c379a000000000000000000000000000000000000000000000000000000000815260040161018590610dbd565b60405180910390fd5b6000838390508261019f9190610e0f565b90506000859050818173ffffffffffffffffffffffffffffffffffffffff166370a08231336040518263ffffffff1660e01b81526004016101e09190610c60565b60206040518083038186803b1580156101f857600080fd5b505afa15801561020c573d6000803e3d6000fd5b505050506040513d601f19601f820116820180604052508101906102309190610aa3565b1015610271576040517f08c379a000000000000000000000000000000000000000000000000000000000815260040161026890610d5d565b60405180910390fd5b61029e3330848473ffffffffffffffffffffffffffffffffffffffff166104f7909392919063ffffffff16565b60005b858590508160ff16101561033d5761032a86868360ff168181106102ee577f4e487b7100000000000000000000000000000000000000000000000000000000600052603260045260246000fd5b905060200201602081019061030391906109e5565b858473ffffffffffffffffffffffffffffffffffffffff166105809092919063ffffffff16565b808061033590610ef1565b9150506102a1565b50505050505050565b61034e6104ef565b73ffffffffffffffffffffffffffffffffffffffff1661036c6103ce565b73ffffffffffffffffffffffffffffffffffffffff16146103c2576040517f08c379a00000000000000000000000000000000000000000000000000000000081526004016103b990610d3d565b60405180910390fd5b6103cc6000610606565b565b60008060009054906101000a900473ffffffffffffffffffffffffffffffffffffffff16905090565b6103ff6104ef565b73ffffffffffffffffffffffffffffffffffffffff1661041d6103ce565b73ffffffffffffffffffffffffffffffffffffffff1614610473576040517f08c379a000000000000000000000000000000000000000000000000000000000815260040161046a90610d3d565b60405180910390fd5b600073ffffffffffffffffffffffffffffffffffffffff168173ffffffffffffffffffffffffffffffffffffffff1614156104e3576040517f08c379a00000000000000000000000000000000000000000000000000000000081526004016104da90610cfd565b60405180910390fd5b6104ec81610606565b50565b600033905090565b61057a846323b872dd60e01b85858560405160240161051893929190610c7b565b604051602081830303815290604052907bffffffffffffffffffffffffffffffffffffffffffffffffffffffff19166020820180517bffffffffffffffffffffffffffffffffffffffffffffffffffffffff83818316178352505050506106ca565b50505050565b6106018363a9059cbb60e01b848460405160240161059f929190610cb2565b604051602081830303815290604052907bffffffffffffffffffffffffffffffffffffffffffffffffffffffff19166020820180517bffffffffffffffffffffffffffffffffffffffffffffffffffffffff83818316178352505050506106ca565b505050565b60008060009054906101000a900473ffffffffffffffffffffffffffffffffffffffff169050816000806101000a81548173ffffffffffffffffffffffffffffffffffffffff021916908373ffffffffffffffffffffffffffffffffffffffff1602179055508173ffffffffffffffffffffffffffffffffffffffff168173ffffffffffffffffffffffffffffffffffffffff167f8be0079c531659141344cd1fd0a4f28419497f9722a3daafe3b4186f6b6457e060405160405180910390a35050565b600061072c826040518060400160405280602081526020017f5361666545524332303a206c6f772d6c6576656c2063616c6c206661696c65648152508573ffffffffffffffffffffffffffffffffffffffff166107919092919063ffffffff16565b905060008151111561078c578080602001905181019061074c9190610a7a565b61078b576040517f08c379a000000000000000000000000000000000000000000000000000000000815260040161078290610d9d565b60405180910390fd5b5b505050565b60606107a084846000856107a9565b90509392505050565b6060824710156107ee576040517f08c379a00000000000000000000000000000000000000000000000000000000081526004016107e590610d1d565b60405180910390fd5b6107f7856108bd565b610836576040517f08c379a000000000000000000000000000000000000000000000000000000000815260040161082d90610d7d565b60405180910390fd5b6000808673ffffffffffffffffffffffffffffffffffffffff16858760405161085f9190610c49565b60006040518083038185875af1925050503d806000811461089c576040519150601f19603f3d011682016040523d82523d6000602084013e6108a1565b606091505b50915091506108b18282866108e0565b92505050949350505050565b6000808273ffffffffffffffffffffffffffffffffffffffff163b119050919050565b606083156108f057829050610940565b6000835111156109035782518084602001fd5b816040517f08c379a00000000000000000000000000000000000000000000000000000000081526004016109379190610cdb565b60405180910390fd5b9392505050565b60008135905061095681611112565b92915050565b60008083601f84011261096e57600080fd5b8235905067ffffffffffffffff81111561098757600080fd5b60208301915083602082028301111561099f57600080fd5b9250929050565b6000815190506109b581611129565b92915050565b6000813590506109ca81611140565b92915050565b6000815190506109df81611140565b92915050565b6000602082840312156109f757600080fd5b6000610a0584828501610947565b91505092915050565b60008060008060608587031215610a2457600080fd5b6000610a3287828801610947565b945050602085013567ffffffffffffffff811115610a4f57600080fd5b610a5b8782880161095c565b93509350506040610a6e878288016109bb565b91505092959194509250565b600060208284031215610a8c57600080fd5b6000610a9a848285016109a6565b91505092915050565b600060208284031215610ab557600080fd5b6000610ac3848285016109d0565b91505092915050565b610ad581610e69565b82525050565b6000610ae682610ddd565b610af08185610df3565b9350610b00818560208601610ebe565b80840191505092915050565b6000610b1782610de8565b610b218185610dfe565b9350610b31818560208601610ebe565b610b3a81610f4a565b840191505092915050565b6000610b52602683610dfe565b9150610b5d82610f5b565b604082019050919050565b6000610b75602683610dfe565b9150610b8082610faa565b604082019050919050565b6000610b98602083610dfe565b9150610ba382610ff9565b602082019050919050565b6000610bbb602e83610dfe565b9150610bc682611022565b604082019050919050565b6000610bde601d83610dfe565b9150610be982611071565b602082019050919050565b6000610c01602a83610dfe565b9150610c0c8261109a565b604082019050919050565b6000610c24601483610dfe565b9150610c2f826110e9565b602082019050919050565b610c4381610ea7565b82525050565b6000610c558284610adb565b915081905092915050565b6000602082019050610c756000830184610acc565b92915050565b6000606082019050610c906000830186610acc565b610c9d6020830185610acc565b610caa6040830184610c3a565b949350505050565b6000604082019050610cc76000830185610acc565b610cd46020830184610c3a565b9392505050565b60006020820190508181036000830152610cf58184610b0c565b905092915050565b60006020820190508181036000830152610d1681610b45565b9050919050565b60006020820190508181036000830152610d3681610b68565b9050919050565b60006020820190508181036000830152610d5681610b8b565b9050919050565b60006020820190508181036000830152610d7681610bae565b9050919050565b60006020820190508181036000830152610d9681610bd1565b9050919050565b60006020820190508181036000830152610db681610bf4565b9050919050565b60006020820190508181036000830152610dd681610c17565b9050919050565b600081519050919050565b600081519050919050565b600081905092915050565b600082825260208201905092915050565b6000610e1a82610ea7565b9150610e2583610ea7565b9250817fffffffffffffffffffffffffffffffffffffffffffffffffffffffffffffffff0483118215151615610e5e57610e5d610f1b565b5b828202905092915050565b6000610e7482610e87565b9050919050565b60008115159050919050565b600073ffffffffffffffffffffffffffffffffffffffff82169050919050565b6000819050919050565b600060ff82169050919050565b60005b83811015610edc578082015181840152602081019050610ec1565b83811115610eeb576000848401525b50505050565b6000610efc82610eb1565b915060ff821415610f1057610f0f610f1b565b5b600182019050919050565b7f4e487b7100000000000000000000000000000000000000000000000000000000600052601160045260246000fd5b6000601f19601f8301169050919050565b7f4f776e61626c653a206e6577206f776e657220697320746865207a65726f206160008201527f6464726573730000000000000000000000000000000000000000000000000000602082015250565b7f416464726573733a20696e73756666696369656e742062616c616e636520666f60008201527f722063616c6c0000000000000000000000000000000000000000000000000000602082015250565b7f4f776e61626c653a2063616c6c6572206973206e6f7420746865206f776e6572600082015250565b7f546f6b656e2042616c616e6365206973204c6f772c206d696e74206d6f72652060008201527f746f6b656e7320746f2073656e64000000000000000000000000000000000000602082015250565b7f416464726573733a2063616c6c20746f206e6f6e2d636f6e7472616374000000600082015250565b7f5361666545524332303a204552433230206f7065726174696f6e20646964206e60008201527f6f74207375636365656400000000000000000000000000000000000000000000602082015250565b7f4d6178206f662032303020616464726573736573000000000000000000000000600082015250565b61111b81610e69565b811461112657600080fd5b50565b61113281610e7b565b811461113d57600080fd5b50565b61114981610ea7565b811461115457600080fd5b5056fea26469706673582212209988863aabc9f7896f43a359a7d6c209b312d5c9a9b437a24305863ec70707ee64736f6c63430008040033",
  "linkReferences": {},
  "deployedLinkReferences": {}
}