{
  "_format": "hh-sol-artifact-1",
  "contractName": "MultiTransferTokenEqual",
  "sourceName": "contracts/MultiTransferTokenEqual.sol",
  "abi": [
    {
      "anonymous": false,
      "inputs": [
        {
          "indexed": false,
          "internalType": "uint256",
          "name": "batchSize",
          "type": "uint256"
        },
        {
          "indexed": false,
          "internalType": "uint256",
          "name": "amount",
          "type": "uint256"
        }
      ],
      "name": "BatchTransfer",
      "type": "event"
    },
    {
      "anonymous": false,
      "inputs": [
        {
          "indexed": true,
          "internalType": "address",
          "name": "previousOwner",
          "type": "address"
        },
        {
          "indexed": true,
          "internalType": "address",
          "name": "newOwner",
          "type": "address"
        }
      ],
      "name": "OwnershipTransferred",
      "type": "event"
    },
    {
      "anonymous": false,
      "inputs": [
        {
          "indexed": false,
          "internalType": "address",
          "name": "account",
          "type": "address"
        }
      ],
      "name": "Paused",
      "type": "event"
    },
    {
      "anonymous": false,
      "inputs": [
        {
          "indexed": false,
          "internalType": "address",
          "name": "account",
          "type": "address"
        }
      ],
      "name": "Unpaused",
      "type": "event"
    },
    {
      "inputs": [
        {
          "internalType": "address",
          "name": "_token",
          "type": "address"
        }
      ],
      "name": "claimTicket",
      "outputs": [],
      "stateMutability": "nonpayable",
      "type": "function"
    },
    {
      "inputs": [
        {
          "internalType": "address",
          "name": "_token",
          "type": "address"
        },
        {
          "internalType": "address[]",
          "name": "_addresses",
          "type": "address[]"
        },
        {
          "internalType": "uint256",
          "name": "_amount",
          "type": "uint256"
        }
      ],
      "name": "multiSend",
      "outputs": [],
      "stateMutability": "nonpayable",
      "type": "function"
    },
    {
      "inputs": [],
      "name": "owner",
      "outputs": [
        {
          "internalType": "address",
          "name": "",
          "type": "address"
        }
      ],
      "stateMutability": "view",
      "type": "function"
    },
    {
      "inputs": [],
      "name": "pause",
      "outputs": [],
      "stateMutability": "nonpayable",
      "type": "function"
    },
    {
      "inputs": [],
      "name": "paused",
      "outputs": [
        {
          "internalType": "bool",
          "name": "",
          "type": "bool"
        }
      ],
      "stateMutability": "view",
      "type": "function"
    },
    {
      "inputs": [],
      "name": "renounceOwnership",
      "outputs": [],
      "stateMutability": "nonpayable",
      "type": "function"
    },
    {
      "inputs": [
        {
          "internalType": "address",
          "name": "",
          "type": "address"
        }
      ],
      "name": "ticket",
      "outputs": [
        {
          "internalType": "uint256",
          "name": "",
          "type": "uint256"
        }
      ],
      "stateMutability": "view",
      "type": "function"
    },
    {
      "inputs": [],
      "name": "ticketPrice",
      "outputs": [
        {
          "internalType": "uint256",
          "name": "",
          "type": "uint256"
        }
      ],
      "stateMutability": "view",
      "type": "function"
    },
    {
      "inputs": [
        {
          "internalType": "address",
          "name": "newOwner",
          "type": "address"
        }
      ],
      "name": "transferOwnership",
      "outputs": [],
      "stateMutability": "nonpayable",
      "type": "function"
    },
    {
      "inputs": [],
      "name": "unpause",
      "outputs": [],
      "stateMutability": "nonpayable",
      "type": "function"
    }
  ],
  "bytecode": "0x60806040526802b5e3af16b188000060025534801561001d57600080fd5b5061003a61002f61005960201b60201c565b61006160201b60201c565b60008060146101000a81548160ff021916908315150217905550610125565b600033905090565b60008060009054906101000a900473ffffffffffffffffffffffffffffffffffffffff169050816000806101000a81548173ffffffffffffffffffffffffffffffffffffffff021916908373ffffffffffffffffffffffffffffffffffffffff1602179055508173ffffffffffffffffffffffffffffffffffffffff168173ffffffffffffffffffffffffffffffffffffffff167f8be0079c531659141344cd1fd0a4f28419497f9722a3daafe3b4186f6b6457e060405160405180910390a35050565b611a46806101346000396000f3fe608060405234801561001057600080fd5b506004361061009e5760003560e01c8063715018a611610066578063715018a6146101355780637a89e8db1461013f5780638456cb591461015b5780638da5cb5b14610165578063f2fde38b146101835761009e565b80630146a816146100a35780631209b1f6146100d35780633f4ba83a146100f15780635b2a0e96146100fb5780635c975abb14610117575b600080fd5b6100bd60048036038101906100b8919061105d565b61019f565b6040516100ca919061158b565b60405180910390f35b6100db6101b7565b6040516100e8919061158b565b60405180910390f35b6100f96101bd565b005b61011560048036038101906101109190611086565b610243565b005b61011f6105b4565b60405161012c91906113ee565b60405180910390f35b61013d6105ca565b005b6101596004803603810190610154919061105d565b610652565b005b61016361087c565b005b61016d610902565b60405161017a9190611373565b60405180910390f35b61019d6004803603810190610198919061105d565b61092b565b005b60016020528060005260406000206000915090505481565b60025481565b6101c5610a23565b73ffffffffffffffffffffffffffffffffffffffff166101e3610902565b73ffffffffffffffffffffffffffffffffffffffff1614610239576040517f08c379a00000000000000000000000000000000000000000000000000000000081526004016102309061150b565b60405180910390fd5b610241610a2b565b565b61024b6105b4565b1561028b576040517f08c379a0000000000000000000000000000000000000000000000000000000008152600401610282906114cb565b60405180910390fd5b60008490508073ffffffffffffffffffffffffffffffffffffffff166324d7806c336040518263ffffffff1660e01b81526004016102c99190611373565b60206040518083038186803b1580156102e157600080fd5b505afa1580156102f5573d6000803e3d6000fd5b505050506040513d601f19601f8201168201806040525081019061031991906110f2565b610358576040517f08c379a000000000000000000000000000000000000000000000000000000000815260040161034f906114ab565b60405180910390fd5b60c884849050111561039f576040517f08c379a00000000000000000000000000000000000000000000000000000000081526004016103969061156b565b60405180910390fd5b6000670de0b6b3a764000085859050846103b99190611601565b6103c39190611601565b9050808273ffffffffffffffffffffffffffffffffffffffff166370a08231336040518263ffffffff1660e01b81526004016103ff9190611373565b60206040518083038186803b15801561041757600080fd5b505afa15801561042b573d6000803e3d6000fd5b505050506040513d601f19601f8201168201806040525081019061044f919061111b565b1015610490576040517f08c379a00000000000000000000000000000000000000000000000000000000081526004016104879061146b565b60405180910390fd5b6104bd3330838573ffffffffffffffffffffffffffffffffffffffff16610acc909392919063ffffffff16565b60005b858590508160ff16101561056f5761055c86868360ff1681811061050d577f4e487b7100000000000000000000000000000000000000000000000000000000600052603260045260246000fd5b9050602002016020810190610522919061105d565b670de0b6b3a7640000866105369190611601565b8573ffffffffffffffffffffffffffffffffffffffff16610b559092919063ffffffff16565b80806105679061172c565b9150506104c0565b507ff06d5829339ff49fdd3d05c6b6a0a7bf6b82b2412af10126ccfee2831a949b0885859050846040516105a49291906115a6565b60405180910390a1505050505050565b60008060149054906101000a900460ff16905090565b6105d2610a23565b73ffffffffffffffffffffffffffffffffffffffff166105f0610902565b73ffffffffffffffffffffffffffffffffffffffff1614610646576040517f08c379a000000000000000000000000000000000000000000000000000000000815260040161063d9061150b565b60405180910390fd5b6106506000610bdb565b565b60008190506002548173ffffffffffffffffffffffffffffffffffffffff166370a08231336040518263ffffffff1660e01b81526004016106939190611373565b60206040518083038186803b1580156106ab57600080fd5b505afa1580156106bf573d6000803e3d6000fd5b505050506040513d601f19601f820116820180604052508101906106e3919061111b565b1015610724576040517f08c379a000000000000000000000000000000000000000000000000000000000815260040161071b9061146b565b60405180910390fd5b8073ffffffffffffffffffffffffffffffffffffffff166324d7806c336040518263ffffffff1660e01b815260040161075d9190611373565b60206040518083038186803b15801561077557600080fd5b505afa158015610789573d6000803e3d6000fd5b505050506040513d601f19601f820116820180604052508101906107ad91906110f2565b156107ed576040517f08c379a00000000000000000000000000000000000000000000000000000000081526004016107e4906114eb565b60405180910390fd5b610823336107f9610902565b6002548473ffffffffffffffffffffffffffffffffffffffff16610acc909392919063ffffffff16565b600160003373ffffffffffffffffffffffffffffffffffffffff1673ffffffffffffffffffffffffffffffffffffffff1681526020019081526020016000206000815480929190610873906116e3565b91905055505050565b610884610a23565b73ffffffffffffffffffffffffffffffffffffffff166108a2610902565b73ffffffffffffffffffffffffffffffffffffffff16146108f8576040517f08c379a00000000000000000000000000000000000000000000000000000000081526004016108ef9061150b565b60405180910390fd5b610900610c9f565b565b60008060009054906101000a900473ffffffffffffffffffffffffffffffffffffffff16905090565b610933610a23565b73ffffffffffffffffffffffffffffffffffffffff16610951610902565b73ffffffffffffffffffffffffffffffffffffffff16146109a7576040517f08c379a000000000000000000000000000000000000000000000000000000000815260040161099e9061150b565b60405180910390fd5b600073ffffffffffffffffffffffffffffffffffffffff168173ffffffffffffffffffffffffffffffffffffffff161415610a17576040517f08c379a0000000000000000000000000000000000000000000000000000000008152600401610a0e9061144b565b60405180910390fd5b610a2081610bdb565b50565b600033905090565b610a336105b4565b610a72576040517f08c379a0000000000000000000000000000000000000000000000000000000008152600401610a699061142b565b60405180910390fd5b60008060146101000a81548160ff0219169083151502179055507f5db9ee0a495bf2e6ff9c91a7834c1ba4fdd244a5e8aa4e537bd38aeae4b073aa610ab5610a23565b604051610ac29190611373565b60405180910390a1565b610b4f846323b872dd60e01b858585604051602401610aed9392919061138e565b604051602081830303815290604052907bffffffffffffffffffffffffffffffffffffffffffffffffffffffff19166020820180517bffffffffffffffffffffffffffffffffffffffffffffffffffffffff8381831617835250505050610d42565b50505050565b610bd68363a9059cbb60e01b8484604051602401610b749291906113c5565b604051602081830303815290604052907bffffffffffffffffffffffffffffffffffffffffffffffffffffffff19166020820180517bffffffffffffffffffffffffffffffffffffffffffffffffffffffff8381831617835250505050610d42565b505050565b60008060009054906101000a900473ffffffffffffffffffffffffffffffffffffffff169050816000806101000a81548173ffffffffffffffffffffffffffffffffffffffff021916908373ffffffffffffffffffffffffffffffffffffffff1602179055508173ffffffffffffffffffffffffffffffffffffffff168173ffffffffffffffffffffffffffffffffffffffff167f8be0079c531659141344cd1fd0a4f28419497f9722a3daafe3b4186f6b6457e060405160405180910390a35050565b610ca76105b4565b15610ce7576040517f08c379a0000000000000000000000000000000000000000000000000000000008152600401610cde906114cb565b60405180910390fd5b6001600060146101000a81548160ff0219169083151502179055507f62e78cea01bee320cd4e420270b5ea74000d11b0c9f74754ebdbfc544b05a258610d2b610a23565b604051610d389190611373565b60405180910390a1565b6000610da4826040518060400160405280602081526020017f5361666545524332303a206c6f772d6c6576656c2063616c6c206661696c65648152508573ffffffffffffffffffffffffffffffffffffffff16610e099092919063ffffffff16565b9050600081511115610e045780806020019051810190610dc491906110f2565b610e03576040517f08c379a0000000000000000000000000000000000000000000000000000000008152600401610dfa9061154b565b60405180910390fd5b5b505050565b6060610e188484600085610e21565b90509392505050565b606082471015610e66576040517f08c379a0000000000000000000000000000000000000000000000000000000008152600401610e5d9061148b565b60405180910390fd5b610e6f85610f35565b610eae576040517f08c379a0000000000000000000000000000000000000000000000000000000008152600401610ea59061152b565b60405180910390fd5b6000808673ffffffffffffffffffffffffffffffffffffffff168587604051610ed7919061135c565b60006040518083038185875af1925050503d8060008114610f14576040519150601f19603f3d011682016040523d82523d6000602084013e610f19565b606091505b5091509150610f29828286610f58565b92505050949350505050565b6000808273ffffffffffffffffffffffffffffffffffffffff163b119050919050565b60608315610f6857829050610fb8565b600083511115610f7b5782518084602001fd5b816040517f08c379a0000000000000000000000000000000000000000000000000000000008152600401610faf9190611409565b60405180910390fd5b9392505050565b600081359050610fce816119cb565b92915050565b60008083601f840112610fe657600080fd5b8235905067ffffffffffffffff811115610fff57600080fd5b60208301915083602082028301111561101757600080fd5b9250929050565b60008151905061102d816119e2565b92915050565b600081359050611042816119f9565b92915050565b600081519050611057816119f9565b92915050565b60006020828403121561106f57600080fd5b600061107d84828501610fbf565b91505092915050565b6000806000806060858703121561109c57600080fd5b60006110aa87828801610fbf565b945050602085013567ffffffffffffffff8111156110c757600080fd5b6110d387828801610fd4565b935093505060406110e687828801611033565b91505092959194509250565b60006020828403121561110457600080fd5b60006111128482850161101e565b91505092915050565b60006020828403121561112d57600080fd5b600061113b84828501611048565b91505092915050565b61114d8161165b565b82525050565b61115c8161166d565b82525050565b600061116d826115cf565b61117781856115e5565b93506111878185602086016116b0565b80840191505092915050565b600061119e826115da565b6111a881856115f0565b93506111b88185602086016116b0565b6111c181611785565b840191505092915050565b60006111d96014836115f0565b91506111e482611796565b602082019050919050565b60006111fc6026836115f0565b9150611207826117bf565b604082019050919050565b600061121f601b836115f0565b915061122a8261180e565b602082019050919050565b60006112426026836115f0565b915061124d82611837565b604082019050919050565b60006112656014836115f0565b915061127082611886565b602082019050919050565b60006112886010836115f0565b9150611293826118af565b602082019050919050565b60006112ab601c836115f0565b91506112b6826118d8565b602082019050919050565b60006112ce6020836115f0565b91506112d982611901565b602082019050919050565b60006112f1601d836115f0565b91506112fc8261192a565b602082019050919050565b6000611314602a836115f0565b915061131f82611953565b604082019050919050565b60006113376014836115f0565b9150611342826119a2565b602082019050919050565b61135681611699565b82525050565b60006113688284611162565b915081905092915050565b60006020820190506113886000830184611144565b92915050565b60006060820190506113a36000830186611144565b6113b06020830185611144565b6113bd604083018461134d565b949350505050565b60006040820190506113da6000830185611144565b6113e7602083018461134d565b9392505050565b60006020820190506114036000830184611153565b92915050565b600060208201905081810360008301526114238184611193565b905092915050565b60006020820190508181036000830152611444816111cc565b9050919050565b60006020820190508181036000830152611464816111ef565b9050919050565b6000602082019050818103600083015261148481611212565b9050919050565b600060208201905081810360008301526114a481611235565b9050919050565b600060208201905081810360008301526114c481611258565b9050919050565b600060208201905081810360008301526114e48161127b565b9050919050565b600060208201905081810360008301526115048161129e565b9050919050565b60006020820190508181036000830152611524816112c1565b9050919050565b60006020820190508181036000830152611544816112e4565b9050919050565b6000602082019050818103600083015261156481611307565b9050919050565b600060208201905081810360008301526115848161132a565b9050919050565b60006020820190506115a0600083018461134d565b92915050565b60006040820190506115bb600083018561134d565b6115c8602083018461134d565b9392505050565b600081519050919050565b600081519050919050565b600081905092915050565b600082825260208201905092915050565b600061160c82611699565b915061161783611699565b9250817fffffffffffffffffffffffffffffffffffffffffffffffffffffffffffffffff04831182151516156116505761164f611756565b5b828202905092915050565b600061166682611679565b9050919050565b60008115159050919050565b600073ffffffffffffffffffffffffffffffffffffffff82169050919050565b6000819050919050565b600060ff82169050919050565b60005b838110156116ce5780820151818401526020810190506116b3565b838111156116dd576000848401525b50505050565b60006116ee82611699565b91507fffffffffffffffffffffffffffffffffffffffffffffffffffffffffffffffff82141561172157611720611756565b5b600182019050919050565b6000611737826116a3565b915060ff82141561174b5761174a611756565b5b600182019050919050565b7f4e487b7100000000000000000000000000000000000000000000000000000000600052601160045260246000fd5b6000601f19601f8301169050919050565b7f5061757361626c653a206e6f7420706175736564000000000000000000000000600082015250565b7f4f776e61626c653a206e6577206f776e657220697320746865207a65726f206160008201527f6464726573730000000000000000000000000000000000000000000000000000602082015250565b7f496e73756666696369656e7420746f6b656e2062616c616e63652e0000000000600082015250565b7f416464726573733a20696e73756666696369656e742062616c616e636520666f60008201527f722063616c6c0000000000000000000000000000000000000000000000000000602082015250565b7f596f7520617265206e6f7420616e2061646d696e000000000000000000000000600082015250565b7f5061757361626c653a2070617573656400000000000000000000000000000000600082015250565b7f41646d696e732063616e6e6f7420636c61696d207469636b6574732e00000000600082015250565b7f4f776e61626c653a2063616c6c6572206973206e6f7420746865206f776e6572600082015250565b7f416464726573733a2063616c6c20746f206e6f6e2d636f6e7472616374000000600082015250565b7f5361666545524332303a204552433230206f7065726174696f6e20646964206e60008201527f6f74207375636365656400000000000000000000000000000000000000000000602082015250565b7f4d6178206f662032303020616464726573736573000000000000000000000000600082015250565b6119d48161165b565b81146119df57600080fd5b50565b6119eb8161166d565b81146119f657600080fd5b50565b611a0281611699565b8114611a0d57600080fd5b5056fea26469706673582212207989431549b9d0f391bca907292ff5b7a9973037482248882c27c1b30de796d064736f6c63430008040033",
  "linkReferences": {},
  "deployedLinkReferences": {}
}