{
  "_format": "hh-sol-artifact-1",
  "contractName": "Nestcoin",
  "sourceName": "contracts/Nestcoin.sol",
  "abi": [
    {
      "inputs": [],
      "stateMutability": "nonpayable",
      "type": "constructor"
    },
    {
      "anonymous": false,
      "inputs": [
        {
          "indexed": true,
          "internalType": "address",
          "name": "owner",
          "type": "address"
        },
        {
          "indexed": true,
          "internalType": "address",
          "name": "spender",
          "type": "address"
        },
        {
          "indexed": false,
          "internalType": "uint256",
          "name": "value",
          "type": "uint256"
        }
      ],
      "name": "Approval",
      "type": "event"
    },
    {
      "anonymous": false,
      "inputs": [
        {
          "indexed": true,
          "internalType": "bytes32",
          "name": "role",
          "type": "bytes32"
        },
        {
          "indexed": true,
          "internalType": "address",
          "name": "account",
          "type": "address"
        }
      ],
      "name": "GrantRoles",
      "type": "event"
    },
    {
      "anonymous": false,
      "inputs": [
        {
          "indexed": true,
          "internalType": "address",
          "name": "previousOwner",
          "type": "address"
        },
        {
          "indexed": true,
          "internalType": "address",
          "name": "newOwner",
          "type": "address"
        }
      ],
      "name": "OwnershipTransferred",
      "type": "event"
    },
    {
      "anonymous": false,
      "inputs": [
        {
          "indexed": true,
          "internalType": "bytes32",
          "name": "role",
          "type": "bytes32"
        },
        {
          "indexed": true,
          "internalType": "address",
          "name": "account",
          "type": "address"
        }
      ],
      "name": "RemoveRoles",
      "type": "event"
    },
    {
      "anonymous": false,
      "inputs": [
        {
          "indexed": true,
          "internalType": "address",
          "name": "from",
          "type": "address"
        },
        {
          "indexed": true,
          "internalType": "address",
          "name": "to",
          "type": "address"
        },
        {
          "indexed": false,
          "internalType": "uint256",
          "name": "value",
          "type": "uint256"
        }
      ],
      "name": "Transfer",
      "type": "event"
    },
    {
      "inputs": [],
      "name": "ADMIN",
      "outputs": [
        {
          "internalType": "bytes32",
          "name": "",
          "type": "bytes32"
        }
      ],
      "stateMutability": "view",
      "type": "function"
    },
    {
      "inputs": [
        {
          "internalType": "address",
          "name": "owner",
          "type": "address"
        },
        {
          "internalType": "address",
          "name": "spender",
          "type": "address"
        }
      ],
      "name": "allowance",
      "outputs": [
        {
          "internalType": "uint256",
          "name": "",
          "type": "uint256"
        }
      ],
      "stateMutability": "view",
      "type": "function"
    },
    {
      "inputs": [
        {
          "internalType": "address",
          "name": "spender",
          "type": "address"
        },
        {
          "internalType": "uint256",
          "name": "amount",
          "type": "uint256"
        }
      ],
      "name": "approve",
      "outputs": [
        {
          "internalType": "bool",
          "name": "",
          "type": "bool"
        }
      ],
      "stateMutability": "nonpayable",
      "type": "function"
    },
    {
      "inputs": [
        {
          "internalType": "address",
          "name": "account",
          "type": "address"
        }
      ],
      "name": "balanceOf",
      "outputs": [
        {
          "internalType": "uint256",
          "name": "",
          "type": "uint256"
        }
      ],
      "stateMutability": "view",
      "type": "function"
    },
    {
      "inputs": [],
      "name": "decimals",
      "outputs": [
        {
          "internalType": "uint8",
          "name": "",
          "type": "uint8"
        }
      ],
      "stateMutability": "view",
      "type": "function"
    },
    {
      "inputs": [
        {
          "internalType": "address",
          "name": "spender",
          "type": "address"
        },
        {
          "internalType": "uint256",
          "name": "subtractedValue",
          "type": "uint256"
        }
      ],
      "name": "decreaseAllowance",
      "outputs": [
        {
          "internalType": "bool",
          "name": "",
          "type": "bool"
        }
      ],
      "stateMutability": "nonpayable",
      "type": "function"
    },
    {
      "inputs": [],
      "name": "destroy",
      "outputs": [],
      "stateMutability": "nonpayable",
      "type": "function"
    },
    {
      "inputs": [
        {
          "internalType": "bytes32",
          "name": "_role",
          "type": "bytes32"
        },
        {
          "internalType": "address",
          "name": "_account",
          "type": "address"
        }
      ],
      "name": "grantRole",
      "outputs": [],
      "stateMutability": "nonpayable",
      "type": "function"
    },
    {
      "inputs": [
        {
          "internalType": "address",
          "name": "spender",
          "type": "address"
        },
        {
          "internalType": "uint256",
          "name": "addedValue",
          "type": "uint256"
        }
      ],
      "name": "increaseAllowance",
      "outputs": [
        {
          "internalType": "bool",
          "name": "",
          "type": "bool"
        }
      ],
      "stateMutability": "nonpayable",
      "type": "function"
    },
    {
      "inputs": [
        {
          "internalType": "address",
          "name": "_address",
          "type": "address"
        }
      ],
      "name": "isAdmin",
      "outputs": [
        {
          "internalType": "bool",
          "name": "",
          "type": "bool"
        }
      ],
      "stateMutability": "view",
      "type": "function"
    },
    {
      "inputs": [
        {
          "internalType": "uint256",
          "name": "amount",
          "type": "uint256"
        }
      ],
      "name": "mint",
      "outputs": [],
      "stateMutability": "nonpayable",
      "type": "function"
    },
    {
      "inputs": [],
      "name": "name",
      "outputs": [
        {
          "internalType": "string",
          "name": "",
          "type": "string"
        }
      ],
      "stateMutability": "view",
      "type": "function"
    },
    {
      "inputs": [],
      "name": "owner",
      "outputs": [
        {
          "internalType": "address",
          "name": "",
          "type": "address"
        }
      ],
      "stateMutability": "view",
      "type": "function"
    },
    {
      "inputs": [
        {
          "internalType": "bytes32",
          "name": "_role",
          "type": "bytes32"
        },
        {
          "internalType": "address",
          "name": "_account",
          "type": "address"
        }
      ],
      "name": "removeRole",
      "outputs": [],
      "stateMutability": "nonpayable",
      "type": "function"
    },
    {
      "inputs": [],
      "name": "renounceOwnership",
      "outputs": [],
      "stateMutability": "nonpayable",
      "type": "function"
    },
    {
      "inputs": [
        {
          "internalType": "bytes32",
          "name": "",
          "type": "bytes32"
        },
        {
          "internalType": "address",
          "name": "",
          "type": "address"
        }
      ],
      "name": "roles",
      "outputs": [
        {
          "internalType": "bool",
          "name": "",
          "type": "bool"
        }
      ],
      "stateMutability": "view",
      "type": "function"
    },
    {
      "inputs": [],
      "name": "symbol",
      "outputs": [
        {
          "internalType": "string",
          "name": "",
          "type": "string"
        }
      ],
      "stateMutability": "view",
      "type": "function"
    },
    {
      "inputs": [],
      "name": "totalSupply",
      "outputs": [
        {
          "internalType": "uint256",
          "name": "",
          "type": "uint256"
        }
      ],
      "stateMutability": "view",
      "type": "function"
    },
    {
      "inputs": [
        {
          "internalType": "address",
          "name": "to",
          "type": "address"
        },
        {
          "internalType": "uint256",
          "name": "amount",
          "type": "uint256"
        }
      ],
      "name": "transfer",
      "outputs": [
        {
          "internalType": "bool",
          "name": "",
          "type": "bool"
        }
      ],
      "stateMutability": "nonpayable",
      "type": "function"
    },
    {
      "inputs": [
        {
          "internalType": "address",
          "name": "from",
          "type": "address"
        },
        {
          "internalType": "address",
          "name": "to",
          "type": "address"
        },
        {
          "internalType": "uint256",
          "name": "amount",
          "type": "uint256"
        }
      ],
      "name": "transferFrom",
      "outputs": [
        {
          "internalType": "bool",
          "name": "",
          "type": "bool"
        }
      ],
      "stateMutability": "nonpayable",
      "type": "function"
    },
    {
      "inputs": [
        {
          "internalType": "address",
          "name": "newOwner",
          "type": "address"
        }
      ],
      "name": "transferOwnership",
      "outputs": [],
      "stateMutability": "nonpayable",
      "type": "function"
    }
  ],
  "bytecode": "0x60806040523480156200001157600080fd5b506040518060400160405280600881526020017f4e657374636f696e0000000000000000000000000000000000000000000000008152506040518060400160405280600381526020017f4e5443000000000000000000000000000000000000000000000000000000000081525081600390805190602001906200009692919062000289565b508060049080519060200190620000af92919062000289565b505050620000d2620000c66200010a60201b60201c565b6200011260201b60201c565b620001047fdf8b4c520ffe197c5343c6f5aec59570151ef9a492f2c624fd45ddde6135ec4233620001d860201b60201c565b6200039e565b600033905090565b6000600560009054906101000a900473ffffffffffffffffffffffffffffffffffffffff16905081600560006101000a81548173ffffffffffffffffffffffffffffffffffffffff021916908373ffffffffffffffffffffffffffffffffffffffff1602179055508173ffffffffffffffffffffffffffffffffffffffff168173ffffffffffffffffffffffffffffffffffffffff167f8be0079c531659141344cd1fd0a4f28419497f9722a3daafe3b4186f6b6457e060405160405180910390a35050565b60016006600084815260200190815260200160002060008373ffffffffffffffffffffffffffffffffffffffff1673ffffffffffffffffffffffffffffffffffffffff16815260200190815260200160002060006101000a81548160ff0219169083151502179055508073ffffffffffffffffffffffffffffffffffffffff16827f28be2ad647d19c04889746a89a2c95468f8dcd453018d6d0f2411904e90dff1360405160405180910390a35050565b828054620002979062000339565b90600052602060002090601f016020900481019282620002bb576000855562000307565b82601f10620002d657805160ff191683800117855562000307565b8280016001018555821562000307579182015b8281111562000306578251825591602001919060010190620002e9565b5b5090506200031691906200031a565b5090565b5b80821115620003355760008160009055506001016200031b565b5090565b600060028204905060018216806200035257607f821691505b602082108114156200036957620003686200036f565b5b50919050565b7f4e487b7100000000000000000000000000000000000000000000000000000000600052602260045260246000fd5b61211980620003ae6000396000f3fe608060405234801561001057600080fd5b50600436106101375760003560e01c8063715018a6116100b8578063a457c2d71161007c578063a457c2d71461032c578063a9059cbb1461035c578063dd62ed3e1461038c578063f2fde38b146103bc578063f6ba0007146103d8578063f8fc08b9146103f457610137565b8063715018a6146102c057806383197ef0146102ca5780638da5cb5b146102d457806395d89b41146102f2578063a0712d681461031057610137565b80632a0acc6a116100ff5780632a0acc6a146102085780632f2ff15d14610226578063313ce56714610242578063395093511461026057806370a082311461029057610137565b806306fdde031461013c578063095ea7b31461015a57806318160ddd1461018a57806323b872dd146101a857806324d7806c146101d8575b600080fd5b610144610424565b6040516101519190611a1a565b60405180910390f35b610174600480360381019061016f9190611723565b6104b6565b60405161018191906119e4565b60405180910390f35b6101926104d9565b60405161019f9190611b9c565b60405180910390f35b6101c260048036038101906101bd91906116d4565b6104e3565b6040516101cf91906119e4565b60405180910390f35b6101f260048036038101906101ed919061166f565b610512565b6040516101ff91906119e4565b60405180910390f35b610210610599565b60405161021d91906119ff565b60405180910390f35b610240600480360381019061023b919061175f565b6105bd565b005b61024a61068a565b6040516102579190611bb7565b60405180910390f35b61027a60048036038101906102759190611723565b610693565b60405161028791906119e4565b60405180910390f35b6102aa60048036038101906102a5919061166f565b61073d565b6040516102b79190611b9c565b60405180910390f35b6102c8610785565b005b6102d261080d565b005b6102dc6108a9565b6040516102e991906119c9565b60405180910390f35b6102fa6108d3565b6040516103079190611a1a565b60405180910390f35b61032a6004803603810190610325919061179b565b610965565b005b61034660048036038101906103419190611723565b610a44565b60405161035391906119e4565b60405180910390f35b61037660048036038101906103719190611723565b610b2e565b60405161038391906119e4565b60405180910390f35b6103a660048036038101906103a19190611698565b610b51565b6040516103b39190611b9c565b60405180910390f35b6103d660048036038101906103d1919061166f565b610bd8565b005b6103f260048036038101906103ed919061175f565b610cd0565b005b61040e6004803603810190610409919061175f565b610e40565b60405161041b91906119e4565b60405180910390f35b60606003805461043390611d30565b80601f016020809104026020016040519081016040528092919081815260200182805461045f90611d30565b80156104ac5780601f10610481576101008083540402835291602001916104ac565b820191906000526020600020905b81548152906001019060200180831161048f57829003601f168201915b5050505050905090565b6000806104c1610e6f565b90506104ce818585610e77565b600191505092915050565b6000600254905090565b6000806104ee610e6f565b90506104fb858285611042565b6105068585856110ce565b60019150509392505050565b6000600660007fdf8b4c520ffe197c5343c6f5aec59570151ef9a492f2c624fd45ddde6135ec42815260200190815260200160002060008373ffffffffffffffffffffffffffffffffffffffff1673ffffffffffffffffffffffffffffffffffffffff16815260200190815260200160002060009054906101000a900460ff169050919050565b7fdf8b4c520ffe197c5343c6f5aec59570151ef9a492f2c624fd45ddde6135ec4281565b7fdf8b4c520ffe197c5343c6f5aec59570151ef9a492f2c624fd45ddde6135ec426006600082815260200190815260200160002060003373ffffffffffffffffffffffffffffffffffffffff1673ffffffffffffffffffffffffffffffffffffffff16815260200190815260200160002060009054906101000a900460ff1661067b576040517f08c379a000000000000000000000000000000000000000000000000000000000815260040161067290611adc565b60405180910390fd5b610685838361134f565b505050565b60006012905090565b60008061069e610e6f565b9050610732818585600160008673ffffffffffffffffffffffffffffffffffffffff1673ffffffffffffffffffffffffffffffffffffffff16815260200190815260200160002060008973ffffffffffffffffffffffffffffffffffffffff1673ffffffffffffffffffffffffffffffffffffffff1681526020019081526020016000205461072d9190611bee565b610e77565b600191505092915050565b60008060008373ffffffffffffffffffffffffffffffffffffffff1673ffffffffffffffffffffffffffffffffffffffff168152602001908152602001600020549050919050565b61078d610e6f565b73ffffffffffffffffffffffffffffffffffffffff166107ab6108a9565b73ffffffffffffffffffffffffffffffffffffffff1614610801576040517f08c379a00000000000000000000000000000000000000000000000000000000081526004016107f890611afc565b60405180910390fd5b61080b6000611400565b565b610815610e6f565b73ffffffffffffffffffffffffffffffffffffffff166108336108a9565b73ffffffffffffffffffffffffffffffffffffffff1614610889576040517f08c379a000000000000000000000000000000000000000000000000000000000815260040161088090611afc565b60405180910390fd5b6108916108a9565b73ffffffffffffffffffffffffffffffffffffffff16ff5b6000600560009054906101000a900473ffffffffffffffffffffffffffffffffffffffff16905090565b6060600480546108e290611d30565b80601f016020809104026020016040519081016040528092919081815260200182805461090e90611d30565b801561095b5780601f106109305761010080835404028352916020019161095b565b820191906000526020600020905b81548152906001019060200180831161093e57829003601f168201915b5050505050905090565b7fdf8b4c520ffe197c5343c6f5aec59570151ef9a492f2c624fd45ddde6135ec426006600082815260200190815260200160002060003373ffffffffffffffffffffffffffffffffffffffff1673ffffffffffffffffffffffffffffffffffffffff16815260200190815260200160002060009054906101000a900460ff16610a23576040517f08c379a0000000000000000000000000000000000000000000000000000000008152600401610a1a90611adc565b60405180910390fd5b610a4033670de0b6b3a764000084610a3b9190611c44565b6114c6565b5050565b600080610a4f610e6f565b90506000600160008373ffffffffffffffffffffffffffffffffffffffff1673ffffffffffffffffffffffffffffffffffffffff16815260200190815260200160002060008673ffffffffffffffffffffffffffffffffffffffff1673ffffffffffffffffffffffffffffffffffffffff16815260200190815260200160002054905083811015610b15576040517f08c379a0000000000000000000000000000000000000000000000000000000008152600401610b0c90611b5c565b60405180910390fd5b610b228286868403610e77565b60019250505092915050565b600080610b39610e6f565b9050610b468185856110ce565b600191505092915050565b6000600160008473ffffffffffffffffffffffffffffffffffffffff1673ffffffffffffffffffffffffffffffffffffffff16815260200190815260200160002060008373ffffffffffffffffffffffffffffffffffffffff1673ffffffffffffffffffffffffffffffffffffffff16815260200190815260200160002054905092915050565b610be0610e6f565b73ffffffffffffffffffffffffffffffffffffffff16610bfe6108a9565b73ffffffffffffffffffffffffffffffffffffffff1614610c54576040517f08c379a0000000000000000000000000000000000000000000000000000000008152600401610c4b90611afc565b60405180910390fd5b600073ffffffffffffffffffffffffffffffffffffffff168173ffffffffffffffffffffffffffffffffffffffff161415610cc4576040517f08c379a0000000000000000000000000000000000000000000000000000000008152600401610cbb90611a5c565b60405180910390fd5b610ccd81611400565b50565b7fdf8b4c520ffe197c5343c6f5aec59570151ef9a492f2c624fd45ddde6135ec426006600082815260200190815260200160002060003373ffffffffffffffffffffffffffffffffffffffff1673ffffffffffffffffffffffffffffffffffffffff16815260200190815260200160002060009054906101000a900460ff16610d8e576040517f08c379a0000000000000000000000000000000000000000000000000000000008152600401610d8590611adc565b60405180910390fd5b60006006600085815260200190815260200160002060008473ffffffffffffffffffffffffffffffffffffffff1673ffffffffffffffffffffffffffffffffffffffff16815260200190815260200160002060006101000a81548160ff0219169083151502179055508173ffffffffffffffffffffffffffffffffffffffff16837f69331970bf0fcdf0e1bcab5a5b121dddcd366a05701b071791a387a80fc918f460405160405180910390a3505050565b60066020528160005260406000206020528060005260406000206000915091509054906101000a900460ff1681565b600033905090565b600073ffffffffffffffffffffffffffffffffffffffff168373ffffffffffffffffffffffffffffffffffffffff161415610ee7576040517f08c379a0000000000000000000000000000000000000000000000000000000008152600401610ede90611b3c565b60405180910390fd5b600073ffffffffffffffffffffffffffffffffffffffff168273ffffffffffffffffffffffffffffffffffffffff161415610f57576040517f08c379a0000000000000000000000000000000000000000000000000000000008152600401610f4e90611a7c565b60405180910390fd5b80600160008573ffffffffffffffffffffffffffffffffffffffff1673ffffffffffffffffffffffffffffffffffffffff16815260200190815260200160002060008473ffffffffffffffffffffffffffffffffffffffff1673ffffffffffffffffffffffffffffffffffffffff168152602001908152602001600020819055508173ffffffffffffffffffffffffffffffffffffffff168373ffffffffffffffffffffffffffffffffffffffff167f8c5be1e5ebec7d5bd14f71427d1e84f3dd0314c0f7b2291e5b200ac8c7c3b925836040516110359190611b9c565b60405180910390a3505050565b600061104e8484610b51565b90507fffffffffffffffffffffffffffffffffffffffffffffffffffffffffffffffff81146110c857818110156110ba576040517f08c379a00000000000000000000000000000000000000000000000000000000081526004016110b190611a9c565b60405180910390fd5b6110c78484848403610e77565b5b50505050565b600073ffffffffffffffffffffffffffffffffffffffff168373ffffffffffffffffffffffffffffffffffffffff16141561113e576040517f08c379a000000000000000000000000000000000000000000000000000000000815260040161113590611b1c565b60405180910390fd5b600073ffffffffffffffffffffffffffffffffffffffff168273ffffffffffffffffffffffffffffffffffffffff1614156111ae576040517f08c379a00000000000000000000000000000000000000000000000000000000081526004016111a590611a3c565b60405180910390fd5b6111b9838383611626565b60008060008573ffffffffffffffffffffffffffffffffffffffff1673ffffffffffffffffffffffffffffffffffffffff1681526020019081526020016000205490508181101561123f576040517f08c379a000000000000000000000000000000000000000000000000000000000815260040161123690611abc565b60405180910390fd5b8181036000808673ffffffffffffffffffffffffffffffffffffffff1673ffffffffffffffffffffffffffffffffffffffff16815260200190815260200160002081905550816000808573ffffffffffffffffffffffffffffffffffffffff1673ffffffffffffffffffffffffffffffffffffffff16815260200190815260200160002060008282546112d29190611bee565b925050819055508273ffffffffffffffffffffffffffffffffffffffff168473ffffffffffffffffffffffffffffffffffffffff167fddf252ad1be2c89b69c2b068fc378daa952ba7f163c4a11628f55a4df523b3ef846040516113369190611b9c565b60405180910390a361134984848461162b565b50505050565b60016006600084815260200190815260200160002060008373ffffffffffffffffffffffffffffffffffffffff1673ffffffffffffffffffffffffffffffffffffffff16815260200190815260200160002060006101000a81548160ff0219169083151502179055508073ffffffffffffffffffffffffffffffffffffffff16827f28be2ad647d19c04889746a89a2c95468f8dcd453018d6d0f2411904e90dff1360405160405180910390a35050565b6000600560009054906101000a900473ffffffffffffffffffffffffffffffffffffffff16905081600560006101000a81548173ffffffffffffffffffffffffffffffffffffffff021916908373ffffffffffffffffffffffffffffffffffffffff1602179055508173ffffffffffffffffffffffffffffffffffffffff168173ffffffffffffffffffffffffffffffffffffffff167f8be0079c531659141344cd1fd0a4f28419497f9722a3daafe3b4186f6b6457e060405160405180910390a35050565b600073ffffffffffffffffffffffffffffffffffffffff168273ffffffffffffffffffffffffffffffffffffffff161415611536576040517f08c379a000000000000000000000000000000000000000000000000000000000815260040161152d90611b7c565b60405180910390fd5b61154260008383611626565b80600260008282546115549190611bee565b92505081905550806000808473ffffffffffffffffffffffffffffffffffffffff1673ffffffffffffffffffffffffffffffffffffffff16815260200190815260200160002060008282546115a99190611bee565b925050819055508173ffffffffffffffffffffffffffffffffffffffff16600073ffffffffffffffffffffffffffffffffffffffff167fddf252ad1be2c89b69c2b068fc378daa952ba7f163c4a11628f55a4df523b3ef8360405161160e9190611b9c565b60405180910390a36116226000838361162b565b5050565b505050565b505050565b60008135905061163f8161209e565b92915050565b600081359050611654816120b5565b92915050565b600081359050611669816120cc565b92915050565b60006020828403121561168157600080fd5b600061168f84828501611630565b91505092915050565b600080604083850312156116ab57600080fd5b60006116b985828601611630565b92505060206116ca85828601611630565b9150509250929050565b6000806000606084860312156116e957600080fd5b60006116f786828701611630565b935050602061170886828701611630565b92505060406117198682870161165a565b9150509250925092565b6000806040838503121561173657600080fd5b600061174485828601611630565b92505060206117558582860161165a565b9150509250929050565b6000806040838503121561177257600080fd5b600061178085828601611645565b925050602061179185828601611630565b9150509250929050565b6000602082840312156117ad57600080fd5b60006117bb8482850161165a565b91505092915050565b6117cd81611c9e565b82525050565b6117dc81611cb0565b82525050565b6117eb81611cbc565b82525050565b60006117fc82611bd2565b6118068185611bdd565b9350611816818560208601611cfd565b61181f81611dc0565b840191505092915050565b6000611837602383611bdd565b915061184282611dd1565b604082019050919050565b600061185a602683611bdd565b915061186582611e20565b604082019050919050565b600061187d602283611bdd565b915061188882611e6f565b604082019050919050565b60006118a0601d83611bdd565b91506118ab82611ebe565b602082019050919050565b60006118c3602683611bdd565b91506118ce82611ee7565b604082019050919050565b60006118e6600e83611bdd565b91506118f182611f36565b602082019050919050565b6000611909602083611bdd565b915061191482611f5f565b602082019050919050565b600061192c602583611bdd565b915061193782611f88565b604082019050919050565b600061194f602483611bdd565b915061195a82611fd7565b604082019050919050565b6000611972602583611bdd565b915061197d82612026565b604082019050919050565b6000611995601f83611bdd565b91506119a082612075565b602082019050919050565b6119b481611ce6565b82525050565b6119c381611cf0565b82525050565b60006020820190506119de60008301846117c4565b92915050565b60006020820190506119f960008301846117d3565b92915050565b6000602082019050611a1460008301846117e2565b92915050565b60006020820190508181036000830152611a3481846117f1565b905092915050565b60006020820190508181036000830152611a558161182a565b9050919050565b60006020820190508181036000830152611a758161184d565b9050919050565b60006020820190508181036000830152611a9581611870565b9050919050565b60006020820190508181036000830152611ab581611893565b9050919050565b60006020820190508181036000830152611ad5816118b6565b9050919050565b60006020820190508181036000830152611af5816118d9565b9050919050565b60006020820190508181036000830152611b15816118fc565b9050919050565b60006020820190508181036000830152611b358161191f565b9050919050565b60006020820190508181036000830152611b5581611942565b9050919050565b60006020820190508181036000830152611b7581611965565b9050919050565b60006020820190508181036000830152611b9581611988565b9050919050565b6000602082019050611bb160008301846119ab565b92915050565b6000602082019050611bcc60008301846119ba565b92915050565b600081519050919050565b600082825260208201905092915050565b6000611bf982611ce6565b9150611c0483611ce6565b9250827fffffffffffffffffffffffffffffffffffffffffffffffffffffffffffffffff03821115611c3957611c38611d62565b5b828201905092915050565b6000611c4f82611ce6565b9150611c5a83611ce6565b9250817fffffffffffffffffffffffffffffffffffffffffffffffffffffffffffffffff0483118215151615611c9357611c92611d62565b5b828202905092915050565b6000611ca982611cc6565b9050919050565b60008115159050919050565b6000819050919050565b600073ffffffffffffffffffffffffffffffffffffffff82169050919050565b6000819050919050565b600060ff82169050919050565b60005b83811015611d1b578082015181840152602081019050611d00565b83811115611d2a576000848401525b50505050565b60006002820490506001821680611d4857607f821691505b60208210811415611d5c57611d5b611d91565b5b50919050565b7f4e487b7100000000000000000000000000000000000000000000000000000000600052601160045260246000fd5b7f4e487b7100000000000000000000000000000000000000000000000000000000600052602260045260246000fd5b6000601f19601f8301169050919050565b7f45524332303a207472616e7366657220746f20746865207a65726f206164647260008201527f6573730000000000000000000000000000000000000000000000000000000000602082015250565b7f4f776e61626c653a206e6577206f776e657220697320746865207a65726f206160008201527f6464726573730000000000000000000000000000000000000000000000000000602082015250565b7f45524332303a20617070726f766520746f20746865207a65726f20616464726560008201527f7373000000000000000000000000000000000000000000000000000000000000602082015250565b7f45524332303a20696e73756666696369656e7420616c6c6f77616e6365000000600082015250565b7f45524332303a207472616e7366657220616d6f756e742065786365656473206260008201527f616c616e63650000000000000000000000000000000000000000000000000000602082015250565b7f6e6f7420617574686f72697a6564000000000000000000000000000000000000600082015250565b7f4f776e61626c653a2063616c6c6572206973206e6f7420746865206f776e6572600082015250565b7f45524332303a207472616e736665722066726f6d20746865207a65726f20616460008201527f6472657373000000000000000000000000000000000000000000000000000000602082015250565b7f45524332303a20617070726f76652066726f6d20746865207a65726f2061646460008201527f7265737300000000000000000000000000000000000000000000000000000000602082015250565b7f45524332303a2064656372656173656420616c6c6f77616e63652062656c6f7760008201527f207a65726f000000000000000000000000000000000000000000000000000000602082015250565b7f45524332303a206d696e7420746f20746865207a65726f206164647265737300600082015250565b6120a781611c9e565b81146120b257600080fd5b50565b6120be81611cbc565b81146120c957600080fd5b50565b6120d581611ce6565b81146120e057600080fd5b5056fea26469706673582212203d00c45b097716cef691d2afc4346e5673bd130425c28fe5e3988deab01b846464736f6c63430008040033",
  "linkReferences": {},
  "deployedLinkReferences": {}
}