{
  "_format": "hh-sol-artifact-1",
  "contractName": "MultiTransferTokenEqual",
  "sourceName": "contracts/MultiTransferTokenEqual.sol",
  "abi": [
    {
      "anonymous": false,
      "inputs": [
        {
          "indexed": true,
          "internalType": "address",
          "name": "previousOwner",
          "type": "address"
        },
        {
          "indexed": true,
          "internalType": "address",
          "name": "newOwner",
          "type": "address"
        }
      ],
      "name": "OwnershipTransferred",
      "type": "event"
    },
    {
      "anonymous": false,
      "inputs": [
        {
          "indexed": false,
          "internalType": "address",
          "name": "account",
          "type": "address"
        }
      ],
      "name": "Paused",
      "type": "event"
    },
    {
      "anonymous": false,
      "inputs": [
        {
          "indexed": false,
          "internalType": "address",
          "name": "_sender",
          "type": "address"
        },
        {
          "indexed": false,
          "internalType": "uint256",
          "name": "_amount",
          "type": "uint256"
        }
      ],
      "name": "Recieved",
      "type": "event"
    },
    {
      "anonymous": false,
      "inputs": [
        {
          "indexed": false,
          "internalType": "address",
          "name": "account",
          "type": "address"
        }
      ],
      "name": "Unpaused",
      "type": "event"
    },
    {
      "anonymous": false,
      "inputs": [
        {
          "indexed": false,
          "internalType": "address",
          "name": "_reciever",
          "type": "address"
        },
        {
          "indexed": false,
          "internalType": "uint256",
          "name": "_amount",
          "type": "uint256"
        }
      ],
      "name": "WithdrawEther",
      "type": "event"
    },
    {
      "stateMutability": "payable",
      "type": "fallback"
    },
    {
      "inputs": [
        {
          "internalType": "address",
          "name": "_token",
          "type": "address"
        },
        {
          "internalType": "address[]",
          "name": "_addresses",
          "type": "address[]"
        },
        {
          "internalType": "uint256",
          "name": "_amount",
          "type": "uint256"
        }
      ],
      "name": "multiSend",
      "outputs": [],
      "stateMutability": "payable",
      "type": "function"
    },
    {
      "inputs": [],
      "name": "owner",
      "outputs": [
        {
          "internalType": "address",
          "name": "",
          "type": "address"
        }
      ],
      "stateMutability": "view",
      "type": "function"
    },
    {
      "inputs": [],
      "name": "pause",
      "outputs": [],
      "stateMutability": "nonpayable",
      "type": "function"
    },
    {
      "inputs": [],
      "name": "paused",
      "outputs": [
        {
          "internalType": "bool",
          "name": "",
          "type": "bool"
        }
      ],
      "stateMutability": "view",
      "type": "function"
    },
    {
      "inputs": [],
      "name": "renounceOwnership",
      "outputs": [],
      "stateMutability": "nonpayable",
      "type": "function"
    },
    {
      "inputs": [
        {
          "internalType": "address",
          "name": "newOwner",
          "type": "address"
        }
      ],
      "name": "transferOwnership",
      "outputs": [],
      "stateMutability": "nonpayable",
      "type": "function"
    },
    {
      "inputs": [],
      "name": "unpause",
      "outputs": [],
      "stateMutability": "nonpayable",
      "type": "function"
    },
    {
      "inputs": [],
      "name": "withdrawEther",
      "outputs": [],
      "stateMutability": "payable",
      "type": "function"
    },
    {
      "stateMutability": "payable",
      "type": "receive"
    }
  ],
  "bytecode": "0x608060405234801561001057600080fd5b5061002d61002261004c60201b60201c565b61005460201b60201c565b60008060146101000a81548160ff021916908315150217905550610118565b600033905090565b60008060009054906101000a900473ffffffffffffffffffffffffffffffffffffffff169050816000806101000a81548173ffffffffffffffffffffffffffffffffffffffff021916908373ffffffffffffffffffffffffffffffffffffffff1602179055508173ffffffffffffffffffffffffffffffffffffffff168173ffffffffffffffffffffffffffffffffffffffff167f8be0079c531659141344cd1fd0a4f28419497f9722a3daafe3b4186f6b6457e060405160405180910390a35050565b6117bc806101276000396000f3fe60806040526004361061007f5760003560e01c80637362377b1161004e5780637362377b146101465780638456cb59146101505780638da5cb5b14610167578063f2fde38b14610192576100bf565b80633f4ba83a146100d15780635b2a0e96146100e85780635c975abb14610104578063715018a61461012f576100bf565b366100bf577fe03f2fbffd55aceaa08b8e27b348ae6b7607e8a520dfe6a92b053c2ce0ac850a33346040516100b59291906111e8565b60405180910390a1005b600080369050146100cf57600080fd5b005b3480156100dd57600080fd5b506100e66101bb565b005b61010260048036038101906100fd9190610e94565b610241565b005b34801561011057600080fd5b50610119610488565b6040516101269190611211565b60405180910390f35b34801561013b57600080fd5b5061014461049e565b005b61014e610526565b005b34801561015c57600080fd5b5061016561068a565b005b34801561017357600080fd5b5061017c610710565b6040516101899190611196565b60405180910390f35b34801561019e57600080fd5b506101b960048036038101906101b49190610e6b565b610739565b005b6101c3610831565b73ffffffffffffffffffffffffffffffffffffffff166101e1610710565b73ffffffffffffffffffffffffffffffffffffffff1614610237576040517f08c379a000000000000000000000000000000000000000000000000000000000815260040161022e906112ee565b60405180910390fd5b61023f610839565b565b610249610488565b15610289576040517f08c379a0000000000000000000000000000000000000000000000000000000008152600401610280906112ce565b60405180910390fd5b60c88383905011156102d0576040517f08c379a00000000000000000000000000000000000000000000000000000000081526004016102c79061136e565b60405180910390fd5b600083839050826102e191906113c0565b90506000859050818173ffffffffffffffffffffffffffffffffffffffff166370a08231336040518263ffffffff1660e01b81526004016103229190611196565b60206040518083038186803b15801561033a57600080fd5b505afa15801561034e573d6000803e3d6000fd5b505050506040513d601f19601f820116820180604052508101906103729190610f29565b10156103b3576040517f08c379a00000000000000000000000000000000000000000000000000000000081526004016103aa9061130e565b60405180910390fd5b6103e03330848473ffffffffffffffffffffffffffffffffffffffff166108da909392919063ffffffff16565b60005b858590508160ff16101561047f5761046c86868360ff16818110610430577f4e487b7100000000000000000000000000000000000000000000000000000000600052603260045260246000fd5b90506020020160208101906104459190610e6b565b858473ffffffffffffffffffffffffffffffffffffffff166109639092919063ffffffff16565b8080610477906114a2565b9150506103e3565b50505050505050565b60008060149054906101000a900460ff16905090565b6104a6610831565b73ffffffffffffffffffffffffffffffffffffffff166104c4610710565b73ffffffffffffffffffffffffffffffffffffffff161461051a576040517f08c379a0000000000000000000000000000000000000000000000000000000008152600401610511906112ee565b60405180910390fd5b61052460006109e9565b565b61052e610831565b73ffffffffffffffffffffffffffffffffffffffff1661054c610710565b73ffffffffffffffffffffffffffffffffffffffff16146105a2576040517f08c379a0000000000000000000000000000000000000000000000000000000008152600401610599906112ee565b60405180910390fd5b60003373ffffffffffffffffffffffffffffffffffffffff16476040516105c890611181565b60006040518083038185875af1925050503d8060008114610605576040519150601f19603f3d011682016040523d82523d6000602084013e61060a565b606091505b505090508061064e576040517f08c379a00000000000000000000000000000000000000000000000000000000081526004016106459061128e565b60405180910390fd5b7fdb35132c111efe920cede025e819975671cfd1b8fcc1174762c8670c4e94c211334760405161067f9291906111e8565b60405180910390a150565b610692610831565b73ffffffffffffffffffffffffffffffffffffffff166106b0610710565b73ffffffffffffffffffffffffffffffffffffffff1614610706576040517f08c379a00000000000000000000000000000000000000000000000000000000081526004016106fd906112ee565b60405180910390fd5b61070e610aad565b565b60008060009054906101000a900473ffffffffffffffffffffffffffffffffffffffff16905090565b610741610831565b73ffffffffffffffffffffffffffffffffffffffff1661075f610710565b73ffffffffffffffffffffffffffffffffffffffff16146107b5576040517f08c379a00000000000000000000000000000000000000000000000000000000081526004016107ac906112ee565b60405180910390fd5b600073ffffffffffffffffffffffffffffffffffffffff168173ffffffffffffffffffffffffffffffffffffffff161415610825576040517f08c379a000000000000000000000000000000000000000000000000000000000815260040161081c9061126e565b60405180910390fd5b61082e816109e9565b50565b600033905090565b610841610488565b610880576040517f08c379a00000000000000000000000000000000000000000000000000000000081526004016108779061124e565b60405180910390fd5b60008060146101000a81548160ff0219169083151502179055507f5db9ee0a495bf2e6ff9c91a7834c1ba4fdd244a5e8aa4e537bd38aeae4b073aa6108c3610831565b6040516108d09190611196565b60405180910390a1565b61095d846323b872dd60e01b8585856040516024016108fb939291906111b1565b604051602081830303815290604052907bffffffffffffffffffffffffffffffffffffffffffffffffffffffff19166020820180517bffffffffffffffffffffffffffffffffffffffffffffffffffffffff8381831617835250505050610b50565b50505050565b6109e48363a9059cbb60e01b84846040516024016109829291906111e8565b604051602081830303815290604052907bffffffffffffffffffffffffffffffffffffffffffffffffffffffff19166020820180517bffffffffffffffffffffffffffffffffffffffffffffffffffffffff8381831617835250505050610b50565b505050565b60008060009054906101000a900473ffffffffffffffffffffffffffffffffffffffff169050816000806101000a81548173ffffffffffffffffffffffffffffffffffffffff021916908373ffffffffffffffffffffffffffffffffffffffff1602179055508173ffffffffffffffffffffffffffffffffffffffff168173ffffffffffffffffffffffffffffffffffffffff167f8be0079c531659141344cd1fd0a4f28419497f9722a3daafe3b4186f6b6457e060405160405180910390a35050565b610ab5610488565b15610af5576040517f08c379a0000000000000000000000000000000000000000000000000000000008152600401610aec906112ce565b60405180910390fd5b6001600060146101000a81548160ff0219169083151502179055507f62e78cea01bee320cd4e420270b5ea74000d11b0c9f74754ebdbfc544b05a258610b39610831565b604051610b469190611196565b60405180910390a1565b6000610bb2826040518060400160405280602081526020017f5361666545524332303a206c6f772d6c6576656c2063616c6c206661696c65648152508573ffffffffffffffffffffffffffffffffffffffff16610c179092919063ffffffff16565b9050600081511115610c125780806020019051810190610bd29190610f00565b610c11576040517f08c379a0000000000000000000000000000000000000000000000000000000008152600401610c089061134e565b60405180910390fd5b5b505050565b6060610c268484600085610c2f565b90509392505050565b606082471015610c74576040517f08c379a0000000000000000000000000000000000000000000000000000000008152600401610c6b906112ae565b60405180910390fd5b610c7d85610d43565b610cbc576040517f08c379a0000000000000000000000000000000000000000000000000000000008152600401610cb39061132e565b60405180910390fd5b6000808673ffffffffffffffffffffffffffffffffffffffff168587604051610ce5919061116a565b60006040518083038185875af1925050503d8060008114610d22576040519150601f19603f3d011682016040523d82523d6000602084013e610d27565b606091505b5091509150610d37828286610d66565b92505050949350505050565b6000808273ffffffffffffffffffffffffffffffffffffffff163b119050919050565b60608315610d7657829050610dc6565b600083511115610d895782518084602001fd5b816040517f08c379a0000000000000000000000000000000000000000000000000000000008152600401610dbd919061122c565b60405180910390fd5b9392505050565b600081359050610ddc81611741565b92915050565b60008083601f840112610df457600080fd5b8235905067ffffffffffffffff811115610e0d57600080fd5b602083019150836020820283011115610e2557600080fd5b9250929050565b600081519050610e3b81611758565b92915050565b600081359050610e508161176f565b92915050565b600081519050610e658161176f565b92915050565b600060208284031215610e7d57600080fd5b6000610e8b84828501610dcd565b91505092915050565b60008060008060608587031215610eaa57600080fd5b6000610eb887828801610dcd565b945050602085013567ffffffffffffffff811115610ed557600080fd5b610ee187828801610de2565b93509350506040610ef487828801610e41565b91505092959194509250565b600060208284031215610f1257600080fd5b6000610f2084828501610e2c565b91505092915050565b600060208284031215610f3b57600080fd5b6000610f4984828501610e56565b91505092915050565b610f5b8161141a565b82525050565b610f6a8161142c565b82525050565b6000610f7b8261138e565b610f8581856113a4565b9350610f9581856020860161146f565b80840191505092915050565b6000610fac82611399565b610fb681856113af565b9350610fc681856020860161146f565b610fcf816114fb565b840191505092915050565b6000610fe76014836113af565b9150610ff28261150c565b602082019050919050565b600061100a6026836113af565b915061101582611535565b604082019050919050565b600061102d6014836113af565b915061103882611584565b602082019050919050565b60006110506026836113af565b915061105b826115ad565b604082019050919050565b60006110736010836113af565b915061107e826115fc565b602082019050919050565b60006110966020836113af565b91506110a182611625565b602082019050919050565b60006110b9602e836113af565b91506110c48261164e565b604082019050919050565b60006110dc6000836113a4565b91506110e78261169d565b600082019050919050565b60006110ff601d836113af565b915061110a826116a0565b602082019050919050565b6000611122602a836113af565b915061112d826116c9565b604082019050919050565b60006111456014836113af565b915061115082611718565b602082019050919050565b61116481611458565b82525050565b60006111768284610f70565b915081905092915050565b600061118c826110cf565b9150819050919050565b60006020820190506111ab6000830184610f52565b92915050565b60006060820190506111c66000830186610f52565b6111d36020830185610f52565b6111e0604083018461115b565b949350505050565b60006040820190506111fd6000830185610f52565b61120a602083018461115b565b9392505050565b60006020820190506112266000830184610f61565b92915050565b600060208201905081810360008301526112468184610fa1565b905092915050565b6000602082019050818103600083015261126781610fda565b9050919050565b6000602082019050818103600083015261128781610ffd565b9050919050565b600060208201905081810360008301526112a781611020565b9050919050565b600060208201905081810360008301526112c781611043565b9050919050565b600060208201905081810360008301526112e781611066565b9050919050565b6000602082019050818103600083015261130781611089565b9050919050565b60006020820190508181036000830152611327816110ac565b9050919050565b60006020820190508181036000830152611347816110f2565b9050919050565b6000602082019050818103600083015261136781611115565b9050919050565b6000602082019050818103600083015261138781611138565b9050919050565b600081519050919050565b600081519050919050565b600081905092915050565b600082825260208201905092915050565b60006113cb82611458565b91506113d683611458565b9250817fffffffffffffffffffffffffffffffffffffffffffffffffffffffffffffffff048311821515161561140f5761140e6114cc565b5b828202905092915050565b600061142582611438565b9050919050565b60008115159050919050565b600073ffffffffffffffffffffffffffffffffffffffff82169050919050565b6000819050919050565b600060ff82169050919050565b60005b8381101561148d578082015181840152602081019050611472565b8381111561149c576000848401525b50505050565b60006114ad82611462565b915060ff8214156114c1576114c06114cc565b5b600182019050919050565b7f4e487b7100000000000000000000000000000000000000000000000000000000600052601160045260246000fd5b6000601f19601f8301169050919050565b7f5061757361626c653a206e6f7420706175736564000000000000000000000000600082015250565b7f4f776e61626c653a206e6577206f776e657220697320746865207a65726f206160008201527f6464726573730000000000000000000000000000000000000000000000000000602082015250565b7f4661696c656420746f2073656e64204574686572000000000000000000000000600082015250565b7f416464726573733a20696e73756666696369656e742062616c616e636520666f60008201527f722063616c6c0000000000000000000000000000000000000000000000000000602082015250565b7f5061757361626c653a2070617573656400000000000000000000000000000000600082015250565b7f4f776e61626c653a2063616c6c6572206973206e6f7420746865206f776e6572600082015250565b7f546f6b656e2042616c616e6365206973204c6f772c206d696e74206d6f72652060008201527f746f6b656e7320746f2073656e64000000000000000000000000000000000000602082015250565b50565b7f416464726573733a2063616c6c20746f206e6f6e2d636f6e7472616374000000600082015250565b7f5361666545524332303a204552433230206f7065726174696f6e20646964206e60008201527f6f74207375636365656400000000000000000000000000000000000000000000602082015250565b7f4d6178206f662032303020616464726573736573000000000000000000000000600082015250565b61174a8161141a565b811461175557600080fd5b50565b6117618161142c565b811461176c57600080fd5b50565b61177881611458565b811461178357600080fd5b5056fea2646970667358221220e2be1031bb779fa32910f2627178471b46896cb26ce9196a8ca552e5a1956e1364736f6c63430008040033",
  "linkReferences": {},
  "deployedLinkReferences": {}
}