{
  "_format": "hh-sol-artifact-1",
  "contractName": "MultiTransferTokenEqual",
  "sourceName": "contracts/MultiTransferTokenEqual.sol",
  "abi": [
    {
      "anonymous": false,
      "inputs": [
        {
          "indexed": true,
          "internalType": "address",
          "name": "previousOwner",
          "type": "address"
        },
        {
          "indexed": true,
          "internalType": "address",
          "name": "newOwner",
          "type": "address"
        }
      ],
      "name": "OwnershipTransferred",
      "type": "event"
    },
    {
      "anonymous": false,
      "inputs": [
        {
          "indexed": false,
          "internalType": "address",
          "name": "account",
          "type": "address"
        }
      ],
      "name": "Paused",
      "type": "event"
    },
    {
      "anonymous": false,
      "inputs": [
        {
          "indexed": false,
          "internalType": "address",
          "name": "_sender",
          "type": "address"
        },
        {
          "indexed": false,
          "internalType": "uint256",
          "name": "_amount",
          "type": "uint256"
        }
      ],
      "name": "Recieved",
      "type": "event"
    },
    {
      "anonymous": false,
      "inputs": [
        {
          "indexed": false,
          "internalType": "address",
          "name": "account",
          "type": "address"
        }
      ],
      "name": "Unpaused",
      "type": "event"
    },
    {
      "anonymous": false,
      "inputs": [
        {
          "indexed": false,
          "internalType": "address",
          "name": "_reciever",
          "type": "address"
        },
        {
          "indexed": false,
          "internalType": "uint256",
          "name": "_amount",
          "type": "uint256"
        }
      ],
      "name": "WithdrawEther",
      "type": "event"
    },
    {
      "stateMutability": "payable",
      "type": "fallback"
    },
    {
      "inputs": [
        {
          "internalType": "address",
          "name": "_token",
          "type": "address"
        },
        {
          "internalType": "address[]",
          "name": "_addresses",
          "type": "address[]"
        },
        {
          "internalType": "uint256",
          "name": "_amount",
          "type": "uint256"
        }
      ],
      "name": "multiSend",
      "outputs": [],
      "stateMutability": "payable",
      "type": "function"
    },
    {
      "inputs": [],
      "name": "owner",
      "outputs": [
        {
          "internalType": "address",
          "name": "",
          "type": "address"
        }
      ],
      "stateMutability": "view",
      "type": "function"
    },
    {
      "inputs": [],
      "name": "pause",
      "outputs": [],
      "stateMutability": "nonpayable",
      "type": "function"
    },
    {
      "inputs": [],
      "name": "paused",
      "outputs": [
        {
          "internalType": "bool",
          "name": "",
          "type": "bool"
        }
      ],
      "stateMutability": "view",
      "type": "function"
    },
    {
      "inputs": [],
      "name": "renounceOwnership",
      "outputs": [],
      "stateMutability": "nonpayable",
      "type": "function"
    },
    {
      "inputs": [
        {
          "internalType": "address",
          "name": "newOwner",
          "type": "address"
        }
      ],
      "name": "transferOwnership",
      "outputs": [],
      "stateMutability": "nonpayable",
      "type": "function"
    },
    {
      "inputs": [],
      "name": "unpause",
      "outputs": [],
      "stateMutability": "nonpayable",
      "type": "function"
    },
    {
      "inputs": [],
      "name": "withdrawEther",
      "outputs": [],
      "stateMutability": "payable",
      "type": "function"
    },
    {
      "stateMutability": "payable",
      "type": "receive"
    }
  ],
  "bytecode": "0x608060405234801561001057600080fd5b5061002d61002261004c60201b60201c565b61005460201b60201c565b60008060146101000a81548160ff021916908315150217905550610118565b600033905090565b60008060009054906101000a900473ffffffffffffffffffffffffffffffffffffffff169050816000806101000a81548173ffffffffffffffffffffffffffffffffffffffff021916908373ffffffffffffffffffffffffffffffffffffffff1602179055508173ffffffffffffffffffffffffffffffffffffffff168173ffffffffffffffffffffffffffffffffffffffff167f8be0079c531659141344cd1fd0a4f28419497f9722a3daafe3b4186f6b6457e060405160405180910390a35050565b6117e2806101276000396000f3fe60806040526004361061007f5760003560e01c80637362377b1161004e5780637362377b146101465780638456cb59146101505780638da5cb5b14610167578063f2fde38b14610192576100bf565b80633f4ba83a146100d15780635b2a0e96146100e85780635c975abb14610104578063715018a61461012f576100bf565b366100bf577fe03f2fbffd55aceaa08b8e27b348ae6b7607e8a520dfe6a92b053c2ce0ac850a33346040516100b592919061120e565b60405180910390a1005b600080369050146100cf57600080fd5b005b3480156100dd57600080fd5b506100e66101bb565b005b61010260048036038101906100fd9190610eba565b610241565b005b34801561011057600080fd5b506101196104ae565b6040516101269190611237565b60405180910390f35b34801561013b57600080fd5b506101446104c4565b005b61014e61054c565b005b34801561015c57600080fd5b506101656106b0565b005b34801561017357600080fd5b5061017c610736565b60405161018991906111bc565b60405180910390f35b34801561019e57600080fd5b506101b960048036038101906101b49190610e91565b61075f565b005b6101c3610857565b73ffffffffffffffffffffffffffffffffffffffff166101e1610736565b73ffffffffffffffffffffffffffffffffffffffff1614610237576040517f08c379a000000000000000000000000000000000000000000000000000000000815260040161022e90611314565b60405180910390fd5b61023f61085f565b565b6102496104ae565b15610289576040517f08c379a0000000000000000000000000000000000000000000000000000000008152600401610280906112f4565b60405180910390fd5b60c88383905011156102d0576040517f08c379a00000000000000000000000000000000000000000000000000000000081526004016102c790611394565b60405180910390fd5b600083839050826102e191906113e6565b90506000859050818173ffffffffffffffffffffffffffffffffffffffff166370a08231336040518263ffffffff1660e01b815260040161032291906111bc565b60206040518083038186803b15801561033a57600080fd5b505afa15801561034e573d6000803e3d6000fd5b505050506040513d601f19601f820116820180604052508101906103729190610f4f565b10156103b3576040517f08c379a00000000000000000000000000000000000000000000000000000000081526004016103aa90611334565b60405180910390fd5b6103f33330670de0b6b3a7640000856103cc91906113e6565b8473ffffffffffffffffffffffffffffffffffffffff16610900909392919063ffffffff16565b60005b858590508160ff1610156104a55761049286868360ff16818110610443577f4e487b7100000000000000000000000000000000000000000000000000000000600052603260045260246000fd5b90506020020160208101906104589190610e91565b670de0b6b3a76400008661046c91906113e6565b8473ffffffffffffffffffffffffffffffffffffffff166109899092919063ffffffff16565b808061049d906114c8565b9150506103f6565b50505050505050565b60008060149054906101000a900460ff16905090565b6104cc610857565b73ffffffffffffffffffffffffffffffffffffffff166104ea610736565b73ffffffffffffffffffffffffffffffffffffffff1614610540576040517f08c379a000000000000000000000000000000000000000000000000000000000815260040161053790611314565b60405180910390fd5b61054a6000610a0f565b565b610554610857565b73ffffffffffffffffffffffffffffffffffffffff16610572610736565b73ffffffffffffffffffffffffffffffffffffffff16146105c8576040517f08c379a00000000000000000000000000000000000000000000000000000000081526004016105bf90611314565b60405180910390fd5b60003373ffffffffffffffffffffffffffffffffffffffff16476040516105ee906111a7565b60006040518083038185875af1925050503d806000811461062b576040519150601f19603f3d011682016040523d82523d6000602084013e610630565b606091505b5050905080610674576040517f08c379a000000000000000000000000000000000000000000000000000000000815260040161066b906112b4565b60405180910390fd5b7fdb35132c111efe920cede025e819975671cfd1b8fcc1174762c8670c4e94c21133476040516106a592919061120e565b60405180910390a150565b6106b8610857565b73ffffffffffffffffffffffffffffffffffffffff166106d6610736565b73ffffffffffffffffffffffffffffffffffffffff161461072c576040517f08c379a000000000000000000000000000000000000000000000000000000000815260040161072390611314565b60405180910390fd5b610734610ad3565b565b60008060009054906101000a900473ffffffffffffffffffffffffffffffffffffffff16905090565b610767610857565b73ffffffffffffffffffffffffffffffffffffffff16610785610736565b73ffffffffffffffffffffffffffffffffffffffff16146107db576040517f08c379a00000000000000000000000000000000000000000000000000000000081526004016107d290611314565b60405180910390fd5b600073ffffffffffffffffffffffffffffffffffffffff168173ffffffffffffffffffffffffffffffffffffffff16141561084b576040517f08c379a000000000000000000000000000000000000000000000000000000000815260040161084290611294565b60405180910390fd5b61085481610a0f565b50565b600033905090565b6108676104ae565b6108a6576040517f08c379a000000000000000000000000000000000000000000000000000000000815260040161089d90611274565b60405180910390fd5b60008060146101000a81548160ff0219169083151502179055507f5db9ee0a495bf2e6ff9c91a7834c1ba4fdd244a5e8aa4e537bd38aeae4b073aa6108e9610857565b6040516108f691906111bc565b60405180910390a1565b610983846323b872dd60e01b858585604051602401610921939291906111d7565b604051602081830303815290604052907bffffffffffffffffffffffffffffffffffffffffffffffffffffffff19166020820180517bffffffffffffffffffffffffffffffffffffffffffffffffffffffff8381831617835250505050610b76565b50505050565b610a0a8363a9059cbb60e01b84846040516024016109a892919061120e565b604051602081830303815290604052907bffffffffffffffffffffffffffffffffffffffffffffffffffffffff19166020820180517bffffffffffffffffffffffffffffffffffffffffffffffffffffffff8381831617835250505050610b76565b505050565b60008060009054906101000a900473ffffffffffffffffffffffffffffffffffffffff169050816000806101000a81548173ffffffffffffffffffffffffffffffffffffffff021916908373ffffffffffffffffffffffffffffffffffffffff1602179055508173ffffffffffffffffffffffffffffffffffffffff168173ffffffffffffffffffffffffffffffffffffffff167f8be0079c531659141344cd1fd0a4f28419497f9722a3daafe3b4186f6b6457e060405160405180910390a35050565b610adb6104ae565b15610b1b576040517f08c379a0000000000000000000000000000000000000000000000000000000008152600401610b12906112f4565b60405180910390fd5b6001600060146101000a81548160ff0219169083151502179055507f62e78cea01bee320cd4e420270b5ea74000d11b0c9f74754ebdbfc544b05a258610b5f610857565b604051610b6c91906111bc565b60405180910390a1565b6000610bd8826040518060400160405280602081526020017f5361666545524332303a206c6f772d6c6576656c2063616c6c206661696c65648152508573ffffffffffffffffffffffffffffffffffffffff16610c3d9092919063ffffffff16565b9050600081511115610c385780806020019051810190610bf89190610f26565b610c37576040517f08c379a0000000000000000000000000000000000000000000000000000000008152600401610c2e90611374565b60405180910390fd5b5b505050565b6060610c4c8484600085610c55565b90509392505050565b606082471015610c9a576040517f08c379a0000000000000000000000000000000000000000000000000000000008152600401610c91906112d4565b60405180910390fd5b610ca385610d69565b610ce2576040517f08c379a0000000000000000000000000000000000000000000000000000000008152600401610cd990611354565b60405180910390fd5b6000808673ffffffffffffffffffffffffffffffffffffffff168587604051610d0b9190611190565b60006040518083038185875af1925050503d8060008114610d48576040519150601f19603f3d011682016040523d82523d6000602084013e610d4d565b606091505b5091509150610d5d828286610d8c565b92505050949350505050565b6000808273ffffffffffffffffffffffffffffffffffffffff163b119050919050565b60608315610d9c57829050610dec565b600083511115610daf5782518084602001fd5b816040517f08c379a0000000000000000000000000000000000000000000000000000000008152600401610de39190611252565b60405180910390fd5b9392505050565b600081359050610e0281611767565b92915050565b60008083601f840112610e1a57600080fd5b8235905067ffffffffffffffff811115610e3357600080fd5b602083019150836020820283011115610e4b57600080fd5b9250929050565b600081519050610e618161177e565b92915050565b600081359050610e7681611795565b92915050565b600081519050610e8b81611795565b92915050565b600060208284031215610ea357600080fd5b6000610eb184828501610df3565b91505092915050565b60008060008060608587031215610ed057600080fd5b6000610ede87828801610df3565b945050602085013567ffffffffffffffff811115610efb57600080fd5b610f0787828801610e08565b93509350506040610f1a87828801610e67565b91505092959194509250565b600060208284031215610f3857600080fd5b6000610f4684828501610e52565b91505092915050565b600060208284031215610f6157600080fd5b6000610f6f84828501610e7c565b91505092915050565b610f8181611440565b82525050565b610f9081611452565b82525050565b6000610fa1826113b4565b610fab81856113ca565b9350610fbb818560208601611495565b80840191505092915050565b6000610fd2826113bf565b610fdc81856113d5565b9350610fec818560208601611495565b610ff581611521565b840191505092915050565b600061100d6014836113d5565b915061101882611532565b602082019050919050565b60006110306026836113d5565b915061103b8261155b565b604082019050919050565b60006110536014836113d5565b915061105e826115aa565b602082019050919050565b60006110766026836113d5565b9150611081826115d3565b604082019050919050565b60006110996010836113d5565b91506110a482611622565b602082019050919050565b60006110bc6020836113d5565b91506110c78261164b565b602082019050919050565b60006110df602e836113d5565b91506110ea82611674565b604082019050919050565b60006111026000836113ca565b915061110d826116c3565b600082019050919050565b6000611125601d836113d5565b9150611130826116c6565b602082019050919050565b6000611148602a836113d5565b9150611153826116ef565b604082019050919050565b600061116b6014836113d5565b91506111768261173e565b602082019050919050565b61118a8161147e565b82525050565b600061119c8284610f96565b915081905092915050565b60006111b2826110f5565b9150819050919050565b60006020820190506111d16000830184610f78565b92915050565b60006060820190506111ec6000830186610f78565b6111f96020830185610f78565b6112066040830184611181565b949350505050565b60006040820190506112236000830185610f78565b6112306020830184611181565b9392505050565b600060208201905061124c6000830184610f87565b92915050565b6000602082019050818103600083015261126c8184610fc7565b905092915050565b6000602082019050818103600083015261128d81611000565b9050919050565b600060208201905081810360008301526112ad81611023565b9050919050565b600060208201905081810360008301526112cd81611046565b9050919050565b600060208201905081810360008301526112ed81611069565b9050919050565b6000602082019050818103600083015261130d8161108c565b9050919050565b6000602082019050818103600083015261132d816110af565b9050919050565b6000602082019050818103600083015261134d816110d2565b9050919050565b6000602082019050818103600083015261136d81611118565b9050919050565b6000602082019050818103600083015261138d8161113b565b9050919050565b600060208201905081810360008301526113ad8161115e565b9050919050565b600081519050919050565b600081519050919050565b600081905092915050565b600082825260208201905092915050565b60006113f18261147e565b91506113fc8361147e565b9250817fffffffffffffffffffffffffffffffffffffffffffffffffffffffffffffffff0483118215151615611435576114346114f2565b5b828202905092915050565b600061144b8261145e565b9050919050565b60008115159050919050565b600073ffffffffffffffffffffffffffffffffffffffff82169050919050565b6000819050919050565b600060ff82169050919050565b60005b838110156114b3578082015181840152602081019050611498565b838111156114c2576000848401525b50505050565b60006114d382611488565b915060ff8214156114e7576114e66114f2565b5b600182019050919050565b7f4e487b7100000000000000000000000000000000000000000000000000000000600052601160045260246000fd5b6000601f19601f8301169050919050565b7f5061757361626c653a206e6f7420706175736564000000000000000000000000600082015250565b7f4f776e61626c653a206e6577206f776e657220697320746865207a65726f206160008201527f6464726573730000000000000000000000000000000000000000000000000000602082015250565b7f4661696c656420746f2073656e64204574686572000000000000000000000000600082015250565b7f416464726573733a20696e73756666696369656e742062616c616e636520666f60008201527f722063616c6c0000000000000000000000000000000000000000000000000000602082015250565b7f5061757361626c653a2070617573656400000000000000000000000000000000600082015250565b7f4f776e61626c653a2063616c6c6572206973206e6f7420746865206f776e6572600082015250565b7f546f6b656e2042616c616e6365206973204c6f772c206d696e74206d6f72652060008201527f746f6b656e7320746f2073656e64000000000000000000000000000000000000602082015250565b50565b7f416464726573733a2063616c6c20746f206e6f6e2d636f6e7472616374000000600082015250565b7f5361666545524332303a204552433230206f7065726174696f6e20646964206e60008201527f6f74207375636365656400000000000000000000000000000000000000000000602082015250565b7f4d6178206f662032303020616464726573736573000000000000000000000000600082015250565b61177081611440565b811461177b57600080fd5b50565b61178781611452565b811461179257600080fd5b50565b61179e8161147e565b81146117a957600080fd5b5056fea2646970667358221220eb9c838a067bc1b6583d27180282eb16b6612c03588fdb38eaa32a04d1b014a164736f6c63430008040033",
  "linkReferences": {},
  "deployedLinkReferences": {}
}