{
  "_format": "hh-sol-artifact-1",
  "contractName": "MultiTransferTokenEqual",
  "sourceName": "contracts/MultiTransferTokenEqual.sol",
  "abi": [
    {
      "anonymous": false,
      "inputs": [
        {
          "indexed": true,
          "internalType": "address",
          "name": "previousOwner",
          "type": "address"
        },
        {
          "indexed": true,
          "internalType": "address",
          "name": "newOwner",
          "type": "address"
        }
      ],
      "name": "OwnershipTransferred",
      "type": "event"
    },
    {
      "inputs": [
        {
          "internalType": "address",
          "name": "_token",
          "type": "address"
        },
        {
          "internalType": "address[]",
          "name": "_addresses",
          "type": "address[]"
        },
        {
          "internalType": "uint256",
          "name": "_amount",
          "type": "uint256"
        }
      ],
      "name": "multiSend",
      "outputs": [],
      "stateMutability": "payable",
      "type": "function"
    },
    {
      "inputs": [],
      "name": "owner",
      "outputs": [
        {
          "internalType": "address",
          "name": "",
          "type": "address"
        }
      ],
      "stateMutability": "view",
      "type": "function"
    },
    {
      "inputs": [],
      "name": "renounceOwnership",
      "outputs": [],
      "stateMutability": "nonpayable",
      "type": "function"
    },
    {
      "inputs": [
        {
          "internalType": "address",
          "name": "newOwner",
          "type": "address"
        }
      ],
      "name": "transferOwnership",
      "outputs": [],
      "stateMutability": "nonpayable",
      "type": "function"
    }
  ],
  "bytecode": "0x608060405234801561001057600080fd5b5061002d61002261003260201b60201c565b61003a60201b60201c565b6100fe565b600033905090565b60008060009054906101000a900473ffffffffffffffffffffffffffffffffffffffff169050816000806101000a81548173ffffffffffffffffffffffffffffffffffffffff021916908373ffffffffffffffffffffffffffffffffffffffff1602179055508173ffffffffffffffffffffffffffffffffffffffff168173ffffffffffffffffffffffffffffffffffffffff167f8be0079c531659141344cd1fd0a4f28419497f9722a3daafe3b4186f6b6457e060405160405180910390a35050565b6111b38061010d6000396000f3fe60806040526004361061003f5760003560e01c80635b2a0e9614610044578063715018a6146100605780638da5cb5b14610077578063f2fde38b146100a2575b600080fd5b61005e60048036038101906100599190610a34565b6100cb565b005b34801561006c57600080fd5b5061007561036c565b005b34801561008357600080fd5b5061008c6103f4565b6040516100999190610c86565b60405180910390f35b3480156100ae57600080fd5b506100c960048036038101906100c49190610a0b565b61041d565b005b6100d3610515565b73ffffffffffffffffffffffffffffffffffffffff166100f16103f4565b73ffffffffffffffffffffffffffffffffffffffff1614610147576040517f08c379a000000000000000000000000000000000000000000000000000000000815260040161013e90610d63565b60405180910390fd5b60c883839050111561018e576040517f08c379a000000000000000000000000000000000000000000000000000000000815260040161018590610de3565b60405180910390fd5b6000838390508261019f9190610e35565b90506000859050818173ffffffffffffffffffffffffffffffffffffffff166370a08231336040518263ffffffff1660e01b81526004016101e09190610c86565b60206040518083038186803b1580156101f857600080fd5b505afa15801561020c573d6000803e3d6000fd5b505050506040513d601f19601f820116820180604052508101906102309190610ac9565b1015610271576040517f08c379a000000000000000000000000000000000000000000000000000000000815260040161026890610d83565b60405180910390fd5b6102b13330670de0b6b3a76400008561028a9190610e35565b8473ffffffffffffffffffffffffffffffffffffffff1661051d909392919063ffffffff16565b60005b858590508160ff1610156103635761035086868360ff16818110610301577f4e487b7100000000000000000000000000000000000000000000000000000000600052603260045260246000fd5b90506020020160208101906103169190610a0b565b670de0b6b3a76400008661032a9190610e35565b8473ffffffffffffffffffffffffffffffffffffffff166105a69092919063ffffffff16565b808061035b90610f17565b9150506102b4565b50505050505050565b610374610515565b73ffffffffffffffffffffffffffffffffffffffff166103926103f4565b73ffffffffffffffffffffffffffffffffffffffff16146103e8576040517f08c379a00000000000000000000000000000000000000000000000000000000081526004016103df90610d63565b60405180910390fd5b6103f2600061062c565b565b60008060009054906101000a900473ffffffffffffffffffffffffffffffffffffffff16905090565b610425610515565b73ffffffffffffffffffffffffffffffffffffffff166104436103f4565b73ffffffffffffffffffffffffffffffffffffffff1614610499576040517f08c379a000000000000000000000000000000000000000000000000000000000815260040161049090610d63565b60405180910390fd5b600073ffffffffffffffffffffffffffffffffffffffff168173ffffffffffffffffffffffffffffffffffffffff161415610509576040517f08c379a000000000000000000000000000000000000000000000000000000000815260040161050090610d23565b60405180910390fd5b6105128161062c565b50565b600033905090565b6105a0846323b872dd60e01b85858560405160240161053e93929190610ca1565b604051602081830303815290604052907bffffffffffffffffffffffffffffffffffffffffffffffffffffffff19166020820180517bffffffffffffffffffffffffffffffffffffffffffffffffffffffff83818316178352505050506106f0565b50505050565b6106278363a9059cbb60e01b84846040516024016105c5929190610cd8565b604051602081830303815290604052907bffffffffffffffffffffffffffffffffffffffffffffffffffffffff19166020820180517bffffffffffffffffffffffffffffffffffffffffffffffffffffffff83818316178352505050506106f0565b505050565b60008060009054906101000a900473ffffffffffffffffffffffffffffffffffffffff169050816000806101000a81548173ffffffffffffffffffffffffffffffffffffffff021916908373ffffffffffffffffffffffffffffffffffffffff1602179055508173ffffffffffffffffffffffffffffffffffffffff168173ffffffffffffffffffffffffffffffffffffffff167f8be0079c531659141344cd1fd0a4f28419497f9722a3daafe3b4186f6b6457e060405160405180910390a35050565b6000610752826040518060400160405280602081526020017f5361666545524332303a206c6f772d6c6576656c2063616c6c206661696c65648152508573ffffffffffffffffffffffffffffffffffffffff166107b79092919063ffffffff16565b90506000815111156107b257808060200190518101906107729190610aa0565b6107b1576040517f08c379a00000000000000000000000000000000000000000000000000000000081526004016107a890610dc3565b60405180910390fd5b5b505050565b60606107c684846000856107cf565b90509392505050565b606082471015610814576040517f08c379a000000000000000000000000000000000000000000000000000000000815260040161080b90610d43565b60405180910390fd5b61081d856108e3565b61085c576040517f08c379a000000000000000000000000000000000000000000000000000000000815260040161085390610da3565b60405180910390fd5b6000808673ffffffffffffffffffffffffffffffffffffffff1685876040516108859190610c6f565b60006040518083038185875af1925050503d80600081146108c2576040519150601f19603f3d011682016040523d82523d6000602084013e6108c7565b606091505b50915091506108d7828286610906565b92505050949350505050565b6000808273ffffffffffffffffffffffffffffffffffffffff163b119050919050565b6060831561091657829050610966565b6000835111156109295782518084602001fd5b816040517f08c379a000000000000000000000000000000000000000000000000000000000815260040161095d9190610d01565b60405180910390fd5b9392505050565b60008135905061097c81611138565b92915050565b60008083601f84011261099457600080fd5b8235905067ffffffffffffffff8111156109ad57600080fd5b6020830191508360208202830111156109c557600080fd5b9250929050565b6000815190506109db8161114f565b92915050565b6000813590506109f081611166565b92915050565b600081519050610a0581611166565b92915050565b600060208284031215610a1d57600080fd5b6000610a2b8482850161096d565b91505092915050565b60008060008060608587031215610a4a57600080fd5b6000610a588782880161096d565b945050602085013567ffffffffffffffff811115610a7557600080fd5b610a8187828801610982565b93509350506040610a94878288016109e1565b91505092959194509250565b600060208284031215610ab257600080fd5b6000610ac0848285016109cc565b91505092915050565b600060208284031215610adb57600080fd5b6000610ae9848285016109f6565b91505092915050565b610afb81610e8f565b82525050565b6000610b0c82610e03565b610b168185610e19565b9350610b26818560208601610ee4565b80840191505092915050565b6000610b3d82610e0e565b610b478185610e24565b9350610b57818560208601610ee4565b610b6081610f70565b840191505092915050565b6000610b78602683610e24565b9150610b8382610f81565b604082019050919050565b6000610b9b602683610e24565b9150610ba682610fd0565b604082019050919050565b6000610bbe602083610e24565b9150610bc98261101f565b602082019050919050565b6000610be1602e83610e24565b9150610bec82611048565b604082019050919050565b6000610c04601d83610e24565b9150610c0f82611097565b602082019050919050565b6000610c27602a83610e24565b9150610c32826110c0565b604082019050919050565b6000610c4a601483610e24565b9150610c558261110f565b602082019050919050565b610c6981610ecd565b82525050565b6000610c7b8284610b01565b915081905092915050565b6000602082019050610c9b6000830184610af2565b92915050565b6000606082019050610cb66000830186610af2565b610cc36020830185610af2565b610cd06040830184610c60565b949350505050565b6000604082019050610ced6000830185610af2565b610cfa6020830184610c60565b9392505050565b60006020820190508181036000830152610d1b8184610b32565b905092915050565b60006020820190508181036000830152610d3c81610b6b565b9050919050565b60006020820190508181036000830152610d5c81610b8e565b9050919050565b60006020820190508181036000830152610d7c81610bb1565b9050919050565b60006020820190508181036000830152610d9c81610bd4565b9050919050565b60006020820190508181036000830152610dbc81610bf7565b9050919050565b60006020820190508181036000830152610ddc81610c1a565b9050919050565b60006020820190508181036000830152610dfc81610c3d565b9050919050565b600081519050919050565b600081519050919050565b600081905092915050565b600082825260208201905092915050565b6000610e4082610ecd565b9150610e4b83610ecd565b9250817fffffffffffffffffffffffffffffffffffffffffffffffffffffffffffffffff0483118215151615610e8457610e83610f41565b5b828202905092915050565b6000610e9a82610ead565b9050919050565b60008115159050919050565b600073ffffffffffffffffffffffffffffffffffffffff82169050919050565b6000819050919050565b600060ff82169050919050565b60005b83811015610f02578082015181840152602081019050610ee7565b83811115610f11576000848401525b50505050565b6000610f2282610ed7565b915060ff821415610f3657610f35610f41565b5b600182019050919050565b7f4e487b7100000000000000000000000000000000000000000000000000000000600052601160045260246000fd5b6000601f19601f8301169050919050565b7f4f776e61626c653a206e6577206f776e657220697320746865207a65726f206160008201527f6464726573730000000000000000000000000000000000000000000000000000602082015250565b7f416464726573733a20696e73756666696369656e742062616c616e636520666f60008201527f722063616c6c0000000000000000000000000000000000000000000000000000602082015250565b7f4f776e61626c653a2063616c6c6572206973206e6f7420746865206f776e6572600082015250565b7f546f6b656e2042616c616e6365206973204c6f772c206d696e74206d6f72652060008201527f746f6b656e7320746f2073656e64000000000000000000000000000000000000602082015250565b7f416464726573733a2063616c6c20746f206e6f6e2d636f6e7472616374000000600082015250565b7f5361666545524332303a204552433230206f7065726174696f6e20646964206e60008201527f6f74207375636365656400000000000000000000000000000000000000000000602082015250565b7f4d6178206f662032303020616464726573736573000000000000000000000000600082015250565b61114181610e8f565b811461114c57600080fd5b50565b61115881610ea1565b811461116357600080fd5b50565b61116f81610ecd565b811461117a57600080fd5b5056fea2646970667358221220e531864a02afcf2f47f8e9f3de38cee9ecd175bd63b78bdbce2aaef865296d6364736f6c63430008040033",
  "linkReferences": {},
  "deployedLinkReferences": {}
}